:100000000C944C010C9474010C9474010C94330AFC
:100010000C94330A0C94330A0C9474010C947401FC
:100020000C9474010C9474010C9474010C9474017C
:100030000C9474010C9474010C9474010C9474016C
:100040000C94B70C0C9474010C94700F0C94A20FC8
:100050000C9474010C9474010C9474010C9474014C
:100060000C9474010C9474010D0A003E3E20005063
:100070006F776572696E67206F666620526F636B7B
:10008000424C4F434B2E2E2E210D0A00506F7765A8
:1000900072696E67206F6E20526F636B424C4F43E4
:1000A0004B2E2E2E210D0A005D005B6373756D3A99
:1000B000005D005B42696E6172792073697A653A0E
:1000C0000041542B53424452420D0041542B5342A1
:1000D0004449580D003C3C20000D0A0057616974EA
:1000E000696E6720666F7220726573706F6E7365DC
:1000F000200041542D4D5353544D0D0041542B437A
:1001000053510D0053424449582074696D656F7511
:1001100074210D0A0057616974696E6720666F72F9
:10012000204353512072657472792E2E2E0D0A00D1
:1001300057616974696E6720666F72205342444943
:10014000582072657472792E2E2E0D0A0053424487
:10015000495820666174616C210D0A00496E636F15
:100160006D696E67206D657373616765210D0A00A7
:1001700053424449582073756363657373210D0AB4
:10018000000D0A005342444958204D4F20636F64CC
:10019000653A20000D0041542B53424457543D0012
:1001A0000D0A00436865636B73756D3A00206279D0
:1001B0007465735D005B000D0041542B534244573E
:1001C000423D00696E7465726E616C53656E645277
:1001D0006563656976650D0A00496E7465726E61C6
:1001E0006C426567696E3A2073756363657373214A
:1001F0000D0A004154264B300D0041542644300D69
:1002000000415445310D004E6F206D6F64656D20C7
:1002100064657465637465642E0D0A0041540D00B5
:1002200043616C6C696E6720696E7465726E616C97
:10023000426567696E0D0A000000000800020100B7
:100240000003040700000000000000000102040891
:100250001020408001020408102001020408102030
:10026000040404040404040402020202020203035C
:100270000303030300000000230026002900000000
:100280000000250028002B000000000024002700AB
:100290002A006B0CD20FB30C11241FBECFEFD8E095
:1002A000DEBFCDBF11E0A0E0B1E0E6E3F5E202C0C1
:1002B00005900D92A03EB107D9F723E0A0EEB1E082
:1002C00001C01D92A830B207E1F712E0C6E9D2E002
:1002D00004C02297FE010E94E611C239D107C9F776
:1002E0000E9416100C948E120C940000FC0186855E
:1002F00097850895FC016115710521F06130710544
:1003000021F008958AE090E002C084E190E09783B4
:1003100086838EE190E0918780870895FC01738346
:10032000628308958F929F92AF92BF92CF92DF9295
:10033000EF92FF92CF93DF93EB010E94010D4B01EF
:100340005C0128EE33E0DE010E94C9116B017C01E3
:10035000CCE5DCE00E94010D681979098A099B0946
:100360006C157D058E059F0538F4209799F30E9442
:100370005C0C8111EFCF01C081E0DF91CF91FF9044
:10038000EF90DF90CF90BF90AF909F908F900895A7
:10039000FC0184819581009711F00C9463100895FD
:1003A000FC0184819581009711F00C9486100895CA
:1003B000FC0184819581009721F04AE050E00C9483
:1003C0006D110895FC0182819381009711F00C94C6
:1003D00063100895FC0182819381009711F00C94C1
:1003E00086100895FC0182819381009711F00C948E
:1003F000881008952F923F924F925F926F927F9252
:100400008F929F92AF92BF92CF92DF92EF92FF9224
:100410000F931F93CF93DF93CDB7DEB728970FB617
:10042000F894DEBF0FBECDBF98878F837B015A0142
:1004300069011A8309836CED70E00E94C80169812B
:100440007A818F8198850E94D00169ED70E08F815B
:1004500098850E94C801E114F10431F0A50160E023
:1004600070E0C7010E944312C114D10419F000E0EA
:1004700010E002C002E010E065ED70E08F81988529
:100480000E94E2010E94010D6B837C838D839E8319
:10049000812C912C212C312C0E94010D2B013C012F
:1004A000EF81F885A285B3852B813C814D815E81EA
:1004B000421A530A640A750A28EE33E00E94C911F1
:1004C000461657066806790640F42CE53CE0232BD7
:1004D00059F10E945C0C811127C080E07AC0AF8185
:1004E000B8858D919C91DC01ED91FC910680F7819E
:1004F000E02D0995782E682F8F8198850E94F20152
:10050000C114D10401F5E981FA81E80DF91D80815A
:10051000781609F453C091E080E0A981BA813C913A
:10052000731290E0892E982EEF81F8858081918159
:10053000DC01ED91FC910480F581E02D0995181600
:1005400019066CF2A9CF0115110521F00130110532
:10055000F1F0D9CFF601E20DF31D808178120EC0C3
:10056000BFEF2B1A3B0AF601E20DF31D91E080E08C
:100570003081311190E0092F182FC5CF91E080E034
:10058000F6013081731290E0292E382EBCCFE11491
:10059000F10409F4B8CFFDE07F1669F022E0A2165D
:1005A000B1044CF0D7017C92B1E0AB1AB108F7016D
:1005B00031967F01A8CF02E010E0A5CFFFEF8F1AA0
:1005C0009F0AE981FA81E80DF91D80818111ACCF84
:1005D00081E028960FB6F894DEBF0FBECDBFDF9145
:1005E000CF911F910F91FF90EF90DF90CF90BF9030
:1005F000AF909F908F907F906F905F904F903F90C3
:100600002F900895FC0182819381009721F04AE0A8
:1006100050E00C946D1108950F931F93CF93DF93C7
:10062000EC018A899B89019609F444C06623C9F0CC
:100630006CE870E0CE010E94C801188A61E08A89E6
:100640000E94BC0D61E08A890E94F50D0E94010D97
:100650006093E2017093E3018093E4019093E501DC
:1006600029C00E94010D0091E2011091E301209147
:10067000E4013091E501601B710B820B930B603D2F
:1006800027E072078105910510F40E94300D6FE696
:1006900070E0CE010E94C80181E0888B61E08A8908
:1006A0000E94BC0D60E08A89DF91CF911F910F916C
:1006B0000C94F50DDF91CF911F910F910895FF924A
:1006C0000F931F93CF93DF93EC018B01F22E442302
:1006D00021F06BE670E00E94E201B801CE010E94B9
:1006E000E201FF2029F068E670E0CE010E94E201FD
:1006F000B80188819981DF91CF911F910F91FF906F
:100700000C9463108F929F92AF92BF92CF92DF9220
:10071000EF92FF920F931F93CF93DF9300D000D0FF
:1007200000D0CDB7DEB77C0160E272E00E94C80164
:10073000F70180898823D1F161E0C7010E940C0391
:100740000E94010D4B015C010CE51CE00E94010DB3
:10075000681979098A099B09643F714081059105EF
:1007600050F40115110591F30E945C0C8111EECF3C
:1007700084E090E079C00E94010D4B015C018CE5A2
:10078000C82E8CE0D82E0E94010D681979098A09BB
:100790009B096038794A8340910558F067E072E020
:1007A000C7010E94C80185E090E05EC081E090E052
:1007B0005BC021E041E06CE172E0C7010E945F0391
:1007C00004E311E020E030E040E050E060E070E061
:1007D000C7010E94FA01182FC114D10421F00E9410
:1007E0005C0C882329F2112371F281E092E09A8354
:1007F00089838AEF91E09C838B8383EF91E09E83D2
:100800008D83CE0101966C015E0197E0A90EB11CAB
:10081000F601619171916F0121E041E0C7010E94F1
:100820005F0304E311E020E030E040E050E060E0EE
:1008300070E0C7010E94FA0181110CC08CE59CE0B8
:10084000892B19F483E090E00FC00E945C0C8111A9
:10085000F9CF8ECFCA14DB04D9F669ED71E0C70178
:100860000E94C80180E090E026960FB6F894DEBFA3
:100870000FBECDBFDF91CF911F910F91FF90EF90F1
:10088000DF90CF90BF90AF909F908F9008950F937F
:100890001F93CF93DF93EC01898981110FC081E011
:1008A000898BCE010E9482038C01198A009741F046
:1008B00060E0CE010E940C03C80104C089E001C0C1
:1008C00080E090E0DF91CF911F910F910895CF923A
:1008D000DF92EF92FF920F931F93CF93DF9300D09D
:1008E000CDB7DEB77C016B01FC01808981112FC07F
:1008F00021E041E06CEF70E0C7010E945F0304E378
:1009000011E022E031E042E050E0BE016F5F7F4F36
:10091000C7010E94FA0181110AC08CE59CE0892B75
:10092000C1F00E945C0C811114C084E013C0898165
:10093000992787FD9095C0970A9758F4CE010196A4
:100940000E94F911F6019183808380E003C08AE060
:1009500001C083E090E00F900F90DF91CF911F9145
:100960000F91FF90EF90DF90CF900895CF93DF939A
:10097000EC018989811107C081E0898BCE010E9439
:100980006704198A02C089E090E0DF91CF91089551
:10099000CF92DF92EF92FF920F931F93CF93DF934B
:1009A000CDB7DEB768970FB6F894DEBF0FBECDBFE8
:1009B0007C016B0121E041E062EF70E00E945F0387
:1009C00004E311E028E031E048E150E0BE016F5F50
:1009D0007F4FC7010E94FA0181110EC08CE59CE097
:1009E000892B19F483E090E014C00E945C0C811103
:1009F000F9CF84E090E00DC08981992787FD90951B
:100A0000C09721E00A9708F020E0F601208380E0FB
:100A100090E068960FB6F894DEBF0FBECDBFDF91B1
:100A2000CF911F910F91FF90EF90DF90CF9008959D
:100A30002F923F924F925F926F927F928F929F92EE
:100A4000AF92BF92CF92DF92EF92FF920F931F93DC
:100A5000CF93DF93CDB7DEB7AE970FB6F894DEBF76
:100A60000FBECDBF5C013B015EA74DA72901180158
:100A700021E041E06BEC70E00E945F0304E311E0D1
:100A800021E131E040E250E0CE0101964C01BC0191
:100A9000C5010E94FA0181110BC08CE59CE0892BF5
:100AA000D9F10E945C0C811137C084E090E036C01F
:100AB0007AA269A2EDA5FEA5FCA3EBA35EA24DA2BE
:100AC00038A62FA2FAA6E9A6DCA6CBA66E01F1E213
:100AD000CF0ED11CE12CF12CE114F10411F4C4016E
:100AE00002C080E090E06AE171E00E943E1200974F
:100AF00099F0F601A190B1906F010E941712F501D3
:100B000071836083FFEFEF1AFF0A86E0E816F104B5
:100B100019F780E090E002C083E090E0AE960FB657
:100B2000F894DEBF0FBECDBFDF91CF911F910F9123
:100B3000FF90EF90DF90CF90BF90AF909F908F90FD
:100B40007F906F905F904F903F902F9008953F92CD
:100B50004F925F926F927F928F929F92AF92BF92CD
:100B6000CF92DF92EF92FF920F931F93CF93DF9379
:100B700000D000D0CDB7DEB79C838B836B017A01A8
:100B800021E041E061EC70E00E945F030DE111E0C3
:100B900020E030E040E050E060E070E08B819C813C
:100BA0000E94FA0181110EC08CE59CE0892B19F49A
:100BB00083E090E04EC10E945C0C8111F9CF84E08B
:100BC00090E047C10E94010D2B013C010CE51CE0A7
:100BD0000E94010D4B015C01EB81FC81A285B38574
:100BE00084189508A608B70828EE33E00E94C911BA
:100BF00086169706A806B906B0F40115110571F41A
:100C0000AB81BC818D919C91DC01ED91FC910480C4
:100C1000F581E02D09950297DCF205C00E945C0C7D
:100C20008111EECFCCCFEB81FC8180819181DC0101
:100C3000ED91FC910480F581E02D099502970CF46B
:100C40005DC0AB81BC818D919C91DC01ED91FC91EB
:100C50000680F781E02D0995B82EEB81FC8180811B
:100C60009181DC01ED91FC910680F781E02D0995E1
:100C700000E010E01B2D080F191F63EB70E08B8163
:100C80009C810E94E201B8018B819C810E94020339
:100C900061EB70E08B819C810E94E2011A821982D3
:100CA000312CA981BA81A017B10759F59CE5C92E4D
:100CB0009CE0D92E0E94010D4B015C01EB81FC816F
:100CC000A285B38584189508A608B70828EE33E0F6
:100CD0000E94C91186169706A806B90608F467C0CF
:100CE000EB81FC8180819181DC01ED91FC9104809C
:100CF000F581E02D099502970CF070C087E090E037
:100D0000A8C0ECE5FCE0EF2B71F4AB81BC818D91C8
:100D10009C91DC01ED91FC910480F581E02D099519
:100D2000892B49F105C00E945C0C8111EECF47CFA1
:100D3000EB81FC8180819181DC01ED91FC91068049
:100D4000F781E02D0995C114D104A9F0E114F10453
:100D500091F0F70120813181232B59F0D6018C933A
:100D600080819181019791838083F60131966F0193
:100D700002C0332433940E94010D4B015C01EB81CE
:100D8000FC81A285B38584189508A608B70828EECB
:100D900033E00E94C91186169706A806B90608F026
:100DA000ADCF89819A8101969A8389837ACFC114C4
:100DB000D10479F4AB81BC818D919C91DC01ED91E2
:100DC000FC910480F581E02D099502970CF472CF17
:100DD00087CF0E945C0C8111EDCFF1CEEB81FC81BD
:100DE00080819181DC01ED91FC910680F781E02DFD
:100DF0000995B82EEB81FC8180819181DC01ED9118
:100E0000FC910680F781E02D09956C016AEA70E09B
:100E10008B819C810E94E20120E030E03B2DB901F2
:100E20006C0D7D1D8B819C810E94020368EA70E03D
:100E30008B819C810E94E201E114F10419F0F70119
:100E400011830083332019F088E090E002C080E035
:100E500090E00F900F900F900F90DF91CF911F9126
:100E60000F91FF90EF90DF90CF90BF90AF909F9049
:100E70008F907F906F905F904F903F9008950F9369
:100E80001F93CF93DF93EC018B010E94EA01B8011D
:100E900088819981DF91CF911F910F910C948610D9
:100EA0000F931F93CF93DF93EC018B010E940203FA
:100EB0004AE050E0B80188819981DF91CF911F917C
:100EC0000F910C946D112F923F924F925F926F92FF
:100ED0007F928F929F92AF92BF92CF92DF92EF92CA
:100EE000FF920F931F93CF93DF93CDB7DEB72F976A
:100EF0000FB6F894DEBF0FBECDBF5C014B013A01C7
:100F000069011801270163EC71E00E94C801D50155
:100F100050968C91811177C120E041E061147104F9
:100F200009F472C0C114D10409F46EC069EB71E018
:100F3000C5010E945F03B601C5010E94500721E070
:100F400040E067EB71E0C5010E945F0307E211E03A
:100F500020E030E040E050E060E070E0C5010E9439
:100F6000FA01882309F470C07301EC0CFD1C812C7C
:100F7000912C6E147F0499F0F50180819181830199
:100F8000DC01ED91FC910190F081E02DD3016D9198
:100F90003D010995F8018081880E911CEACF65EB2F
:100FA00071E0C5010E94E201B601C5010E94020381
:100FB0006DEA71E0C5010E94E20163EA71E0C501DA
:100FC0000E94C801B401C5010E94D80160EA71E025
:100FD000C5010E94C801D5018D919C91DC01ED9164
:100FE000FC910190F081E02D692D0995F50180813A
:100FF0009181DC01ED91FC910190F081E02D682D53
:1010000009950FE211E015C066E971E0C5010E9483
:101010005F038114910421F0B401C5010E943F07D0
:1010200021E040E064E971E0C5010E945F0304E350
:1010300011E020E030E040E050E060E070E0C50109
:101040000E94FA0181110BC08CE59CE0892B11F400
:1010500083E0DAC00E945C0C8111FACF7EC00E944E
:10106000010D3B014C010E94010D661977098809A9
:101070009909603E73498440910508F0BDC01E8601
:101080001D86B1E0BF87BE01635F7F4FC5010E942F
:1010900067049C01009709F0ADC0F50186898111B4
:1010A0005EC08F85882309F49AC02D853E85F501A1
:1010B00084899589281739070CF491C01C861B86F2
:1010C0001A86198618861F821E821D821C821B8228
:1010D0001A821982CE0101966C01DE0113967D0100
:1010E0008E010B5F1F4F9E01295F3F4FAE01475F8F
:1010F0005F4FBE01655F7F4FC5010E9418059C01CF
:10110000009709F077C064E871E0C5010E94C8014A
:101110006B857C85C5010E94D80161E871E0C5013D
:101120000E94C8018B859C858530910560F19C01EA
:101130002D7F2C30310509F449C0409709F446C091
:1011400060E371E0C5010E94C801F5016085718509
:10115000C5010E949201811186CF84E055C02D8582
:101160003E8584899589281739070CF49ACF1F8604
:10117000BE01615F7F4FC5010E94C8049C010097BA
:1011800009F48FCF37C060E771E0C5010E94C80144
:1011900089819A81F501978786878F819885019744
:1011A00071F42114310459F06CE571E0C5010E941D
:1011B000C801A201B101C5010E94A70526C04114C2
:1011C000510459F0D2011D921C9207C06DE471E0E8
:1011D000C5010E94C80186E017C080E015C065E126
:1011E00071E0C5010E94C801D50116966D917C91F0
:1011F0001797AECFC90109C064E071E0C5010E9434
:10120000C80187E001C08AE090E02F960FB6F894FD
:10121000DEBF0FBECDBFDF91CF911F910F91FF9029
:10122000EF90DF90CF90BF90AF909F908F907F9086
:101230006F905F904F903F902F900895EF92FF92A4
:101240000F931F93CF93DF93EC01898981110FC016
:1012500081E0898BE12CF12C00E010E020E030E00F
:1012600040E050E0CE010E946307198A02C089E085
:1012700090E0DF91CF911F910F91FF90EF90089533
:10128000209128023091290228173907B9F490914A
:10129000E6018091E701981789F0E091E601F0E01E
:1012A000E851FE4F80812091E60130E02F5F3F4FF3
:1012B0002F7333272093E60190E008958FEF9FEF7F
:1012C00008951F93CF93DF93DC015C968D919C91E1
:1012D0005D97009749F481E090E013969C938E937C
:1012E000129780E090E03BC05196ED91FC915297AF
:1012F00050962C915097322F30951FB75E964C9197
:101300005E9741FB772770F941FD6095F894408125
:10131000772311F0422B01C043234083EC01219736
:10132000F1F748E0508160FF02C0522B01C0532307
:101330005083EC012197F1F76695415099F7808130
:10134000772311F0832301C0822B80831FBF5C961B
:101350008D919C915D970197F1F781E090E0DF918D
:10136000CF911F91089520912802309129022817CA
:10137000390781F49091E6018091E701981751F0C7
:10138000E091E601F0E0E851FE4F8081992787FD6A
:10139000909508958FEF9FEF089520912802309146
:1013A00029022817390771F48091E7012091E6019D
:1013B00090E0805C9F4F821B910960E470E00E9486
:1013C0007411089580E090E00895209128023091F2
:1013D00029022817390739F48FB7F8941092E701DA
:1013E0001092E6018FBF0895E0912802F091290242
:1013F000E817F90769F4A389B4899C9185898095D8
:1014000089238C93109229021092280281E008957A
:1014100080E00895CF93DF93EC018A8D9B8D892B1B
:10142000F1F080912802909129028C179D07B9F064
:10143000009711F00E94F4098E8D8E7F8E8F10928E
:10144000E7011092E601D0932902C0932802EB89AC
:10145000FC8980819D89892B808381E001C080E0A7
:10146000DF91CF9108951F920F920FB60F92112422
:101470002F933F934F935F936F937F938F939F939C
:10148000AF93BF93EF93FF93E0912802F09129026D
:10149000309709F451C0868DA685B785958581FF63
:1014A00004C08C91892329F447C08C91892309F0C9
:1014B00043C0A389B4899C918589809589238C93A5
:1014C000868997890197F1F7208D318DA685B7859B
:1014D000758558E040E0C9010197F1F7842F90E04D
:1014E00095958795482F6C91672309F04068515076
:1014F00091F7868D81FD40958091E70190E00196FE
:101500008F7399272091E601281749F0A091E701F0
:10151000B0E0A851BE4F4C938093E70103C0868D85
:101520008160868F828D938D0197F1F7A389B489AD
:101530008C919589892B8C93FF91EF91BF91AF91FD
:101540009F918F917F916F915F914F913F912F91DB
:101550000F900FBE0F901F9018952DE331E0FC0106
:10156000318320830C94F4091F93CF93DF93EC0114
:10157000162F6E8D6695617081E06827812F0E941D
:10158000F50D61E0812F0E94BC0D812F90E0FC01E0
:10159000E45BFD4FE491E88BFC01E05AFD4FE491E0
:1015A000F0E0EE0FFF1FE258FD4F859194919A8B6A
:1015B000898BDF91CF911F9108951F93CF93DF9374
:1015C000EC01162F60E0812F0E94BC0D8E8D81FDF5
:1015D00004C061E0812F0E94F50D1C87812F90E0EF
:1015E000FC01E45BFD4FE491ED87FC01E05AFD4F07
:1015F000E491F0E0EE0FFF1FEC58FD4F85919491C0
:101600009F878E87DF91CF911F910895FF920F934F
:101610001F93CF93DF93EC01F62E522F1B821A8279
:1016200008EE13E020E030E00C831D832E833F831F
:101630008DE391E0998388831F8A1E8A198E188E04
:101640001B8E1A8E1D8E1C8E8E8D8E7F50FB81F907
:101650008E8F642FCE010E94B40A6F2DCE01DF91D0
:10166000CF911F910F91FF900C94DD0ACF93DF93E0
:10167000EC019A01AB011B8E1A8E198E188E1F8AEF
:101680001E8A60E079E08DE390E00E94AA11C90112
:101690002430310520F0B9016350710902C061E0C6
:1016A00070E07D8F6C8FEC85E63108F068C0B90181
:1016B000769567956431710518F06351710902C020
:1016C00061E070E07F8B6E8B069718F0C90105977B
:1016D00002C081E090E0998F888FC901880F991F1F
:1016E000820F931F96958795969587958D309105D6
:1016F00010F00C9702C081E090E09B8F8A8F2091C0
:101700006800E83050F091E0EE3008F490E081E0BD
:1017100001C0880F9A95EAF701C084E0822B80937C
:1017200068002C85283038F02E3040F0263148F4FF
:101730008CE690E008C08DE690E005C08BE690E076
:1017400002C080E090E09C8B8B8B283030F481E0ED
:1017500001C0880F2A95EAF70DC0822F90E02E3045
:1017600010F4089701C00E9791E001C0990F8A9577
:10177000EAF7892F8D8B8C8D9D8D0197F1F7CE0126
:10178000DF91CF910C940A0A61E08DE00E94BC0DBC
:1017900026E040E052EC61E070E08BE692E00E94CF
:1017A0000E0F40E05BE460E070E083E492E00E94B2
:1017B000360B6BE672E08CE292E00E948E0161E0F3
:1017C00070E08CE292E00E947A018CE292E00E944A
:1017D000470460E071E08CE292E00E94B6049093CE
:1017E0002B0280932A02892B19F069E471E01EC054
:1017F00066E671E08BE692E00E948610609100013F
:10180000709101014AE050E08BE692E00E9448119D
:1018100069E771E08CE292E00E941E0990932B022E
:1018200080932A02892B69F067E871E08BE692E0E9
:101830000E94861060912A0270912B024AE050E0CB
:1018400013C062EA71E08BE692E00E94931062EBB3
:1018500071E08BE692E00E9486108CE292E00E949A
:1018600076014AE050E0BC018BE692E00C9448110E
:1018700061E08DE00E94F50D60E071E08CE292E0A5
:101880000E94B60490932B0280932A0266E671E0D0
:101890008BE692E00E948610609100017091010138
:1018A0004AE050E08BE692E00E94481168EE73E057
:1018B00080E090E00C94300D0E94010D28EE33E0A2
:1018C00040E050E00E948811622F61708DE00E941C
:1018D000F50D81E0089520E043E062E083E492E0CA
:1018E0000E94060B83E492E090932D0280932C02D9
:1018F00010922F0210922E0210923102109230029A
:101900008AE090E090933302809332028EE190E07F
:10191000909335028093340290933702809336027D
:101920008CE291E090933902809338028FEF9FEF21
:1019300090933B0280933A0221E020933C02109264
:101940003D0287E090E090933F0280933E0282E068
:1019500090E090934102809340022093420261E024
:1019600087E00C94BC0D83E492E00C94AD0A1F92C6
:101970000F920FB60F9211242F933F938F939F9343
:10198000AF93BF938091630290916402A09165022E
:10199000B09166023091620223E0230F2D3720F4CC
:1019A0000196A11DB11D05C026E8230F0296A11DB9
:1019B000B11D209362028093630290936402A0930E
:1019C0006502B09366028091670290916802A091CF
:1019D0006902B0916A020196A11DB11D8093670250
:1019E00090936802A0936902B0936A02BF91AF918D
:1019F0009F918F913F912F910F900FBE0F901F904D
:101A000018952FB7F89460916302709164028091E9
:101A10006502909166022FBF08953FB7F8948091B8
:101A2000670290916802A0916902B0916A0226B59E
:101A3000A89B05C02F3F19F00196A11DB11D3FBF06
:101A40006627782F892F9A2F620F711D811D911D96
:101A500042E0660F771F881F991F4A95D1F70895B6
:101A6000CF92DF92EF92FF92CF93DF936B017C01D5
:101A70000E940D0DEB01C114D104E104F10489F0C1
:101A80000E9473110E940D0D6C1B7D0B683E73400C
:101A900090F381E0C81AD108E108F108C851DC4F81
:101AA000EACFDF91CF91FF90EF90DF90CF90089534
:101AB000789484B5826084BD84B5816084BD85B529
:101AC000826085BD85B5816085BDEEE6F0E08081F0
:101AD00081608083E1E8F0E0108280818260808311
:101AE000808181608083E0E8F0E080818160808394
:101AF000E1EBF0E0808184608083E0EBF0E08081C6
:101B000081608083EAE7F0E0808184608083808167
:101B1000826080838081816080838081806880830F
:101B20001092C1000895833081F028F4813099F03B
:101B30008230A1F008958730A9F08830B9F0843060
:101B4000D1F4809180008F7D03C0809180008F77D9
:101B500080938000089584B58F7702C084B58F7D0F
:101B600084BD08958091B0008F7703C08091B0004C
:101B70008F7D8093B0000895CF93DF9390E0FC01B8
:101B8000E45BFD4F2491FC01E05AFD4F84918823D2
:101B900049F190E0880F991FFC01E857FD4FA5918E
:101BA000B49182589D4FFC01C591D4919FB76111AA
:101BB00008C0F8948C91209582238C93888182238D
:101BC0000AC0623051F4F8948C91322F30958323FF
:101BD0008C938881822B888304C0F8948C91822B0B
:101BE0008C939FBFDF91CF9108950F931F93CF9355
:101BF000DF931F92CDB7DEB7282F30E0F901E85C04
:101C0000FD4F8491F901E45BFD4F1491F901E05A15
:101C1000FD4F04910023C9F0882321F069830E94BD
:101C2000930D6981E02FF0E0EE0FFF1FE258FD4FAA
:101C3000A591B4919FB7F8948C91611103C0109550
:101C4000812301C0812B8C939FBF0F90DF91CF9197
:101C50001F910F910895FC01818D228D90E0805C91
:101C60009F4F821B91098F7399270895FC01918DD5
:101C7000828D981731F0828DE80FF11D858D90E0EF
:101C800008958FEF9FEF0895FC01918D828D981735
:101C900061F0828DDF01A80FB11D5D968C91928D50
:101CA0009F5F9F73928F90E008958FEF9FEF08954D
:101CB00088EC9FE0892B49F080E090E0892B29F0A7
:101CC0000E94C80F81110C9400000895FC01848DBE
:101CD000DF01A80FB11DA35ABF4F2C91848D90E056
:101CE00001968F739927848FA689B7892C93A08931
:101CF000B1898C9180648C93938D848D981306C0E8
:101D00000288F389E02D80818F7D80830895CF93B1
:101D1000DF93EC01888D8823C9F0EA89FB898081F3
:101D200085FD05C0A889B9898C9186FD0FC00FB6C5
:101D300007FCF5CF808185FFF2CFA889B9898C9106
:101D400085FFEDCFCE010E94660EE7CFDF91CF91E8
:101D50000895CF92DF92FF920F931F93CF93DF935B
:101D60001F92CDB7DEB76C0181E0D60158968C93F7
:101D700058975B969C915B975C968C915C979813B7
:101D800007C05096ED91FC915197808185FD2EC042
:101D9000F601038D10E00F5F1F4F0F731127F02E18
:101DA000F601848DF81211C00FB607FCF9CFD601E9
:101DB0005096ED91FC915197808185FFF1CFC6013E
:101DC00069830E94660E6981EBCF838DE80FF11D58
:101DD000E35AFF4F6083D6015B960C935B97529654
:101DE000ED91FC915397808180620CC0D60156968C
:101DF000ED91FC91579760835096ED91FC9151972E
:101E000080818064808381E090E00F90DF91CF91AA
:101E10001F910F91FF90DF90CF900895BF92CF92C6
:101E2000DF92EF92FF92CF93DF93EC016A017B0187
:101E3000B22EE889F98982E08083411581EE580746
:101E400061057105A1F060E079E08DE390E0A70104
:101E500096010E9488112150310941095109569576
:101E6000479537952795211580E1380798F0E8893F
:101E7000F989108260E874E88EE190E0A70196018C
:101E80000E94881121503109410951095695479501
:101E900037952795EC85FD853083EE85FF8520837A
:101EA000188EEC89FD89B082EA89FB898081806186
:101EB0008083EA89FB89808188608083EA89FB8945
:101EC000808180688083EA89FB8980818F7D80831F
:101ED000DF91CF91FF90EF90DF90CF90BF9008956A
:101EE0001F920F920FB60F9211242F938F939F93EF
:101EF000EF93FF93E0917B02F0917C028081E0916F
:101F00008102F091820282FD12C090818091840250
:101F10008F5F8F7320918502821751F0E0918402C8
:101F2000F0E0E559FD4F958F8093840201C08081D8
:101F3000FF91EF919F918F912F910F900FBE0F9076
:101F40001F9018951F920F920FB60F9211242F9386
:101F50003F934F935F936F937F938F939F93AF9331
:101F6000BF93EF93FF938BE692E00E94660EFF9182
:101F7000EF91BF91AF919F918F917F916F915F9101
:101F80004F913F912F910F900FBE0F901F9018957A
:101F90008BE692E00E942B0E21E0892B09F420E0D1
:101FA000822F089510926E0210926D0288EE93E0D7
:101FB000A0E0B0E080936F0290937002A093710252
:101FC000B093720286EC91E090936C0280936B0266
:101FD00085EC90E0909378028093770284EC90E017
:101FE00090937A028093790280EC90E090937C0247
:101FF00080937B0281EC90E090937E0280937D023F
:1020000082EC90E09093800280937F0286EC90E0D7
:102010009093820280938102109284021092850232
:102020001092860210928702089508950E94580D1A
:102030000E9415100E94C40BC8E5DEE00E94380C17
:102040002097E1F30E94580EF9CFCF92DF92EF92E2
:10205000FF920F931F93CF93DF937C016A01EB01F3
:1020600000E010E00C151D0571F06991D701ED91AC
:10207000FC910190F081E02DC7010995892B19F0A1
:102080000F5F1F4FEFCFC801DF91CF911F910F91CD
:10209000FF90EF90DF90CF9008956115710581F06A
:1020A000DB010D900020E9F7AD0141505109461BBD
:1020B000570BDC01ED91FC910280F381E02D099436
:1020C00080E090E00895EF92FF920F931F93CF93DB
:1020D000DF938C017B01C0E0D0E0F701EC0FFD1F26
:1020E0006491662359F0F801A081B181ED91FC91D2
:1020F000C8010995892B11F02196EFCFCE01DF9110
:10210000CF911F910F91FF90EF9008950C944D1077
:10211000DC01ED91FC910190F081E02D099466E3E2
:1021200071E00C944D100F931F93CF93DF93EC014C
:102130000E944D108C01CE010E948F10800F911FC4
:10214000DF91CF911F910F9108958F929F92AF923F
:10215000BF92CF92DF92EF92FF920F931F93CF9394
:10216000DF93CDB7DEB7A1970FB6F894DEBF0FBEF1
:10217000CDBF7C01C42EE52FCB01D22E19A221E0C8
:102180002D1510F02AE0D22E8E010F5D1F4F8D2CE1
:10219000912CA12CB12C6C2D7E2FA50194010E94B5
:1021A00088118C2DD29E80191124015011098A307A
:1021B00014F4805D01C0895CF8018083211531052C
:1021C0004105510521F0C22EE32FCA01E4CFB80129
:1021D000C7010E944D10A1960FB6F894DEBF0FBE46
:1021E000CDBFDF91CF911F910F91FF90EF90DF90C6
:1021F000CF90BF90AF909F908F900895CF92DF9235
:10220000EF92FF920F931F93CF93DF93EC016A013C
:102210007B012115310579F4E881F9810190F08184
:10222000E02D642FDF91CF911F910F91FF90EF90E0
:10223000DF90CF9009942A303105E9F477FF1AC076
:102240006DE20E9488108C0144275527BA014C1971
:102250005D096E097F092AE0CE010E94A510800F5A
:10226000911FDF91CF911F910F91FF90EF90DF9021
:10227000CF9008952AE0B701A601CE01DF91CF915A
:102280001F910F91FF90EF90DF90CF900C94A510CD
:102290000F931F93CF93DF93EC019A01AB01662755
:1022A00057FD6095762F0E94FE108C01CE010E9492
:1022B0008F10800F911FDF91CF911F910F91089583
:1022C0002115310541F4DC01ED91FC910190F08183
:1022D000E02D642F09940C94A5109A01AB0160E0E5
:1022E00070E00C946011089597FB072E16F400948B
:1022F00007D077FD09D00E94D01107FC05D03EF42D
:10230000909581959F4F0895709561957F4F0895A1
:10231000A1E21A2EAA1BBB1BFD010DC0AA1FBB1FE9
:10232000EE1FFF1FA217B307E407F50720F0A21B5B
:10233000B30BE40BF50B661F771F881F991F1A94C8
:1023400069F760957095809590959B01AC01BD01F2
:10235000CF010895052E97FB1EF400940E94C11131
:1023600057FD07D00E94881107FC03D04EF40C944F
:10237000C11150954095309521953F4F4F4F5F4F7C
:10238000089590958095709561957F4F8F4F9F4FE1
:1023900008950E94EA11B7FF0895821B930B0895D8
:1023A000AA1BBB1B51E107C0AA1FBB1FA617B7077B
:1023B00010F0A61BB70B881F991F5A95A9F7809597
:1023C0009095BC01CD010895EE0FFF1F0590F4918B
:1023D000E02D0994A29FB001B39FC001A39F700D8F
:1023E000811D1124911DB29F700D811D1124911D1D
:1023F0000895FC0188279927E89421912032E9F378
:10240000293010F02E30C8F32B3241F02D3239F440
:10241000689404C00E948612820F911D219120535E
:102420002A30C0F31EF4909581959F4F08951F9315
:10243000FC0199278827BC01E89411911032E9F337
:10244000193010F01E30C8F31B3251F01D3249F420
:10245000689406C00E947112610F711D811D911D4B
:10246000119110531A30B0F33EF490958095709509
:1024700061957F4F8F4F9F4F1F91089540EE51E020
:102480000E944A120895DC0101C06D9341505040F2
:10249000E0F70895FA01A191B081009719F410971F
:1024A000E1F0CD01DC01CD010D90002011F4C0015F
:1024B00013C0FB012191222319F02015D9F7F3CF86
:1024C000FB012191201519F41E92119606C02223BA
:1024D000C1F70D900020A1F7D001FA01A193B083BC
:1024E0000895592F482F372F262F660F771F881FE3
:1024F000991F660F771F881F991F620F731F841F14
:10250000951F660F771F881F991F08957AE0979F80
:10251000902D879F802D910D1124089512E0C6E91A
:10252000D2E004C0FE010E94E6112296C839D1070C
:06253000C9F7F894FFCF8B
:10253600FFFF2B4353513A002D4D5353544D3A2030
:10254600002B53424449583A20002C200041542B7A
:1025560053424452420D0052454144590D0A00303F
:102566000D0A0D0A4F4B0D0A0000000000610925F7
:1025760010CD094009B309E5095369676E616C51CD
:1025860075616C697479206661696C65643A206569
:1025960072726F7220005369676E616C207175618B
:1025A6006C697479206973200048656C6C6F2C2007
:1025B600776F726C64210073656E64534244546590
:1025C6007874206661696C65643A206572726F7210
:1025D60020004865792C20697420776F726B6564DA
:1025E60021004D65737361676573206C6566743A87
:1025F600200000000000A90E25102B0E440E360EFA
:10260600870E6E616E00696E66006F7666002E003C
:00000001FF
