:1000000000800020BD01000011280000D52700005D
:10001000D5270000D5270000D5270000D5270000F0
:10002000D5270000D5270000D527000011280000A3
:1000300011280000D527000011280000C527000066
:1000400011280000112800001128000011280000CC
:1000500011280000112800001128000011280000BC
:1000600011280000112800001128000011280000AC
:10007000112800001128000011280000112800009C
:10008000112800001128000011280000112800008C
:10009000112800001128000011280000112800007C
:1000A000112800001128000011280000112800006C
:1000B000112800001128000011280000112800005C
:1000C000112800001128000011280000112800004C
:1000D000112800001128000011280000112800003C
:1000E000112800001128000011280000112800002C
:1000F00011280000AD2D0000112800004D33000034
:1001000011280000F137000011280000112800001C
:1001100011280000112800001128000011280000FB
:1001200011280000112800001128000011280000EB
:1001300011280000112800001128000011280000DB
:1001400011280000112800001128000011280000CB
:10015000BD3C0000D53C0000ED3C0000053D00002A
:100160001128000099170000112800001128000034
:10017000112800001128000011280000112800009B
:10018000112800001128000011280000112800008B
:10019000112800001128000011280000112800007B
:1001A000112800001128000011280000112800006B
:1001B000112800001128000011280000574B4CF2B4
:1001C000205210B51A804DF628121A8000BF00BFC9
:1001D00002F022FB524B4FF010621A60514A9A60B3
:1001E000514ADA60A3F53043203B1A6812F480725A
:1001F00004D14E490A604FF4A8521A604C4B1A7849
:10020000110703D51A7842F008021A70494B4A4C7C
:100210004A482A221A704A4A00239918A14203D256
:10022000195899500433F8E7464B474900228B424E
:1002300002D243F8042BFAE74448454900235A58B0
:100240001A500433B3F5DE7FF9D1424B424A802184
:1002500003F8011B9342FBD1404B3C4A1A60404BD0
:100260000A221A70A3F5805324225A70A0221A7011
:100270009A799207FCD59A79D406FCD4394A9379B5
:1002800003F00C03082B374BF9D103221A714022DB
:100290005A719A799006FCD5324A9179314B4906C8
:1002A000FBD5314A314911600221516020221A7078
:1002B0009A7902F00C020C2AFAD12D4B2D4A1A60C1
:1002C0002D4B2E4A1A6000225A60072243F8042C54
:1002D0002B4AC3F80C2D62B601F020F9134B1B68B2
:1002E000DA0705D5274801F08DF8274B274A1A6011
:1002F000274B1B785B0609D5234C244A236893427D
:1003000004D1204801F07EF80023236004F070FD42
:1003100002F088FA01F080FFFEE700BF0E200540E2
:1003200030800440823F04000100002B14D00340C1
:1003300002D0074000E007405490FF1FC45D00005A
:100340006087FF1F5490FF1FCC94FF1F0082FF1F88
:100350000000000000E400E05FE400E008ED00E0E1
:100360000050064000400640448004400000030165
:1003700004800440C010050014E000E0FF76010096
:100380000000202000DD68501CE00340A5C3945A03
:1003900000F00740FFFFFFFFFFFFFFFFFFFFFFFF32
:1003A000FFFFFFFFFFFFFFFFFFFFFFFFFFFFFFFF5D
:1003B000FFFFFFFFFFFFFFFFFFFFFFFFFFFFFFFF4D
:1003C000FFFFFFFFFFFFFFFFFFFFFFFFFFFFFFFF3D
:1003D000FFFFFFFFFFFFFFFFFFFFFFFFFFFFFFFF2D
:1003E000FFFFFFFFFFFFFFFFFFFFFFFFFFFFFFFF1D
:1003F000FFFFFFFFFFFFFFFFFFFFFFFFFFFFFFFF0D
:10040000FFFFFFFFFFFFFFFFFFFFFFFFFEFFFFFFFD
:1004100010B5054C237833B9044B13B10448AFF33E
:1004200000800123237010BD5490FF1F00000000C6
:10043000C45D000008B5064B1BB106480649AFF382
:1004400000800648036813B1054B03B1984708BD07
:1004500000000000C45D00005890FF1F5490FF1F73
:10046000000000000B4BDB68834211D0094B1A6877
:1004700012F4804F04D0D86040F08040186170477B
:10048000044B05491960D86040F0804018611A603B
:10049000704700BF00C0024001401F00184B1A689F
:1004A00042F480521A60174B174A1A60174ADA60F2
:1004B00002F180421A61164A1A60164B1B7813F03B
:1004C000010F07BF4FF41072134B4FF40072134B20
:1004D0001A60104B1B7813F0020F4FF400720CBF20
:1004E0000F4B104B1A600B4B1B7813F0040F07BF18
:1004F0004FF410720C4B4FF400720C4B1A607047A3
:100500003C80044000C0024001401F000110003840
:1005100000001F808592FF1F18B0044008C00440EF
:100520001CB004400CC0044014B0044004C004409B
:1005300008B5084B1A6842F480521A60064BDB6813
:1005400010B943F0807001E023F08070FFF78AFF5C
:1005500008BD00BF3C80044000C0024030B46A4B7C
:100560001A6842F480521A601A6842F480521A6083
:10057000664BDB6803F08073002B14BF202300233D
:10058000624AD26802F00F02012A0AD9042A02D86C
:1005900043F0010305E0062A94BF43F0020343F051
:1005A00003035A4A126812F4804F08BF43F0400315
:1005B000564A1268002AB8BF43F010031843524B42
:1005C0001B6813F4805F06D143F480534E4A1360D6
:1005D0004F4A4E4BDA6010F0400104D14B4B1A6881
:1005E00042F480421A6000F020024A4B4A4C002A32
:1005F00014BF22461A4610F0080F18BF42F080625E
:1006000010F0040F10D010F0030302D1434B13433A
:1006100023E0012B02D1424B13431EE0022B0CBFFF
:10062000404B414B134318E010F0030304D142F454
:10063000805343F0010310E0012B04D142F48043C6
:1006400043F0040309E0022B07BF42F4C04343F028
:10065000060342F4E04343F007032C4AD46804F055
:1006600000442343D26893420FD0284A126812F400
:10067000804F02D0254AD36007E042F4804545F020
:100680000105224C2560E360226000F01000002884
:10069000264B08BF4FF4F81321B31C4A1360244BB8
:1006A0001B7813F0010F07BF4FF41072214B4FF46A
:1006B0000072214B1A601E4B1B7813F0020F4FF48F
:1006C00000720CBF1D4B1E4B1A60194B1B7813F0A8
:1006D000040F07BF4FF410721A4B4FF400721A4BFD
:1006E0001A600FE043F4804343F00103074A1360AC
:1006F0004FF4A27302F5F83218321360043213601B
:10070000083A136030BC70473C80044000C002408F
:100710000110013800000138000001390101000218
:1007200004040002060600020707000200001F8002
:100730008592FF1F18B0044008C004401CB004405C
:100740000CC0044014B0044004C0044008B50B4B76
:100750001A6842F480521A60094BDB6803F0E062C9
:1007600013F0007F05D020F4704300F4704043EA9A
:1007700010101043FFF776FE08BD00BF3C80044018
:1007800000C0024038B505460C46084604F012FE8B
:1007900002462B685B6828462146984738BD00BF53
:1007A00010B5174C23685B68204616490F229847FE
:1007B000204601F039FD0920012100F057FE0920F3
:1007C000002100F02FFE0A20012100F04FFE0A2038
:1007D000012100F027FE0720012100F047FE07203D
:1007E000002100F01FFEFFF759FE4FF06050FFF7A9
:1007F000ADFF0020FFF7B2FE0120FFF799FE10BD0C
:10080000AC92FF1F4457000010B504460A48036825
:100810005B680A49022298470F2C05D806480368EE
:100820005B680749012298470348214610220023AC
:1008300001F00AFD10BD00BFAC92FF1F545700002D
:100840005857000010B50B4C23685B6820460A49D6
:100850000F229847204601F0E7FC0920002100F014
:10086000E1FD052000F046FE0920012100F0DAFD3F
:1008700010BD00BFAC92FF1F5C57000038B50546A5
:100880000C460A20002100F0CDFD0E4B4FF0004237
:10089000DA6245F080055D631A46D36A002BFCDA04
:1008A000084B9A6B4FF00042DA625C631A46D36AD7
:1008B000002BFCDA034B9B6B0A20012100F0B2FDF8
:1008C00038BD00BF00C0024010B504460A20002118
:1008D00000F0A8FD0E4B4FF00042DA6204F07F04F6
:1008E0005C631A46D36A002BFCDA094B9A6B4FF013
:1008F0000042DA6200225A631A46D36A002BFCDAFD
:10090000034B9C6B0A20012100F08CFDE0B210BD6E
:1009100000C002402DE9F84F2D4C23685B6820464B
:100920002C490C229847204601F07EFC23685B6826
:100930002046294935229847204601F075FC4FF0A2
:10094000100B4FF000092546DFF898A0DFF89880DB
:100950004FEA0914E4B22B685B6828461F4902225B
:100960009847284649461022002301F06DFC2B6869
:100970005B6828461A49032298475F462046FFF7DE
:10098000A3FF06460F2805D82B685B68284651460A
:1009900001229847284631461022002301F054FCDA
:1009A0002B685B6828464146012298470134E4B22F
:1009B000BC42E3D1284601F037FC09F101090BF1F3
:1009C000100B5FFA8BFBB9F1080FC1D1BDE8F88FAE
:1009D000AC92FF1F6C5700007C570000545700007A
:1009E000B457000058570000F05800002DE9F047B8
:1009F0000F469046061E15DD002407254FF0010A1C
:100A0000A1462846514600F00DFD384600F072FD23
:100A10002846494600F006FD404600F06BFD0134D3
:100A2000B442EED1BDE8F08770B582B006461C49ED
:100A300003F0C2FF1B4904F073F804F083F9054684
:100A4000194C23685B68204618490F2298473046A6
:100A500003F096FB02460B4602210091204601F06E
:100A60003BFC23685B6820461149032298472046D7
:100A700029461022002301F0E7FB204601F0D4FBB9
:100A80000620C5F30741FFF7F9FE0720C5F307214C
:100A9000FFF7F4FE0820E9B2FFF7F0FE02B070BDE8
:100AA0000024744900247442AC92FF1FB857000020
:100AB000C857000038B50620FFF706FF0546072097
:100AC000FFF702FF04460820FFF7FEFE04EB0524B3
:100AD00000EB042003F018FF034903F06DFF034906
:100AE00004F01EF838BD00BF00247442002474498D
:100AF00038B5174C23685B6820461649132298477F
:100B0000204601F091FB06205A21FFF7B7FE07208F
:100B1000AA21FFF7B3FE0820A521FFF7AFFE0620AC
:100B2000FFF7D2FE04460720FFF7CEFE0546082059
:100B3000FFF7CAFE5A2C06D1AA2D06D1A52814BF4C
:100B40000020012038BD002038BD002038BD00BF86
:100B5000AC92FF1FCC57000010B5184C23685B689F
:100B6000204617490C229847204601F05DFBFFF70D
:100B700069FE01200821FFF781FE0B200146FFF7E7
:100B80007DFE0C202321FFF779FE1F20FF21FFF7B8
:100B900075FE21200C21FFF771FE05205221FFF781
:100BA0006DFEFFF7A5FF40B923685B682046054945
:100BB00017229847204601F037FB10BDAC92FF1F6B
:100BC000E0570000F057000038B50546104C236888
:100BD0005B6820460F4910229847204629460A2282
:100BE000002301F031FB23685B6820460A4901229B
:100BF0009847204601F018FBA5F112010920C9B25F
:100C0000FFF73CFE01200B21FFF738FE38BD00BF87
:100C1000AC92FF1F085800001C58000010B5094C8A
:100C200023685B68204608490C229847204601F05B
:100C3000FBFA01200821FFF721FE0720002100F028
:100C4000F1FB10BDAC92FF1F2058000010B5094CFD
:100C500023685B682046084912229847204601F025
:100C6000E3FA01200821FFF709FE31200021FFF7F8
:100C700005FE10BDAC92FF1F30580000F8B50646C7
:100C80000D4617460E4C23685B6820460D490B2223
:100C90009847204601F0C8FAFFF7D8FFF8B2FFF7EF
:100CA00093FF05205221FFF7E9FD0820B1B2002291
:100CB00001F016FC284600F01DFCFFF7AFFFF8BD61
:100CC000AC92FF1F445800002DE9F04106460D4646
:100CD00090461F46134C23685B68204612490F223A
:100CE0009847204601F0A0FA08EB07043444E4B228
:100CF00001200821FFF7C2FD01208821FFF7BEFD7A
:100D00001D202146FFF7BAFD2D01E91D1E20C9B2A5
:100D1000FFF7B4FD26209DF81810FFF7AFFDBDE8E2
:100D2000F08100BFAC92FF1F5058000038B5134C43
:100D300023685B6820461249122298471D20FFF75E
:100D4000C3FDFFF761FD23680E4D5B682046294611
:100D5000012298471E20FFF7B7FDFFF755FD2368D6
:100D60005B6820462946012298472620FFF7ACFD04
:100D7000FFF74AFD204601F057FA38BDAC92FF1F3D
:100D800060580000F05800002DE9F0410546344C51
:100D900023685B682046334911229847204629463C
:100DA0000A22002301F050FA23685B6820462E498E
:100DB000022298472D4F204639780A22002301F05D
:100DC00043FA23685B682046294901229847294E47
:100DD000204631780A22002301F036FA23685B6846
:100DE00020462549082298473C783378A3422AD3E5
:100DF000224E1B4FDFF87880315D1DB9084601F0A7
:100E0000A9F91AE0012D0BD138460A22002301F07E
:100E10001BFA3B685B6838464146012298470CE064
:100E2000022D0AD138461022002301F00DFA3B684A
:100E30005B6838464146012298470134E4B20D4BC5
:100E40001B78A342D8D2064C23685B6820460C4925
:100E500008229847204601F0E7F9BDE8F08100BF7D
:100E6000AC92FF1FC0580000945800008D91FF1FE6
:100E7000F05800008F91FF1FAC5800008090FF1FBA
:100E8000D458000008B501208921FFF7F7FC08BD00
:100E900070B55A4C23685B68204659490F22984721
:100EA00023685B6820465749072298472046564BDF
:100EB00019780A22002301F0C7F923685B682046ED
:100EC00052490E2298472046514B19780A22002396
:100ED00001F0BAF923685B6820464E490922984719
:100EE00020464D4B19780A22002301F0ADF9236802
:100EF0005B6820464949092298472046484B1978A3
:100F00000A22002301F0A0F923685B6820464549C6
:100F10000A2298472046444B196801F0D1F923680A
:100F20005B68204641490D2298472046404B19688E
:100F300001F0C6F9204601F077F93E4B1D78C5F166
:100F40008905EDB223685B6820463B490622984735
:100F5000204629460A22002301F076F92368374DFE
:100F60005B682046294603229847204601F05CF939
:100F7000334B1E78C6F18906F6B223685B682046BB
:100F8000304907229847204631460A22002301F0C3
:100F90005BF923685B682046294603229847204670
:100FA00001F042F9284B197811F0800F07D0D1F1E8
:100FB000FF0148BF0331C1F387052D2601E08D08ED
:100FC0002B260E4C23685B68204620490A2298474E
:100FD00023681B68204631469847204629460A2246
:100FE000002301F031F923685B682046184902228A
:100FF0009847204601F018F970BD00BFAC92FF1F62
:10100000C8590000D85900008391FF1FE059000023
:101010008C91FF1FF05900008091FF1FFC590000C8
:101020007C90FF1F085A00007890FF1F145A0000A0
:101030008891FF1F7490FF1F245A00002C5A000053
:101040008591FF1F305A00008491FF1F385A00001D
:10105000445A00002DE9F04107469F4803685B6849
:101060009E490E22984701269D4B1E7000249D4BE1
:101070001C709D4B1C709D4B1C709D4B1C709D4BA0
:101080001C709D4B1C709D4B1C709D4B1C70304602
:101090000921FFF7F3FB0F202146FFF7EFFB0D209F
:1010A0002146FFF7EBFB11209F21FFF7E7FB122002
:1010B000FF21FFF7E3FB30468D21FFF7DFFB1B200D
:1010C000FFF702FC8F4B187047B912263046FFF726
:1010D000FBFB044610F0400FF8D028E07E4C23685C
:1010E0005B6820468849082298472046394601F027
:1010F000E7F823685B682046844905229847204624
:1011000001F092F8C7EB0717C7EB871700254FF0E0
:1011100001081226404600F0EDF93046FFF7D4FBF7
:101120000446013510F0400F01D1AF42F2DCFFF769
:10113000A9FEBD421FD10022694B1A7001226A4BE1
:101140001A70734D2B6813442B60634C23685B68E3
:10115000204670490B2298472046296801F0B0F8D4
:1011600023685B6820466C4913229847204601F0AB
:101170005BF8BDE8F0811320FFF7A6FB5B4B18700E
:101180001A20FFF7A1FB654B18701920FFF79CFB95
:10119000634B1870634B1A6801321A6007200121F3
:1011A00000F040F914F0200F19D000254C4B1D70B1
:1011B00001224C4B1A70484C23685B6820465A4900
:1011C00009229847204601F02FF8584B1A6801323F
:1011D0001A600720294600F025F9BDE8F0810D20AE
:1011E0000021FFF74BFB0A20002100F01BF9504BB8
:1011F0004FF00042DA6200225A631A46D36A002B8B
:10120000FCDA4B4B9A6B4FF00042DA6200225A63D1
:101210001A46D36A002BFCDA454B996B344A11709D
:101220004FF00042DA6200225A631A46D36A002B5A
:10123000FCDA3F4B996B2F4A11704FF00042DA6293
:1012400000225A631A46D36A002BFCDA384B9A6B99
:10125000294B1A70294E00273770294D234B1B78D4
:10126000043B2B701C4C23685B68204631490722E5
:101270009847204631780A223B4600F0E5FF236874
:101280005B6820462C4901229847204629780A228B
:101290003B4600F0D9FF204600F0C6FF31782878A1
:1012A00081420FD8224A4FF000463D46234CD66279
:1012B0005563D36A002BFCDA936B63540131C9B2D6
:1012C0008142F4D90A20012100F0ACF80720002166
:1012D00000F0A8F8BDE8F081AC92FF1F485A00006A
:1012E0008191FF1F8E91FF1F8291FF1F7C90FF1F36
:1012F0008391FF1F8C91FF1F8091FF1F8D91FF1F16
:101300008F91FF1F8591FF1F585A0000645A0000FB
:101310007090FF1F6C5A0000785A00007490FF1FF5
:101320008491FF1F7890FF1F8C5A00008891FF1F47
:1013300000C00240985A0000F05800008090FF1F43
:1013400008B5FFF72DFA08BD70B582B0274C2046CE
:101350002749FFF717FA204600F066FF04203221E4
:10136000C822FFF743FBFFF76DFAFFF7F5FB2148B3
:10137000FFF75AFB20462049FFF704FAFFF79AFBD4
:1013800002F0FEFE02460B4602250095204600F0C4
:10139000A3FF204600F048FFFFF7BCFA4FF47A7035
:1013A00001460522FFF76AFC002300935020082124
:1013B0002A46FFF789FCFFF7B9FC204600F034FF0E
:1013C0000E4E0F4D0320FFF745FE3378012B04D15D
:1013D000FFF75EFD0020FFF7D7FC2B78012B01D132
:1013E000FFF756FD204600F01FFFEBE7AC92FF1F12
:1013F000A05A00003333D943E05A00008191FF1F07
:101400008E91FF1F044B00221A6004490A60044AAF
:10141000106010221A60704714D0034004D00340BB
:1014200000D0034021281ED80F4B53F8303093F8DA
:10143000802212F0FF0F08D019B1012283F880201A
:101440007047012283F800217047074B03EBC0006F
:10145000436821B11A6842F003021A6070471A68A3
:1014600022F002021A607047F85A000021281CD8A6
:101470000E4B03EBC0035B68012908D10B4A52F8FD
:10148000302082F880124FF4A2721A607047074A27
:1014900052F83020002082F8800219B94FF480728F
:1014A0001A60704740F203121A607047F85A000041
:1014B00072B60C4B1B680C4A12680C49096862B67C
:1014C00011F0806F02D0322B88BF0132C3F5BB33DD
:1014D000FF330749A1FB03039B094FF47A7000FB1C
:1014E0000230704718E000E09091FF1F04ED00E02B
:1014F000ABAAAAAA38B50546FFF7DAFF044665B1DC
:10150000FFF7D6FF001BB0F57A7F03D3013D04D06F
:1015100004F57A7401F0AAF8F2E738BD10B5254B4E
:101520004FF400021A604FF080721A604FF00072A0
:101530001A604FF080621A604FF000621A6000205B
:101540001D4B18604BF6FF710433196028231B4AAA
:1015500013600832136008321360083213600832D7
:1015600013600832136008321360083213600922D6
:10157000134C226004F5805404342060043421604C
:101580000434236008342360143C226004F5FE24F4
:10159000043420600B4801600B490B6008310B607C
:1015A0000A4B1A6001F084F8FA20FFF7A3FF00F05D
:1015B0006BFC10BD08E100E0048003400C80034098
:1015C0000080034008800B400C800B4000800B40E3
:1015D00030B40E4B1B7843F002020D4C04EBC204F6
:1015E00060600C48007800280CBF8824C82444EAB6
:1015F0000141074D45F8321080F00100054A107096
:1016000083F00103014A137030BC7047FC91FF1F47
:101610000080FF1F7592FF1F10B4431E032B11D8CB
:1016200072B60A4A52F8230050B14268074941F89D
:101630002320074A32F813400188611A22F8131058
:1016400062B600E000205DF8044B7047EC91FF1F8C
:10165000B894FF1F013803280DD872B6074B53F812
:1016600020302BB1002001305B68002BFBD100E063
:10167000002062B670470020704700BF4092FF1FF5
:1016800038B572B601231B491B4C5A1812F8012CAD
:1016900012F0080F24D09A0054F832506DB9164B4E
:1016A00003EBC20108304860144943F83210144B70
:1016B0001A78013A1A7062B638BD42F0010254F845
:1016C00032506DB90C4B03EBC201083048600D4934
:1016D00043F832100A4B1A78013A1A7062B638BDD4
:1016E0000133052BD1D162B60022054B1A7000F0F0
:1016F0002FFC38BD305C00000080FF1F88004000D8
:101700006A92FF1FC800400010B4431E032B37D855
:10171000400140F010001C4A104472B61B4AD25CD3
:10172000032A09D8DFE802F019021B05083002225B
:1017300016E00830042213E0154A52F823201AB9A3
:10174000134A42F8231003E0124A52F82320516052
:10175000104A42F8231062B612E0032200E005228C
:101760000A4CE25401F10803436000F00803002B27
:101770000CBF8823C8230A8843EA0243036062B689
:101780005DF8044B704700BF0080FF1FA891FF1F4A
:101790004092FF1F5092FF1F2DE9F84FA34CDFF836
:1017A000E092DFF8E0A2DFF8E0B22578EDB215F0C4
:1017B000040F1DD09E4B1B7813F0FF0F16D09D4BCE
:1017C0001B7803F0FF022BB1531EDBB2994A137052
:1017D00003B900BE984B1B7803F0FF0233B1531ED0
:1017E000DBB2954A13700BB900F0F2FC04232370AE
:1017F00015F0080F00F0DC8299F80030DBB21D090B
:1018000040F01D828D4D9E0805EBC6035A6855F8C1
:101810003630C3F38303013B0C2B00F20C82DFE86C
:1018200013F0C701C7010A020A020A020A020A02E9
:101830000A02E4010A020A020A020D008049136842
:101840000B6052684A607F4A45F8362000227E4984
:101850000A607A490A618A6101217C4A11709BB24F
:1018600040F28162934218D8B3F5D06F2ED2B3F50F
:10187000817F00F01E8106D8802B00F0C980822B6A
:1018800000F0CC8062E140F20232934200F0268107
:10189000B3F5A06F00F05E8158E142F2210293425D
:1018A00000F0828107D8B3F5086F00F0AB80B3F584
:1018B000106F11D04AE142F22122934200F041819F
:1018C00042F22132934200F045813FE1604B5D6876
:1018D000002D40F0188130E1594B9A78544B1A7022
:1018E000564D05F180062B6A13F0800F03D0686A0D
:1018F000083800F02DFB0835B542F4D1DFF88C81B3
:1019000000263746534AB05828B1456800F020FBFE
:101910000DB12846F9E700234E4973504E4AB350A3
:101920004E4BF05828B1456800F012FB0DB1284627
:10193000F9E7002349497350494AB35028F8023F58
:10194000484BFB5C023B032B0AD8DFE803F002069E
:1019500002060022434BDA5502E00122414BDA55E0
:1019600001370436102ECDD100223F4B1A700125CD
:101970003E4EDFF81C81314F05EB080313F8013CA4
:1019800006F8043B13F0080F2DD000F0C1FA48B15F
:10199000A90007EB451200F108035360344A47F8E9
:1019A000312007E0AB00002247F833202E4B1A7895
:1019B00001321A7000F0ACFA58B1AB0043F00103E9
:1019C00007EBC30100F108024A601E4A47F83320C2
:1019D00009E0AB0043F00103002247F83320224B1B
:1019E0001A7801321A70AA0042F00201002347F867
:1019F000313042F0030247F8323001351D4B9E4230
:101A0000BAD116E20A4B1B781B4D2B700127A6E0BA
:101A1000194D00232B706B700227A0E0084B9B88A8
:101A2000042B37D90F22154B1A70BDE080200740D8
:101A30007492FF1FFD91FF1F7692FF1F0080FF1F12
:101A40006092FF1FC80040009491FF1F7592FF1F16
:101A5000345C0000EC91FF1F9891FF1F4092FF1F24
:101A60005092FF1FA891FF1F6A92FF1FC4200740DA
:101A700088004000D42007406C92FF1FC020074020
:101A8000902007409420074098200740B694FF1FFD
:101A9000305C00009E4A0021117051709D4A12F87E
:101AA000233013F0020F58D0994D01232B700227D9
:101AB00055E0994B9B8803F07F03042B02DC964A88
:101AC00052881AB10F22934B1A706DE0914A12F8A6
:101AD000231021F0020102F82310AAE18E4B9B880B
:101AE00003F07F03042B02DC8B4A52881AB10F22C9
:101AF000884B1A7058E0874A12F8231041F002010F
:101B000002F8231095E1844B5E889F88834BA3F1F4
:101B10000C02114633F80C0CB04209D133F80A0C10
:101B2000B84205D1360A032E0CBF2F78178916E06C
:101B30000D690C330C32002DEBD10F22754B1A704E
:101B400032E0754B9A78764B1A7072E10F22714B26
:101B50001A7029E000273D4601E002276C4D6E4BCC
:101B6000DB889F4228BF1F46402F34BF3E46402699
:101B700028463146FFF72CFD3544BF1B03D13F2ECD
:101B800000F25C8110E0402F34BF3E4640262846DC
:101B90003146FFF71DFD3544BF1B01D13F2E03D950
:101BA000604B1D60604B1F8001238AF8003042E0CB
:101BB000594B198842F22103994212D15B4BD81D2F
:101BC00012F8011B03F8011F8342F9D1584B1B681F
:101BD000862B02D10F22574B1A7000200146FFF7C7
:101BE000F7FC554B45F8363025E04E4B1E68BEB12C
:101BF0004D4FB7F80080B8F1400F34BF454640253F
:101C000030462946FFF7E4FCC5EB08039BB23B8056
:101C10000BB9402D01D1354400E00025414B1D603A
:101C20003D4B1B88B3F5A06F05D13B4B00225A708A
:101C30009B788BF8003001238AF80030B5E03F4EE6
:101C40009F0806EBC708D8F80420A2F10800013D60
:101C5000EDB213F0080F47D000F07AF9384B53F883
:101C600025304BB35A68364941F8252003F1080264
:101C7000C8F80420334A525D032A12D8DFE802F084
:101C800002060A0E03212F4A51550AE002212D4A6D
:101C9000515506E005212B4A515502E00421294AFD
:101CA000515518F0080F0CBF8822C8221B8842EA41
:101CB000034346F8373078E0224B5B5D032B0BD8AB
:101CC000DFE803F07373020600221E4B5A556CE0E6
:101CD00001221C4B5A5568E018F0080F0CBF022275
:101CE0000322184B5A5560E056F837301B0C22F887
:101CF000083C002B51D0002322F8063C42F8043C5B
:101D0000114B53F825300BBB0F4B43F8250021E056
:101D10006C92FF1FC02007406092FF1F405C0000D4
:101D20008492FF1F9491FF1F6892FF1FBF94FF1FB3
:101D3000C094FF1FFD91FF1FC80040000080FF1FDF
:101D40004092FF1FA891FF1FEC91FF1F3F4B53F8DC
:101D5000253058603D4B43F825003D4B33F81510B6
:101D600032F8082C0A4423F8152000F0D1F860B1AD
:101D700000F10803C8F8043018F0080F354B364A54
:101D800008BF134646F837300FE0002346F83730D7
:101D9000324B1A7801321A7007E018F0080F2D4BF9
:101DA0002D4A08BF134646F8373008232370FCE459
:101DB00015F0010F22D02A4902230B700022294B73
:101DC0001A70294B24481860284C5C609860284899
:101DD000D8601A619A610D20264B1870FF2326489F
:101DE00003700838037018300270244A13709F2261
:101DF000234B1A7001230B70BDE8F88F15F0800F8C
:101E000005D00D221B4B1A708022403B1A7015F032
:101E1000020F06D0184B1A78D2B21A700222083B71
:101E20001A7015F0100F0ED01022164B1A70BDE864
:101E3000F88F00200146FFF7CBFBB5E628460021CE
:101E4000FFF7C6FBB0E6BDE8F88F00BF9891FF1F13
:101E5000B894FF1FC8004000880040006A92FF1F2E
:101E600094200740FC91FF1F0080FF1FAC91FF1FD3
:101E70000092FF1FC0200740882007408C200740A9
:101E8000842007408020074008B501F011FD0023A1
:101E90001B491A465A50C81842600833882BF9D19A
:101EA000184B1A6842F480221A60154BC3F30721BD
:101EB000154A1170C3F30741143211701B0E04321E
:101EC0001370FF23343A137008321370783A13708A
:101ED00001238432137000216C3211707C3A13702C
:101EE00070220A4B1A704FF40072A3F241331A6049
:101EF000102203F1C04303F5C8231A7008BD00BFC8
:101F00000080FF1F348004409C20074049E400E02B
:101F100072B60D4B1A68B2FA82F30B2B02D962B675
:101F2000002070474FF00041D94022EA01020649E3
:101F30000A6062B6054903EBC303DB00C818002240
:101F4000CA504260704700BF6487FF1F0084FF1FB4
:101F500008B50F4BC31A0F4AA2FB03131B090B2B27
:101F600014D80D4A12783AB10C4A127812F0FF0FC9
:101F700002D0FFF785FB08BD72B6094A4FF0004159
:101F800021FA03F311681943116062B608BD00BF5E
:101F90000084FF1F398EE3386A92FF1F7492FF1F7F
:101FA0006487FF1F10B5134B1B6853B9124B1B7886
:101FB00013F0FF0F18D00320FFF72EFB0D4B186016
:101FC000A8B10C4B186843885A1C03441C7A038838
:101FD0009A4206D3FFF7BCFF0022064B1A60204648
:101FE00010BD4280204610BD4FF0FF3010BD4FF0B5
:101FF000FF3010BD8092FF1F7492FF1F08B50D4B7C
:102000001B6883B90C4B1B7813F0FF0F08D003201B
:10201000FFF702FB074B186028B94FF0FF3008BDEF
:102020004FF0FF3008BD034B1B685A881344187AE1
:1020300008BD00BF8092FF1F7492FF1F044B988859
:10204000044B1B681BB11A885B88D31A184470476D
:10205000B894FF1F8092FF1F2DE9F047044601222C
:10206000374B1A700E46002964D0DFF8E080DFF8A5
:10207000E0909A46334FD8F8003083BB99F800308F
:1020800013F0FF0F06D100222D4B1A704FF0FF30D6
:10209000BDE8F0874AF2F9250420FFF7DBFA0728AC
:1020A0000AD801238AF80030FFF732FFC8F8000091
:1020B000A8B900238AF80030013D01D03B7833B144
:1020C0000122204B1A704FF0FF30BDE8F08700F07E
:1020D000CDFA99F8003013F0FF0FDDD1D3E70023DC
:1020E0003B70D8F800104A88C2F14005AE4238BFB4
:1020F000354602F108030B442A444A80761B3DB161
:10210000254414F8012B03F8012BAC42F9D100E06F
:1021100025464B883F2B07D940230B800420FFF72F
:10212000F3FA0023C8F800300522074B1A700EB1ED
:102130002C46A0E70020024B1870BDE8F08700BFD6
:102140007792FF1F7C92FF1F7692FF1F7892FF1FEE
:102150007492FF1F00B583B002AB03F8010D18465F
:102160000121FFF779FF03B05DF804FB10B5144BB4
:102170001B7813F0FF0F21D00122124B1A70124B63
:10218000196851B10024114B1C704B880B8004203E
:10219000FFF7BAFA0C4B1C600DE0FFF7B9FE0146E1
:1021A00030B10022094B1A700420FFF7ADFA02E0AB
:1021B0000122064B1A700022024B1A7010BD00BF9C
:1021C0007492FF1F7792FF1F7892FF1F7692FF1F76
:1021D00008B50E4B1B7813F0FF0F16D10C4B196886
:1021E00041B14B880B800420FFF78EFA0022084B88
:1021F0001A6008BDFFF78CFE014618B10420FFF7F6
:1022000083FA08BD0122034B1A7008BD7792FF1FA5
:102210007892FF1F7692FF1F08B5FFF791F8FFF73E
:1022200093F800F023FAFAE700B583B0054B1B885A
:10223000ADF8043003685B6801A90222984703B037
:102240005DF804FB085C0000F0B58BB0164622B9BF
:1022500003681B68C9B298472FE0012A08BF0A2605
:1022600021B930228DF82520212417E0212437467A
:10227000B1FBF6F506FB1515EDB22246092D94BF0C
:1022800030353735EDB20DF1280E724402F8245C7A
:10229000B1FBF7F111B1013CE4B2E9E733B1013C24
:1022A000E4B20AAB23442D2203F8242C03685B68B4
:1022B00001A92144C4F1220298470BB0F0BD00BF30
:1022C00008B50029BABF49422D2300230A22FFF78F
:1022D000BBFF08BDFFFFFFFF2DE9F04F87B0814630
:1022E00016461F469DF840801046194600220023DE
:1022F00002F00CFA28B107F100431F464FF0010A23
:1023000001E04FF0000AB8F1000F6ED04FF0000B63
:102310000022414B3EA5D5E900451046194622460C
:102320002B4601F081FF02460B460BF1010B5FFAD1
:102330008BF18845F1D82AE03E4620462946524690
:102340005B4601F071FF04460D4602F007FAC0B289
:10235000771CFFB206AB1E4400F1300306F8103CB8
:1023600001F0FCFE02460B462046294601F0A8FD7E
:1023700004460D464745DFD101E04FF00108D9F88A
:1023800000305B68484602A9424698473CE0304628
:10239000394601F097FD04460D4602F0DFF9064686
:1023A00001F0CCFE02460B462046294601F088FD8E
:1023B00004460D46484631460A225346FFF744FF7D
:1023C00001902E238DF80830B8F10F0F34BF43462B
:1023D0000F23002BD1D003F101085FFA88F8012602
:1023E0004FF0000ADFF834B0A7E730463946002244
:1023F000094B01F067FD02F0B1F9014648460A2297
:102400005346FFF721FF0190019807B0BDE8F08F18
:10241000000000A09999B93F0000E03F000024406F
:1024200010B5044601F03EFD204610BD10B5234B0B
:102430001B6883B1224A1268012182F88010013B97
:1024400013F1050F02D01D4A136010BD6FF0020298
:102450001A4B1A6010BD1A4B1B6801221A70194BD7
:102460001B681BB3184B1C682046002102F04CFC73
:10247000A8B92046154902F05BFC80B920461449F2
:1024800002F09AFA4FF07C5102F08EF902F080FCD3
:102490000246272803D90F480F4901F0EBFC094BEE
:1024A0001A6806490A6000221A6010BD094801F046
:1024B000F9FCFF22094B1A7010BD00BFA492FF1F48
:1024C0009C92FF1FA092FF1FA892FF1FABAAAA4CCD
:1024D000000040428892FF1F2D2400006887FF1FE4
:1024E00070B5044621286AD842B102FB01F6344B8C
:1024F000A3FB0626B6097600013601E06FF002065E
:10250000084602F001FA01462E4802F009FB054692
:102510002D4B03EBC403596872B62C4B1B789C42BD
:1025200016D12B4B196802F0DBFB38B1294B1A6826
:1025300002F00102013A16441E603FE0244B1D6088
:10254000254B1E60234B1A6802F001021A6035E029
:10255000212B03D8214B1B6801221A701B4B1C70C6
:10256000194B53F8343003F580701C4A1060012277
:1025700083F8002183F880224FF4A2730B60154B7F
:102580001E60134B1D602846002102F0BDFBA8B958
:102590002846134902F0CCFB80B92846114902F0C5
:1025A0000BFA4FF07C5102F0FFF802F0F1FB02460B
:1025B000272803D90C480D4901F05CFC62B670BDB8
:1025C000D34D62100024F448F85A00006887FF1FBA
:1025D000A892FF1FA492FF1FA092FF1F9C92FF1FB3
:1025E000ABAAAA4C000040428892FF1F2D24000095
:1025F00008B5054800230370802343730349044A48
:1026000002F0E6FB08BD00BF8892FF1F21240000F6
:102610006087FF1F08B5FFF711FD08BD08B5FFF77C
:10262000C1FC08BD08B5FFF7E9FC08BD08B5FFF718
:102630009DFD08BD08B50846FFF78CFD08BD00BF2D
:1026400008B508461146FFF707FD08BD704700BFF3
:10265000044B00221A714FF47A7199601A73024A7E
:102660001A607047AC92FF1F185C000008B50F4B52
:102670001B78CBB901220D4B1A70FFF7DFFC08B1B4
:10268000FFF7E4FF00F008FB08B101F0DBF900F010
:10269000F9FD08B101F06CFA01F05AF808B101F047
:1026A000FDFA0022014B1A7008BD00BFBC92FF1F4B
:1026B00060223A4B1A70E12201331A70384B1B78B2
:1026C000082B10D1012203F1804303F56C331A600B
:1026D000132334490B6001F5FF2101F2FC710A60FC
:1026E000314A13601FE00A2B0DD139222F4B1A609B
:1026F00013232C490B6001F5FF2101F2FC710A60E4
:10270000294A13600FE00C2B0CBF35223D22274BCA
:102710001A60122323490B6001F5FF2101F2FC71BD
:102720000A60214A1360224B1B7833B10123214AEE
:10273000136002F50022136005E000231D4A1360B8
:1027400002F5002213601C4B1B78012B06D8802356
:102750001A4A136002F5002213601AE0042B06D80F
:102760008423164A136002F50022136011E0082B3F
:1027700006D88523114A136002F50022136008E091
:10278000102B94BF862387230C4A136002F5002286
:10279000136001220A4B1A70704700BF00400740C7
:1027A0006987FF1F0CB003400CB00B4008B003401A
:1027B000BE92FF1F20B003406A87FF1F24B0034072
:1027C000BD92FF1F024B1A6801321A60704700BFAA
:1027D0009091FF1F08B50D4C236813F4802F01D092
:1027E000FEF7DAFF236813F4806F01D000F0DEFA01
:1027F000236813F4006F01D000F0A8FD236813F4E0
:10280000805FE9D000F0F4FFE6E700BF34800440C9
:1028100008B5FFF7DFFF00BF1022014B1A80704799
:1028200000200540704700BF024A1368184410603A
:10283000184670476C87FF1FEFF31383ABB9EFF3B4
:102840001083ABB9EFF3058323B10F2B05D9094AE8
:10285000985C03E04FF4807000E00020EFF31183F8
:102860003BB1834238BF184670474FF0FF30704786
:1028700000207047F0E300E030B40023B0FBF2F436
:1028800002FB14041D46092C94BF30343734E4B2E3
:10289000CC54B0FBF2F008B10133EFE70D44002255
:1028A0006A70934207DD885CCC5C8C54C85401325A
:1028B000013B9A42F7DB084630BC7047194B1A6857
:1028C00042F480621A600023174A1370174A13708B
:1028D000174A1370174A1370174A137040F21332D5
:1028E000164B1A604FF4517204331A60C0F344322D
:1028F000134B1A70C0F347125A7000F01F00987201
:1029000004229A700221D9745A7588221A743C22C2
:10291000DA7040220B4B1A704FF40052A3F22933A5
:102920001A607047348004404893FF1FC592FF1F10
:102930005093FF1F4993FF1FC492FF1F40A0044004
:1029400000A006402DE400E0164B9B7803F0EC035A
:1029500000F00302134310F0040F18BF43F01003FC
:10296000104A937000F00F03042B04D113469279A0
:1029700042F040029A710B4B5A7902F0EF0210F0CC
:10298000100F18BF42F01002064B5A719B7903F0EA
:10299000EF0310F0200F18BF43F01003014A9371AA
:1029A000704700BF00A0064010B5144B1B6813F41D
:1029B000806F21D0124B1B7813F0FF0F06D0104C04
:1029C000FFF754FE237813F0FF0FF9D14FF40052B4
:1029D0000C4B1A6000230C4AD37040F203120B49CF
:1029E0000A6004310A600A4A13700A4A13700A4BDB
:1029F0001B680BB101221A7010BD00BF3480044067
:102A0000C492FF1F84E100E000A0064040A0044003
:102A10004893FF1FC592FF1FC092FF1F10B50446C9
:102A2000094A137813F0FF0FFBD120460121FEF76E
:102A30001DFD20460021FEF7F5FC044B53F8342021
:102A4000034B1A6010BD00BFC492FF1FF85A00006C
:102A50004C93FF1F10B50D4B1B6813F4806F12D001
:102A600021280CD80A4C0B4B53F83030236001213D
:102A7000FEF7FCFC236800221A70012010BD002024
:102A8000034B186010BD002010BD00BF348004400F
:102A9000C092FF1FF85A0000114B1B6813F4806F9F
:102AA0001BD0122804D140F202320E4B1A600DE006
:102AB000142804D140F202320B4B1A6006E00B4B93
:102AC0005A7B02F0FE025A7300207047074B5A7B74
:102AD00042F001025A73012070470020704700BF86
:102AE000348004400CA0044014C0044000A0064000
:102AF0002DE9F04107461F4B1B6813F4806F37D058
:102B00001D4B1B680BB101221A701C4B1C78013441
:102B1000402C28BF00241A4D1A4EDFF86C8017E0B5
:102B2000FFF78AFE40280FDC337913F0800F0FD0B7
:102B30002B780133402B28BF002318F80320D2B292
:102B4000F271DBB22B7003E0FF2801DDFFF78EFD91
:102B50002B78DBB29C42E3D0FFB20B4B1F55012216
:102B60000A4B1A70E4B2054B1C70BC22054BDA709C
:102B7000BDE8F081348004404C93FF1F5093FF1F49
:102B80004993FF1F00A00640C892FF1FC492FF1F79
:102B90002DE9F84F0746284B1B6813F4806F49D086
:102BA000264B1B680BB101221A7007EB010B5F4526
:102BB0003DD2DFF89890224EDFF88C80DFF890A0AD
:102BC00099F800400134402C28BF00243578EDB23C
:102BD000A54220D1BC2388F80330FFF72DFE402802
:102BE00011DC98F8043013F0800F10D033780133E3
:102BF000402B28BF00231AF80320D2B288F8072000
:102C0000DBB2337003E0FF2801DDFFF72FFD3378DF
:102C1000DBB29D42E1D017F8013B0AF804300122F3
:102C2000084B1A70E4B289F800405F45C8D1BC2255
:102C3000054BDA70BDE8F88F348004404C93FF1FD9
:102C40004993FF1FC492FF1F00A006405093FF1F2F
:102C5000C892FF1F10B5064B1B7813F0FF0F06D06C
:102C6000034CFFF703FD237813F0FF0FF9D110BDDC
:102C7000C492FF1F064B1B78DBB2064A1278D2B211
:102C800093422CBF3F3202F1FF32D01A704700BF8F
:102C90005093FF1F4993FF1F054B1878C0B2054B97
:102CA0001B78DBB2984238BF4030C01A704700BF73
:102CB0004893FF1FC592FF1F10B4184B1A78D2B269
:102CC000174B1B78DBB29A4218D001333F2B18D830
:102CD0001449C85CC0B2DCB211490C7012490968D1
:102CE000C9B19A4203D300E00023D31A01E0403275
:102CF000D31A1A2B0FDC00230B700CE04FF0FF30BF
:102D000009E0084B1878C0B20021054B1970064B3A
:102D100019680029E8D15DF8044B70474893FF1FFC
:102D2000C592FF1F0893FF1FC092FF1F094B1A781F
:102D3000D2B2094B1B78DBB29A4207D00133402B49
:102D400028BF0023054AD05CC0B270474FF0FF3067
:102D5000704700BF4893FF1FC592FF1F0893FF1FD6
:102D60000D4B1B6813F4806F14D00C4BDA7802F013
:102D7000CB02DA7040225A74DA7842F03402DA7008
:102D8000074B1A78D2B2074B1A70074B1B680BB16E
:102D900000221A70704700BF3480044000A0064033
:102DA000C592FF1F4893FF1FC092FF1F70B43D4B99
:102DB0001B7913F0300F33D072B63A4B9B7D03F082
:102DC000FF022BB9374BDA7940225A7462B627E0FA
:102DD00062B6354B1978C9B2344B1C78E4B2314D28
:102DE000334EEB79D8B24B1C402B28BF0023A342B3
:102DF0001CBFF0541946531E13F0FF02F1D1CAB2A2
:102E0000294B1A702B4B1B6853B1A1422EBFC4EB48
:102E10000101C4F1400409192729C4BF01221A7015
:102E2000204BDA78D2B212F0800F27D01B7913F042
:102E3000800F23D0204B1C78E4B2204B1B78DBB2F0
:102E40009C4210D017491E4D01E0A3420BD0013324
:102E5000402B28BF00230879E85CC0B2C871087D08
:102E6000C0B20728F1D9DBB214490B700D4B1B79A6
:102E700013F0800F02D07C210A4BD97012F0400F62
:102E80000ED0084B1B7913F0400F09D000220D4BD8
:102E90001A700D4B1B6803B11A703C22014BDA709B
:102EA00070BC704700A006404893FF1FC592FF1FEB
:102EB0000893FF1FC092FF1F5093FF1F4993FF1FEE
:102EC000C892FF1FC492FF1F4C93FF1F194B1A6833
:102ED00042F400621A600023174A1370174A1370F5
:102EE000174A1370174A1370174A137040F21332BF
:102EF000164B1A604FF4517204331A60C0F3443217
:102F0000134B1A70C0F347125A7000F01F009872EA
:102F100004229A700221D9745A7588221A743C22AC
:102F2000DA7040220B4B1A704FF40042A3F22B339D
:102F30001A60704734800440BC93FF1F5293FF1FF8
:102F4000C493FF1FBD93FF1F5193FF1F0CB004409C
:102F500000B006402FE400E0164B9B7803F0EC0332
:102F600000F00302134310F0040F18BF43F01003E6
:102F7000104A937000F00F03042B04D1134692798A
:102F800042F040029A710B4B5A7902F0EF0210F0B6
:102F9000100F18BF42F01002064B5A719B7903F0D4
:102FA000EF0310F0200F18BF43F01003014A937194
:102FB000704700BF00B0064010B5114B1B6813F4FA
:102FC000006F1CD00F4B1B7813F0FF0F06D00D4C79
:102FD000FFF74CFB237813F0FF0FF9D14FF40042B9
:102FE000094B1A600023094AD37040F203120849C2
:102FF0000A6004310A60074A1370074A137010BD53
:10300000348004405193FF1F84E100E000B006408B
:103010000CB00440BC93FF1F5293FF1F10B5044631
:10302000094A137813F0FF0FFBD120460121FEF768
:103030001DFA20460021FEF7F5F9044B53F8342021
:10304000034B1A6010BD00BF5193FF1FF85A0000D8
:10305000C093FF1F0D4B1B6813F4006F13D016288D
:103060000AD14FF440720A4B1A600A4B5A7B42F065
:1030700008025A7301207047064B5A7B02F0F70290
:103080005A73002070470020704700BF348004400E
:1030900004B0044000B006400D4B1B6813F4006FF1
:1030A00013D017280AD14FF440720A4B1A600A4B0A
:1030B0005A7B42F001025A7301207047064B5A7B3B
:1030C00002F0FE025A73002070470020704700BFD4
:1030D0003480044008B0044000B006402DE9F041BF
:1030E00007461F4B1B6813F4006F37D01D4B1B683E
:1030F0000BB101221A701C4B1C780134282C28BFFC
:1031000000241A4D1A4EDFF86C8017E0FFF794FB8D
:1031100040280FDC337913F0800F0FD02B78013368
:10312000282B28BF002318F80320D2B2F271DBB29B
:103130002B7003E0FF2801DDFFF798FA2B78DBB254
:103140009C42E3D0FFB20B4B1F5501220A4B1A7071
:10315000E4B2054B1C70BC22054BDA70BDE8F0816F
:1031600034800440C093FF1FC493FF1FBD93FF1F13
:1031700000B006405493FF1F5193FF1F2DE9F84FF5
:103180000746284B1B6813F4006F49D0264B1B6879
:103190000BB101221A7007EB010B5F453DD2DFF83E
:1031A0009890224EDFF88C80DFF890A099F80040CC
:1031B0000134282C28BF00243578EDB2A54220D157
:1031C000BC2388F80330FFF737FB402811DC98F860
:1031D000043013F0800F10D033780133282B28BF30
:1031E00000231AF80320D2B288F80720DBB233702C
:1031F00003E0FF2801DDFFF739FA3378DBB29D42A7
:10320000E1D017F8013B0AF804300122084B1A708C
:10321000E4B289F800405F45C8D1BC22054BDA70A2
:10322000BDE8F88F34800440C093FF1FBD93FF1F9B
:103230005193FF1F00B00640C493FF1F5493FF1F1C
:1032400010B5064B1B7813F0FF0F06D0034CFFF7A9
:103250000DFA237813F0FF0FF9D110BD5193FF1F22
:10326000064B1B78DBB2064A1278D2B293422CBFCF
:10327000273202F1FF32D01A704700BFC493FF1FFC
:10328000BD93FF1F054B1878C0B2054B1B78DBB20E
:10329000984238BF4030C01A704700BFBC93FF1F30
:1032A0005293FF1F0A4B1A78D2B20A4B1B78DBB23B
:1032B0009A4209D00133402B28BF0023064AD05C34
:1032C000DBB2044A137070474FF0FF30704700BF05
:1032D000BC93FF1F5293FF1F7C93FF1F094B1A786B
:1032E000D2B2094B1B78DBB29A4207D00133402B94
:1032F00028BF0023054AD05CC0B270474FF0FF30B2
:10330000704700BFBC93FF1F5293FF1F7C93FF1FAA
:103310000A4B1B6813F4006F0FD0094BDA7802F0E8
:10332000CB02DA7040225A74DA7842F03402DA7052
:10333000044B1A78D2B2044B1A70704734800440A0
:1033400000B006405293FF1FBC93FF1F70B4364B72
:103350001B7913F0300F25D072B6334B9B7D03F0F1
:10336000FF022BB9304BDA7940225A7462B619E069
:1033700062B62E4B1978C9B22D4B1D78EDB22A4C8E
:103380002C4EE379D8B24B1C402B28BF0023AB4214
:103390001CBFF0541946531E13F0FF02F1D1C9B2FD
:1033A000224B1970204BDA78D2B212F0800F27D05E
:1033B0001B7913F0800F23D01F4B1C78E4B21F4BF6
:1033C0001B78DBB29C4210D017491D4D01E0A3428F
:1033D0000BD00133282B28BF00230879E85CC0B24A
:1033E000C871087DC0B20728F1D9DBB213490B7050
:1033F0000D4B1B7913F0800F02D07C210A4BD97042
:1034000012F0400F0ED0084B1B7913F0400F09D07B
:1034100000220C4B1A700C4B1B6803B11A703C2233
:10342000014BDA7070BC704700B00640BC93FF1FC0
:103430005293FF1F7C93FF1FC493FF1FBD93FF1F79
:103440005493FF1F5193FF1FC093FF1F174B1A6820
:1034500042F480521A600023154A1370154A137003
:10346000154A1370154A1370154A137040F2133140
:10347000144A11604FF4517104321160C0F34431A9
:10348000114A1170C0F34711517000F01F00907283
:10349000937013742C23D37040220C4B1A704FF48A
:1034A0000032A3F22D331A60704700BF348004400D
:1034B0003094FF1FC693FF1F3894FF1F3194FF1FE6
:1034C000C593FF1F08C0044000C0064031E400E07F
:1034D000164B9B7803F0EC0300F00302134310F04B
:1034E000040F18BF43F01003104A937000F00F034D
:1034F000042B04D11346927942F040029A710B4B8F
:103500005A7902F0EF0210F0100F18BF42F01002CB
:10351000064B5A719B7903F0EF0310F0200F18BF90
:1035200043F01003014A9371704700BF00C006408A
:1035300010B5114B1B6813F4805F1CD00F4B1B7828
:1035400013F0FF0F06D00D4CFFF790F8237813F01F
:10355000FF0FF9D14FF40032094B1A600023094ADA
:10356000D37040F2031208490A6004310A60074A26
:103570001370074A137010BD34800440C593FF1FB9
:1035800084E100E000C0064008C004403094FF1F02
:10359000C693FF1F10B50446094A137813F0FF0FB6
:1035A000FBD120460121FDF761FF20460021FDF7F8
:1035B00039FF044B53F83420034B1A6010BD00BF91
:1035C000C593FF1FF85A00003494FF1F0D4B1B6872
:1035D00013F4805F14D002280BD14FF440720A4BD1
:1035E0001A6003F500335A7B42F008025A73012037
:1035F0007047064B5A7B02F0F7025A73002070475F
:10360000002070473480044000C0044000C00640E1
:103610000D4B1B6813F4805F13D00E280AD14FF4B2
:1036200040720A4B1A600A4B5A7B42F001025A73ED
:1036300001207047064B5A7B02F0FE025A730020AD
:1036400070470020704700BF3480044004C004402D
:1036500000C006402DE9F04107461F4B1B6813F4DC
:10366000805F37D01D4B1B680BB101221A701C4BB9
:103670001C780134282C28BF00241A4D1A4EDFF87C
:103680006C8017E0FFF7D8F840280FDC337913F08F
:10369000800F0FD02B780133282B28BF002318F878
:1036A0000320D2B2F271DBB22B7003E0FF2801DD00
:1036B000FEF7DCFF2B78DBB29C42E3D0FFB20B4B72
:1036C0001F5501220A4B1A70E4B2054B1C70AC2244
:1036D000054BDA70BDE8F081348004403494FF1F5C
:1036E0003894FF1F3194FF1F00C00640C893FF1F8E
:1036F000C593FF1F38B505460C4629B115F8010BD7
:10370000FFF7A8FF013CF9D138BD00BF10B5064B4B
:103710001B7813F0FF0F06D0034CFEF7A7FF2378AA
:1037200013F0FF0FF9D110BDC593FF1F064B1B7897
:10373000DBB2064A1278D2B293422CBF273202F192
:10374000FF32D01A704700BF3894FF1F3194FF1F1B
:10375000054B1878C0B2054B1B78DBB2984238BFD6
:103760004030C01A704700BF3094FF1FC693FF1F40
:103770000A4B1A78D2B20A4B1B78DBB29A4209D0B4
:103780000133402B28BF0023064AD05CDBB2044A39
:10379000137070474FF0FF30704700BF3094FF1F29
:1037A000C693FF1FF093FF1F094B1A78D2B2094B43
:1037B0001B78DBB29A4207D00133402B28BF00238D
:1037C000054AD05CC0B270474FF0FF30704700BF71
:1037D0003094FF1FC693FF1FF093FF1F024B1A7810
:1037E000D2B2024B1A707047C693FF1F3094FF1F6E
:1037F000264B1B7913F0200F12D0244BDB79D9B262
:10380000234B1B780133402B28BF0023214A127819
:10381000D2B29A4204D0204AD154DBB21C4A13706F
:103820001A4BDB78DBB213F0800F1CD0174A1279E9
:1038300012F0800F17D0194A1178C9B2184A1278BD
:10384000D2B2914203D16C21104AD1700BE0013207
:10385000282A28BF00221349885CC0B20B49C871CE
:10386000D2B20F490A7013F0400F0ED0074B1B79EC
:1038700013F0400F09D000220B4B1A700B4B1B6842
:1038800003B11A702C22014BDA70704700C0064059
:103890003094FF1FC693FF1FF093FF1F3894FF1F44
:1038A0003194FF1FC893FF1FC593FF1F3494FF1F60
:1038B00000B585B072B61B4B70221A7041211A4AAE
:1038C00011700F21013A117080221A701A46137874
:1038D00013F0800FFBD0154B186862B6144B98425A
:1038E0009CBF00EB8000400001A90A22FEF7C4FF44
:1038F0009DF804307BB908E001A9595C31B1918091
:10390000023201330A2BF7D100E0002301335B00C0
:10391000084A137003E0074A53800123ECE705B01F
:103920005DF804FB0000024007000240080002406E
:103930007F969800FC87FF1F08B503681B68C9B213
:10394000984708BD08B503681B68C9B2984708BD09
:1039500008B503681B68C9B2984708BD08B5036875
:103960001B68C9B2984708BD08B54B0803F137601A
:1039700000F5D830B0FBF1F0FEF7A0FF08BD00BFA6
:1039800010B514464B0803F1376000F5D830B0FB92
:10399000F1F0FEF793FF2046FEF7D6FF10BD00BF03
:1039A00008B5FFF701F808BD08B50846FFF736F877
:1039B00008BD00BF08B50846FFF74CF8003018BF37
:1039C000012008BD08B50846FFF766F8003018BFAB
:1039D000012008BD08B5FFF75FF908BD08B5FFF77E
:1039E000A5F908BD08B5FFF767F908BD08B5FFF7E9
:1039F00031F908BD08B5FFF7B3F908BD08B5FFF701
:103A000039F908BD08B50846FFF772F8012008BD6E
:103A100008B50846FFF76CF8012008BD10B514463C
:103A200008461146FFF7B4F8204610BD38B50D46DC
:103A3000084601F0BFFC044628462146FFF7A8F8D7
:103A4000204638BD704700BF044B00221A714FF466
:103A50007A7199601A73024A1A6070473C94FF1F8A
:103A6000905C000008B503681B68C9B2984708BDA0
:103A700008B503681B68C9B2984708BD08B5036854
:103A80001B68C9B2984708BD08B503681B68C9B26E
:103A9000984708BD08B54B0803F1376000F5D830EA
:103AA000B0FBF1F0FFF712FA08BD00BF10B51446E5
:103AB0004B0803F1376000F5D830B0FBF1F0FFF7A9
:103AC00005FA2046FFF748FA10BD00BF08B5FFF71A
:103AD00073FA08BD08B50846FFF7A0FA08BD00BF95
:103AE00008B50846FFF7B6FA003018BF012008BD38
:103AF00008B50846FFF7D0FA003018BF012008BD0E
:103B000008B5FFF7BFFB08BD08B5FFF7E7FB08BD29
:103B100008B5FFF7C7FB08BD08B5FFF791FB08BD67
:103B200008B5FFF7F5FB08BD08B5FFF799FB08BD21
:103B300008B50846FFF7D2FA012008BD08B50846C7
:103B4000FFF7CCFA012008BD10B51446084611460F
:103B5000FFF714FB204610BD38B50D46084601F0AE
:103B600029FC044628462146FFF708FB204638BDBD
:103B7000704700BF044B00221A714FF47A719960AC
:103B80001A73024A1A6070474C94FF1FE85C0000E9
:103B900008B503681B68C9B2984708BD08B5036833
:103BA0001B68C9B2984708BD08B503681B68C9B24D
:103BB000984708BD08B503681B68C9B2984708BD97
:103BC00008B54B0803F1B76000F55840B0FBF1F0C1
:103BD000FFF73CFC08BD00BF10B514464B0803F1CD
:103BE000B76000F55840B0FBF1F0FFF72FFC20461E
:103BF000FFF76EFC10BD00BF08B5FFF799FC08BDCC
:103C000008B50846FFF7C6FC08BD00BF08B5084662
:103C1000FFF7DCFC003018BF012008BD08B50846DE
:103C2000FFF7F6FC003018BF012008BD08B5FFF70C
:103C30008FFD08BD08B5FFF7B7FD08BD08B5FFF754
:103C400097FD08BD08B5FFF761FD08BD08B5FFF792
:103C5000C5FD08BD08B5FFF769FD08BD08B50846F4
:103C6000FFF7F8FC012008BD08B50846FFF7F2FC95
:103C7000012008BD10B5144608461146FFF73AFD6D
:103C8000204610BD38B50D46084601F093FB0446AA
:103C900028462146FFF72EFD204638BD704700BF5D
:103CA000044B00221A714FF47A7199601A73024A18
:103CB0001A6070475C94FF1F405D000008B5012248
:103CC000024B1A60024B1B68984708BD0C710340F9
:103CD0007494FF1F08B50122024B1A60024B5B6807
:103CE000984708BD1C7103407494FF1F08B501225A
:103CF000024B1A60024B9B68984708BD2C71034029
:103D00007494FF1F08B50122024B1A60024BDB6856
:103D1000984708BD3C7103407494FF1F054B1A6817
:103D200042F400021A600022034B1A600122034B86
:103D30001A7070473C800440007003407094FF1F6D
:103D40000122064B1A6003F588333C331A6822F4CB
:103D500000021A600022024B1A7070470070034084
:103D60007094FF1F10B442781401164B2344436033
:103D7000154B234483600369144C44F82230836854
:103D800000221A6043681960836803221A6043782E
:103D90004433DBB2037303F1604303F56443427BB6
:103DA0001A70027B53119B0003F1604303F56143DA
:103DB00002F01F02012101FA02F21A605DF8044BC1
:103DC000704700BF00710340087103407494FF1FE7
:103DD00070B504460D46134B1B780BB9FFF79EFFD9
:103DE000114B1B788BB1104B5B7843B10E4B9B781A
:103DF00043B10D4BDB789BB903231E4607E001233B
:103E00001E4604E002231E4601E00026334663708E
:103E100020462946FFF7A6FF0120034B985570BDA9
:103E2000002070BD7094FF1F6C94FF1F10B5836855
:103E300000221A60037B5C1103F01F03012101FAC9
:103E400003F30A4941F82430094B41785A541B784E
:103E500053B9074B5B783BB9054B9B7823B9044BAF
:103E6000DB780BB9FFF76CFF10BD00BF80E100E00D
:103E70006C94FF1F70B504460E46154603781BB1BF
:103E8000FFF7D4FF00232370266120462946FFF761
:103E90009FFF10B10123237001E0002323702078DD
:103EA00070BD00BF10B5044603780BB1FFF7BEFF2D
:103EB0000023237010BD00BF81F0004102E000BF6D
:103EC00083F0004330B54FEA41044FEA430594EADA
:103ED000050F08BF90EA020F1FBF54EA000C55EA15
:103EE000020C7FEA645C7FEA655C00F0E2804FEAE6
:103EF0005454D4EB5555B8BF6D420CDD2C4480EAC8
:103F0000020281EA030382EA000083EA010180EAF7
:103F1000020281EA0303362D88BF30BD11F0004F45
:103F20004FEA01314FF4801C4CEA113102D040427B
:103F300061EB410113F0004F4FEA03334CEA1333B6
:103F400002D0524263EB430394EA050F00F0A780CE
:103F5000A4F10104D5F1200E0DDB02FA0EFC22FAC9
:103F600005F2801841F1000103FA0EF2801843FABD
:103F700005F359410EE0A5F120050EF1200E012AAE
:103F800003FA0EFC28BF4CF0020C43FA05F3C018EC
:103F900051EBE37101F0004507D54FF0000EDCF165
:103FA000000C7EEB00006EEB0101B1F5801F1BD30E
:103FB000B1F5001F0CD349085FEA30004FEA3C0C12
:103FC00004F101044FEA445212F5800F80F09A8008
:103FD000BCF1004F08BF5FEA500C50F1000041EB0C
:103FE000045141EA050130BD5FEA4C0C404141EB10
:103FF000010111F4801FA4F10104E9D191F0000F37
:1040000004BF01460020B1FA81F308BF2033A3F1B9
:104010000B03B3F120020CDA0C3208DD02F1140CB0
:10402000C2F10C0201FA0CF021FA02F10CE002F1EB
:104030001402D8BFC2F1200C01FA02F120FA0CFCE4
:10404000DCBF41EA0C019040E41AA2BF01EB04512D
:10405000294330BD6FEA04041F3C1CDA0C340EDC2B
:1040600004F11404C4F1200220FA04F001FA02F36E
:1040700040EA030021FA04F345EA030130BDC4F12C
:104080000C04C4F1200220FA02F001FA04F340EA21
:104090000300294630BD21FA04F0294630BD94F0D2
:1040A000000F83F4801306BF81F480110134013DB9
:1040B0004EE77FEA645C18BF7FEA655C29D094EA2A
:1040C000050F08BF90EA020F05D054EA000C04BFA8
:1040D0001946104630BD91EA030F1EBF0021002093
:1040E00030BD5FEA545C05D14000494128BF41F032
:1040F000004130BD14F580043CBF01F5801130BD96
:1041000001F0004545F0FE4141F470014FF0000020
:1041100030BD7FEA645C1ABF194610467FEA655CD1
:104120001CBF0B46024650EA013406BF52EA033573
:1041300091EA030F41F4002130BD00BF90F0000F61
:1041400004BF0021704730B54FF4806404F132049D
:104150004FF000054FF0000150E700BF90F0000F56
:1041600004BF0021704730B54FF4806404F132047D
:1041700010F0004548BF40424FF000013EE700BF4D
:1041800042004FEAE2014FEA31014FEA02701FBFDD
:1041900012F07F4393F07F4F81F06051704792F0AF
:1041A000000F14BF93F07F4F704730B54FF4607429
:1041B00001F0004521F0004120E700BF50EA010274
:1041C00008BF704730B54FF000050AE050EA010221
:1041D00008BF704730B511F0004502D5404261EB91
:1041E00041014FF4806404F132045FEA915C3FF4D2
:1041F000DCAE4FF003025FEADC0C18BF03325FEA6B
:10420000DC0C18BF033202EBDC02C2F1200300FA1F
:1042100003FC20FA02F001FA03FE40EA0E0021FA44
:1042200002F11444C1E600BF70B54FF0FF0C4CF42E
:10423000E06C1CEA11541DBF1CEA135594EA0C0FE4
:1042400095EA0C0F00F0DEF82C4481EA030621EA1F
:104250004C5123EA4C5350EA013518BF52EA03355A
:1042600041F4801143F4801338D0A0FB02CE4FF00C
:104270000005E1FB02E506F00042E0FB03E54FF03C
:104280000006E1FB03569CF0000F18BF4EF0010E34
:10429000A4F1FF04B6F5007F64F5407404D25FEA30
:1042A0004E0E6D4146EB060642EAC62141EA5551E3
:1042B0004FEAC52040EA5E504FEACE2EB4F1FD0C25
:1042C00088BFBCF5E06F1ED8BEF1004F08BF5FEAA3
:1042D000500E50F1000041EB045170BD06F0004655
:1042E00046EA010140EA020081EA0301B4EB5C0402
:1042F000C2BFD4EB0C0541EA045170BD41F48011FA
:104300004FF0000E013C00F3AB8014F1360FDEBF1E
:10431000002001F0004170BDC4F10004203C35DAFA
:104320000C341BDC04F11404C4F1200500FA05F37D
:1043300020FA04F001FA05F240EA020001F000421E
:1043400021F0004110EBD37021FA04F642EB060194
:104350005EEA430E08BF20EAD37070BDC4F10C04BE
:10436000C4F1200500FA04F320FA05F001FA04F282
:1043700040EA020001F0004110EBD37041F100016E
:104380005EEA430E08BF20EAD37070BDC4F1200579
:1043900000FA05F24EEA020E20FA04F301FA05F2E1
:1043A00043EA020321FA04F001F0004121FA04F289
:1043B00020EA020000EBD3705EEA430E08BF20EA59
:1043C000D37070BD94F0000F0FD101F00046400093
:1043D00041EB010111F4801F08BF013CF7D041EA15
:1043E000060195F0000F18BF704703F00046520019
:1043F00043EB030313F4801F08BF013DF7D043EAEA
:104400000603704794EA0C0F0CEA135518BF95EA9F
:104410000C0F0CD050EA410618BF52EA4306D1D126
:1044200081EA030101F000414FF0000070BD50EA45
:10443000410606BF1046194652EA430619D094EACF
:104440000C0F02D150EA013613D195EA0C0F05D1B9
:1044500052EA03361CBF104619460AD181EA03010D
:1044600001F0004141F0FE4141F470014FF00000C5
:1044700070BD41F0FE4141F4780170BD70B54FF060
:10448000FF0C4CF4E06C1CEA11541DBF1CEA1355E0
:1044900094EA0C0F95EA0C0F00F0A7F8A4EB0504C2
:1044A00081EA030E52EA03354FEA013100F08880B9
:1044B0004FEA03334FF0805545EA131343EA126382
:1044C0004FEA022245EA111545EA10654FEA002637
:1044D0000EF000419D4208BF964244F1FD0404F5F0
:1044E000407402D25B084FEA3202B61A65EB03054C
:1044F0005B084FEA32024FF480104FF4002CB6EB09
:10450000020E75EB030E22BFB61A754640EA0C0088
:104510005B084FEA3202B6EB020E75EB030E22BFC8
:10452000B61A754640EA5C005B084FEA3202B6EB09
:10453000020E75EB030E22BFB61A754640EA9C00C8
:104540005B084FEA3202B6EB020E75EB030E22BF98
:10455000B61A754640EADC0055EA060E18D04FEA56
:10456000051545EA16754FEA06164FEAC30343EAF6
:1045700052734FEAC2025FEA1C1CC0D111F4801FC3
:104580000BD141EA00014FF000004FF0004CB6E7BC
:1045900011F4801F04BF01430020B4F1FD0C88BF5B
:1045A000BCF5E06F3FF6AFAEB5EB030C04BFB6EB66
:1045B000020C5FEA500C50F1000041EB045170BD59
:1045C0000EF0004E4EEA113114EB5C04C2BFD4EB86
:1045D0000C0541EA045170BD41F480114FF0000E0A
:1045E000013C90E645EA060E8DE60CEA135594EA86
:1045F0000C0F08BF95EA0C0F3FF43BAF94EA0C0F89
:104600000AD150EA01347FF434AF95EA0C0F7FF4FD
:1046100025AF104619462CE795EA0C0F06D152EA51
:1046200003353FF4FDAE1046194622E750EA410635
:1046300018BF52EA43067FF4C5AE50EA41047FF446
:104640000DAF52EA43057FF4EBAE12E74FF0FF3CAB
:1046500006E000BF4FF0010C02E000BF4FF0010C7C
:104660004DF804CD4FEA410C7FEA6C5C4FEA430CF5
:1046700018BF7FEA6C5C1BD001B050EA410C0CBF44
:1046800052EA430C91EA030F02BF90EA020F0020A6
:10469000704710F1000F91EA030F58BF994208BF0D
:1046A00090422CBFD8176FEAE37040F001007047CA
:1046B0004FEA410C7FEA6C5C02D150EA013C07D121
:1046C0004FEA430C7FEA6C5CD6D152EA033CD3D06C
:1046D0005DF8040B704700BF8446104662468C4666
:1046E0001946634600E000BF01B5FFF7B7FF002899
:1046F00048BF10F1000F01BD4DF808EDFFF7F4FFC2
:104700000CBF012000205DF808FB00BF4DF808ED4C
:10471000FFF7EAFF34BF012000205DF808FB00BF6F
:104720004DF808EDFFF7E0FF94BF012000205DF891
:1047300008FB00BF4DF808EDFFF7CEFF94BF012046
:1047400000205DF808FB00BF4DF808EDFFF7C4FF3F
:1047500034BF012000205DF808FB00BF4A0011D2E1
:1047600012F5001211D20DD56FF47873B3EB6252CB
:104770000ED44FEAC12343F0004343EA505323FAD7
:1047800002F070474FF00000704750EA013002D14C
:104790004FF0FF3070474FF00000704780F000404E
:1047A00002E000BF81F0004142001FBF5FEA410309
:1047B00092EA030F7FEA226C7FEA236C6AD04FEA09
:1047C0001262D2EB1363C1BFD2184140484041404E
:1047D000B8BF5B42192B88BF704710F0004F40F400
:1047E000000020F07F4018BF404211F0004F41F41C
:1047F000000121F07F4118BF494292EA030F3FD0E8
:10480000A2F1010241FA03FC10EB0C00C3F12003FA
:1048100001FA03F100F0004302D5494260EB400089
:10482000B0F5000F13D3B0F1807F06D340084FEAF4
:10483000310102F10102FE2A51D2B1F1004F40EBE9
:10484000C25008BF20F0010040EA03007047490051
:1048500040EB000010F4000FA2F10102EDD1B0FA1C
:1048600080FCACF1080CB2EB0C0200FA0CF0AABF11
:1048700000EBC25052421843BCBFD04018437047AF
:1048800092F0000F81F4000106BF80F400000132B5
:10489000013BB5E74FEA41037FEA226C18BF7FEA8C
:1048A000236C21D092EA030F04D092F0000F08BFCE
:1048B0000846704790EA010F1CBF0020704712F0B5
:1048C0007F4F04D1400028BF40F00040704712F1F4
:1048D00000723CBF00F50000704700F0004343F059
:1048E000FE4040F4000070477FEA226216BF08468F
:1048F0007FEA23630146420206BF5FEA412390EA52
:10490000010F40F4800070474FF0000304E000BF47
:1049100010F0004348BF40425FEA000C08BF7047F8
:1049200043F0964301464FF000001CE050EA0102BC
:1049300008BF70474FF000030AE000BF50EA0102D1
:1049400008BF704711F0004302D5404261EB4101BE
:104950005FEA010C02BF84460146002043F0B643E3
:1049600008BFA3F18053A3F50003BCFA8CF2083A08
:10497000A3EBC25310DB01FA02FC634400FA02FC11
:10498000C2F12002BCF1004F20FA02F243EB020018
:1049900008BF20F00100704702F1200201FA02FC7A
:1049A000C2F1200250EA4C0021FA02F243EB02006D
:1049B00008BF20EADC7070474FF0FF0C1CEAD052B1
:1049C0001EBF1CEAD15392EA0C0F93EA0C0F6FD072
:1049D0001A4480EA010C400218BF5FEA41211ED050
:1049E0004FF0006343EA501043EA5111A0FB01313C
:1049F0000CF00040B1F5000F3EBF490041EAD37111
:104A00005B0040EA010062F17F02FD2A1DD8B3F18C
:104A1000004F40EBC25008BF20F00100704790F0FB
:104A2000000F0CF0004C08BF49024CEA502040EA4D
:104A300051207F3AC2BFD2F1FF0340EAC250704713
:104A400040F400004FF00003013A5DDC12F1190F51
:104A5000DCBF00F000407047C2F10002410021FAC3
:104A600002F1C2F1200200FA02FC5FEA310040F1DB
:104A7000000053EA4C0308BF20EADC70704792F054
:104A8000000F00F0004C02BF400010F4000F013A8C
:104A9000F9D040EA0C0093F0000F01F0004C02BF87
:104AA000490011F4000F013BF9D041EA0C018FE7F6
:104AB0000CEAD15392EA0C0F18BF93EA0C0F0AD0FC
:104AC00030F0004C18BF31F0004CD8D180EA010022
:104AD00000F00040704790F0000F17BF90F0004FBB
:104AE000084691F0000F91F0004F14D092EA0C0F9D
:104AF00001D142020FD193EA0C0F03D14B0218BF30
:104B0000084608D180EA010000F0004040F0FE4075
:104B100040F40000704740F0FE4040F44000704711
:104B20004FF0FF0C1CEAD0521EBF1CEAD15392EA90
:104B30000C0F93EA0C0F69D0A2EB030280EA010C80
:104B400049024FEA402037D04FF0805343EA111119
:104B500043EA10130CF000408B4238BF5B0042F177
:104B60007D024FF4000C8B4224BF5B1A40EA0C001C
:104B7000B3EB510F24BFA3EB510340EA5C00B3EB4E
:104B8000910F24BFA3EB910340EA9C00B3EBD10F3C
:104B900024BFA3EBD10340EADC001B0118BF5FEA8E
:104BA0001C1CE0D1FD2A3FF650AF8B4240EBC250B7
:104BB00008BF20F0010070470CF0004C4CEA502078
:104BC0007F32C2BFD2F1FF0340EAC250704740F4C7
:104BD00000004FF00003013A37E792F0000F00F0B9
:104BE000004C02BF400010F4000F013AF9D040EA37
:104BF0000C0093F0000F01F0004C02BF490011F4CB
:104C0000000F013BF9D041EA0C0195E70CEAD153C2
:104C100092EA0C0F08D142027FF47DAF93EA0C0FA9
:104C20007FF470AF084676E793EA0C0F04D14B028D
:104C30003FF44CAF08466EE730F0004C18BF31F03F
:104C4000004CCAD130F000427FF45CAF31F0004339
:104C50007FF43CAF5FE700BF4FF0FF3C06E000BFD2
:104C60004FF0010C02E000BF4FF0010C4DF804CDF5
:104C70004FEA40024FEA41037FEA226C18BF7FEA05
:104C8000236C11D001B052EA530C18BF90EA010F07
:104C900058BFB2EB030088BFC81738BF6FEAE17096
:104CA00018BF40F0010070477FEA226C02D15FEA32
:104CB000402C05D17FEA236CE4D15FEA412CE1D09E
:104CC0005DF8040B704700BF844608466146FFE765
:104CD0000FB5FFF7C9FF002848BF10F1000F0FBD47
:104CE0004DF808EDFFF7F4FF0CBF012000205DF840
:104CF00008FB00BF4DF808EDFFF7EAFF34BF0120C5
:104D000000205DF808FB00BF4DF808EDFFF7E0FF5D
:104D100094BF012000205DF808FB00BF4DF808EDAE
:104D2000FFF7D2FF94BF012000205DF808FB00BF11
:104D30004DF808EDFFF7C8FF34BF012000205DF8F3
:104D400008FB00BF4FEA4002B2F1FE4F0FD34FF015
:104D50009E03B3EB12620DD94FEA002343F00043E8
:104D600010F0004F23FA02F018BF404270474FF096
:104D70000000704712F1610F01D1420205D110F01D
:104D8000004008BF6FF0004070474FF000007047D0
:104D900042000ED2B2F1FE4F0BD34FF09E03B3EBA5
:104DA000126209D44FEA002343F0004323FA02F0D1
:104DB00070474FF00000704712F1610F01D14202BD
:104DC00002D14FF0FF3070474FF00000704700BF36
:104DD00003460846194600F001B800BF10B40C465F
:104DE00013460146224602205DF8044B00F012BB38
:104DF00070B50F4E0F4D761BB61007D0043D002442
:104E0000013455F8043F9847A642F9D10A4E0B4D9C
:104E1000761B00F0C1FFB61008D0043D0024013419
:104E200055F8043F9847A642F9D170BD70BD00BF48
:104E3000A45D0000A45D0000C05D0000A45D000052
:104E4000024B0146186800F003B800BF408CFF1FFA
:104E50002DE9F04F01F10B05162D83B0064627D939
:104E600035F0070527D4A94225D8304600F08CFA42
:104E7000B5F5FC7F26D2C14F4FEAD50C07EBCC032A
:104E8000DC689C4200F0D2816368E268A16823F08C
:104E90000303234430465D68CA6045F00105916014
:104EA0005D6000F073FA0834204603B0BDE8F08F6F
:104EB0001025A942D9D900240C232046336003B021
:104EC000BDE8F08F5FEA552C00F08A80BCF1040F3A
:104ED00000F260814FEA951C0CF1380C4FEA4C014E
:104EE000A64F07EB8101CC68A14205D10CE0002B55
:104EF0007ADAE468A14207D0626822F00302531B09
:104F00000F2BF4DD0CF1FF3C0CF1010C9B4B3C69C9
:104F100003F1080E744500F07E81616821F0030101
:104F20004A1B0F2A00F36481002AC3F814E0C3F877
:104F300010E06ADAB1F5007F80F03A81C90803EB2E
:104F4000C1004FEAA1085A688168A1604FF00109C9
:104F500009FA08F848EA0202E0605A608460CC600E
:104F60004FEAAC030120984090425BD8024206D140
:104F70002CF0030C400002420CF1040CFAD007EBB9
:104F8000CC084446E146E3689C4207D145E1002A4B
:104F900080F25681DB689C4200F03F81596821F025
:104FA00003014A1B0F2AF2DD1C46D3F80CC054F84B
:104FB000088F591945F0010942F00105C3F8049022
:104FC0003046C8F80CC0CCF8088079613961C1F866
:104FD0000CE0C1F808E04D608A5000F0D7F963E7B3
:104FE0007E214FF03F0C7BE72244E3685068A168C4
:104FF00040F00105CB6030469960556000F0C6F97D
:105000000834204603B0BDE8F08F214430464B6899
:1050100043F001034B6000F0B9F90834204603B0B7
:10502000BDE8F08FBC68636823F00309A94504D389
:10503000C5EB09030F2B00F39180514B514A1968BE
:105040001368013305EB010A04EB090B00F06181E1
:105050000AF5805A0AF10F0A2AF47F6A2AF00F0A29
:1050600030465146019200F093F9B0F1FF3F80467F
:10507000019A00F00081834500F2FA80DFF810C148
:10508000DCF80030C3455344CCF8003000F04A81CE
:1050900012683C4901321BBFCBEB080B5B44C1F8E3
:1050A0000080CCF8003018F0070300F01381C3F142
:1050B0000802C3F5805390440833C244CAF30B0A74
:1050C000CAEB030A51463046CDF804C000F060F93F
:1050D000431CDDF804C000F03581C8EB00025244E7
:1050E00042F00102DCF80030C7F808805344BC42AB
:1050F000C8F80420CCF80030DFF894A015D0B9F13E
:105100000F0F40F2EA806168A9F10C0222F0070259
:1051100001F0010EA118052042EA0E0E0F2AC4F874
:1051200004E04860886000F21181174ABC68116889
:105130008B4288BF1360154A11688B4288BF136089
:10514000626822F003029542C5EB020301D80F2BDF
:1051500004DC304600F01AF90024A5E6621943F099
:10516000010345F0010565603046BA60536000F008
:105170000DF90834204603B0BDE8F08F448CFF1FC2
:105180008C94FF1F5090FF1F8894FF1F8494FF1F73
:105190009094FF1FBCF1140F61D9BCF1540F00F2C1
:1051A0008F804FEA153C0CF16E0C4FEA4C0197E6EC
:1051B0004B0A042B58D9142B00F2AE8003F15B028A
:1051C000500007EB8000DFF8BC818368834200F069
:1051D0008A805A6822F00302914202D29B68984268
:1051E000F7D1D9687A68E160A3608C60DC60B7E6CB
:1051F000611942F0010745F00105656030465961CB
:105200001961C1F80CE0C1F808E04F608A50083419
:1052100000F0BCF848E65A68A2E609F1010919F065
:10522000030F04F108047FF4AEAE2DE004F108038F
:105230006469A34208BF0CF1020C3FF467AE23E699
:1052400019441C464868DB6854F8082F40F00105F3
:105250004D603046D3609A6000F098F824E60CF177
:105260005B0C4FEA4C013BE68A0938325000A8E754
:10527000BC423FF403AFBC68626822F0030262E7FD
:10528000D8F8008098457BD11CF0030FA8F10803E3
:105290000CF1FF3CF4D17B6823EA00037B60400003
:1052A00098423FF6BFAE00283FF4BCAE0342CC4666
:1052B0007FF465AE400003420CF1040CFAD05EE6C8
:1052C000BCF5AA7F1AD84FEAD53C0CF1770C4FEA0F
:1052D0004C0105E64FF48053EFE60123C8F8043093
:1052E000444600222FE791100120D8F8042000FA4C
:1052F00001F10A43C8F80420194674E740F25453F8
:105300009C451BD84FEA954C0CF17C0C4FEA4C01A4
:10531000E6E50AF1100AA3E6542B1FD80A0B6E32F9
:1053200050004EE7CBF30B0100297FF4B1AE0AEB3E
:105330000901BA6841F001015160F6E6FC214FF025
:105340007E0CCDE501224FF0000ACBE604F1080106
:10535000304600F029F9DAF80030E6E6B3F5AA7F26
:1053600003D8CA0B773250002BE740F254529342D5
:1053700003D88A0C7C32500023E7FC207E2220E7F1
:105380007B688CE7448CFF1F704700BF704700BFED
:1053900038B5074C0023054608462360FDF744FA5C
:1053A000431C00D038BD2368002BFBD02B6038BDD8
:1053B000C894FF1F20F0030110F00300C0F10000AB
:1053C00051F8043B00F1040C4FEACC0C6FF00002E2
:1053D0001CBF22FA0CF213434FF0010C4CEA0C2CC8
:1053E0004CEA0C4CA3EB0C0222EA030212EACC12A8
:1053F00004BF51F8043B0430F4D013F0FF0F1FBF7B
:10540000013013F47F4F013013F47F0F18BF0130C8
:10541000704700BFF0B5274C2668D6F8484185B0E4
:105420000746002C41D065681F2D1EDD224818B9A3
:105430004FF0FF3005B0F0BD4FF4C87003910292F9
:105440000193FFF7FDFC0399029A019B0446002893
:10545000EED0D6F848512560002060600546C6F8B9
:105460004841C4F88801C4F88C013FB9AB1C002046
:105470000135656044F8231005B0F0BD04EB8500EC
:105480004FF0010CC0F88820D4F888610CFA05F2BE
:105490001643022FC4F88861C0F80831E6D1D4F869
:1054A0008C311A43C4F88C21E0E706F5A674C6F8DF
:1054B0004841B8E7945D0000414E0000024B13B133
:1054C000024800F005B8704700000000DD540000FD
:1054D0000146002002460346FFF79CBF38B5094D40
:1054E000094C641BA41018BF05EB840505D0013CD2
:1054F00055F8043D9847002CF9D1BDE8384000F03C
:105500005FBC00BF0000000000000000F8B5234DA4
:105510000F460446FFF738FFAB685E6826F00306C7
:10552000F11B01F6EF7121F47F6121F00F01A1F56C
:105530008057B7F5805F07DB20460021FFF728FF83
:10554000AB683344984204D02046FFF71FFF002089
:10555000F8BD20467942FFF71BFF01300DD0104BFC
:10556000AA681968F61B46F001062046C91B56605A
:105570001960FFF70BFF0120F8BD20460021FFF75F
:1055800007FFAB68C21A0F2ADEDD064D04492D68FD
:1055900042F00102401B5A600860D5E7448CFF1FAF
:1055A0009094FF1F5090FF1F2DE9F0410D460646D5
:1055B000002955D0FFF7E8FE55F8041CDFF874C148
:1055C00021F00103A5F10804E218DCF8080057688F
:1055D000904227F0030769D011F00101576032D0E3
:1055E0000021D0194068C00706D43B4490680029C8
:1055F0004ED0D268C260906043F001026260E35016
:10560000E1B9B3F5007F2DD35A0A042A6AD8980964
:10561000383041000CEB810C4649DCF8082062452B
:1056200066D0516821F003018B4202D29268944502
:10563000F7D1D368E360A2609C60D4603046BDE8D7
:10564000F041FFF7A3BE55F8085C641B0CF1080895
:10565000A06840452B4443D0E568C560A860C0E71A
:10566000BDE8F081DB080CEBC3020125DCF8040087
:105670009168A1609B1005FA03F31843E260CCF82F
:10568000040094603046CC60BDE8F041FFF77EBE78
:10569000294DA842ADD143F00102CCF81440CCF81A
:1056A0001040E060A0606260E350C7E71F44CB0792
:1056B00007D455F8083CE41A1F44A268E368D36095
:1056C0009A601E4B1B6847F001029F426260CCF853
:1056D0000840B3D31A4B30461968FFF717FFADE700
:1056E00001217EE7142A0CD802F15B00410091E70A
:1056F0004B688010012505FA00F003434B60134608
:1057000098E7542A03D8180B6E30410082E7B2F5AF
:10571000AA7F03D8D80B773041007BE740F2545181
:105720008A4203D8980C7C30410073E7FC217E202C
:1057300070E700BF448CFF1F4C8CFF1F4C90FF1F75
:105740008C94FF1F50726F6772616D5F5365747543
:105750007028290030780000300000004C4F524182
:105760002E52657365744465762829006C6F7261EA
:105770005F5072696E74282900000000526567202E
:1057800020202030202031202032202033202034BF
:105790002020352020362020372020382020392096
:1057A000204120204220204320204420204520204A
:1057B00046000000302020006C6F72615F736574DA
:1057C0004672657128292000203078004C4F5241E4
:1057D0002E436865636B44657669636528292000FC
:1057E0006C6F72615F53657475702829000000004A
:1057F0004C6F526120446576696365204E6F74205A
:10580000576F726B696E67006C6F72615F54584FAF
:105810004E4469726563742800000000290000008E
:105820006C6F72615F54584F464628290000000093
:105830006C6F72615F4469726563745365747570EF
:10584000282900006C6F72615F546F6E6528290013
:105850006C6F72615F5365744D6F64656D282900CC
:105860006C6F72615F5072696E744D6F64656D2804
:10587000292000006C6F72615F5072696E74506F06
:1058800077657228292000006C6F72615F46696C31
:105890006C545828292000006C6F72615F54584284
:1058A0007566665072696E7428000000205374613A
:1058B00072743E3E000000003C3C456E64000000F7
:1058C0006C6F72615F5258427566665072696E7491
:1058D000280000003C3C456E6420202000000000B1
:1058E0006C6F72615F5458504B54496E666F282933
:1058F000200000005458747970652C002C545844D2
:10590000657374696E6174696F6E2C002C54585302
:105910006F757263652C00002C54585061636B6581
:10592000744C656E6774682C000000002C5458504D
:1059300061636B6574436F756E742C006C6F72617C
:105940005F54584F4E4C6F5261280000256420254B
:1059500064206B6F6269206861206D616E69616BA4
:10596000000000006C6F72615F53656E642829202F
:10597000000000004552524F522C5061636B657419
:1059800061744C696D697420000000005472616E8E
:10599000736D69742054696D656F75742000000023
:1059A000205365636F6E6473000000005061636B89
:1059B00065742053656E74004552524F522C5458F2
:1059C00074696D656F7574006C6F72615F525850C9
:1059D0004B54496E666F20005258747970652C00E4
:1059E000202C44657374696E6174696F6E2C0000BD
:1059F000202C536F757263652C000000202C4C65C1
:105A00006E6774682C000000202C5258436F756E2E
:105A1000742C000020202C4352434572726F727325
:105A20002C00000052535349202D000064426D00A9
:105A30004E6F697365202D005061636B6574534E22
:105A400052200000644200006C6F72615F4C697309
:105A500074656E282920000054696D656F75742087
:105A60000000000020536563730000006661696CEC
:105A7000696E6720202020002020204E6F74686906
:105A80006E672052656365697665640043524346DC
:105A900061696C2021000000525862756666200022
:105AA0004C6F526120466F722041726475696E6F4F
:105AB0002052582056315F32202D20537475617268
:105AC0007420526F62696E736F6E202D20323574B0
:105AD0006820417072696C2032303135000000005E
