:1000000000800020BD01000009370000CD3600004F
:10001000CD360000CD360000CD360000CD360000D4
:10002000CD360000CD360000CD3600000937000087
:1000300009370000CD36000009370000BD3600004A
:1000400009370000093700000937000009370000B0
:1000500009370000093700000937000009370000A0
:100060000937000009370000093700000937000090
:100070000937000009370000093700000937000080
:100080000937000009370000093700000937000070
:100090000937000009370000093700000937000060
:1000A0000937000009370000093700000937000050
:1000B0000937000009370000093700000937000040
:1000C0000937000009370000093700000937000030
:1000D0000937000009370000093700000937000020
:1000E0000937000009370000093700000937000010
:1000F00009370000091F000009370000A92400008B
:1001000009370000593B000009370000093700009B
:1001100009370000093700000937000009370000DF
:1001200009370000093700000937000009370000CF
:1001300009370000093700000937000009370000BF
:1001400009370000093700000937000009370000AF
:10015000093700000937000009370000093700009F
:100160000937000071270000093700000937000037
:10017000093700000937000009370000093700007F
:10018000093700000937000009370000093700006F
:10019000093700000937000009370000093700005F
:1001A000093700000937000009370000093700004F
:1001B000093700000937000009370000574B4CF29F
:1001C000205210B51A804DF628121A8000BF00BFC9
:1001D00003F09EFA524B4FF010621A60514A9A6037
:1001E000514ADA60A3F53043203B1A6812F480725A
:1001F00004D14E490A604FF4A8521A604C4B1A7849
:10020000110703D51A7842F008021A70494B4A4C7C
:100210004A482A221A704A4A00239918A14203D256
:10022000195899500433F8E7464B474900228B424E
:1002300002D243F8042BFAE74448454900235A58B0
:100240001A500433B3F5DE7FF9D1424B424A802184
:1002500003F8011B9342FBD1404B3C4A1A60404BD0
:100260000A221A70A3F5805324225A70A0221A7011
:100270009A799207FCD59A79D406FCD4394A9379B5
:1002800003F00C03082B374BF9D103221A714022DB
:100290005A719A799006FCD5324A9179314B4906C8
:1002A000FBD5314A314911600221516020221A7078
:1002B0009A7902F00C020C2AFAD12D4B2D4A1A60C1
:1002C0002D4B2E4A1A6000225A60072243F8042C54
:1002D0002B4AC3F80C2D62B601F044FB134B1B688C
:1002E000DA0705D5274801F0B1FA274B274A1A60EB
:1002F000274B1B785B0609D5234C244A236893427D
:1003000004D1204801F0A2FA0023236004F072FD1A
:1003100003F004FA03F002F8FEE700BF0E200540E8
:1003200030800440823F04000100002B14D00340C1
:1003300002D0074000E007409090FF1FD89B0000CC
:100340006087FF1F9090FF1F0895FF1F0082FF1F0F
:100350000000000000E400E05FE400E008ED00E0E1
:100360000050064000400640448004400000030165
:1003700004800440C010050014E000E0FF76010096
:100380000000202000DD68501CE00340A5C3945A03
:1003900000F00740FFFFFFFFFFFFFFFFFFFFFFFF32
:1003A000FFFFFFFFFFFFFFFFFFFFFFFFFFFFFFFF5D
:1003B000FFFFFFFFFFFFFFFFFFFFFFFFFFFFFFFF4D
:1003C000FFFFFFFFFFFFFFFFFFFFFFFFFFFFFFFF3D
:1003D000FFFFFFFFFFFFFFFFFFFFFFFFFFFFFFFF2D
:1003E000FFFFFFFFFFFFFFFFFFFFFFFFFFFFFFFF1D
:1003F000FFFFFFFFFFFFFFFFFFFFFFFFFFFFFFFF0D
:10040000FFFFFFFFFFFFFFFFFFFFFFFFFEFFFFFFFD
:1004100010B5054C237833B9044B13B10448AFF33E
:1004200000800123237010BD9090FF1F000000008A
:10043000D09B000008B5064B1BB106480649AFF338
:1004400000800648036813B1054B03B1984708BD07
:1004500000000000D09B00009490FF1F9090FF1FB1
:100460000000000011B1012905D070470A23C360C4
:100470001E23036170471423C3601E23036170476A
:1004800041607047F8B50A4B1E684FF47A7505FB5A
:1004900001F51C46074F04E01FB101F065F9034662
:1004A00020B123689B1BAB42F6D301231846F8BD4D
:1004B0000492FF1F6917000038B50D46846844B1E7
:1004C000084605F09BFB024623685B6820462946E8
:1004D000984738BD38B50D46846844B1084605F0E4
:1004E0008DFB024623685B6820462946984738BD45
:1004F00008B5806808B102F065FF08BD38B50D4643
:10050000446844B1084605F079FB024623685B68FD
:1005100020462946984738BD38B50D46446844B151
:10052000084605F06BFB024623685B6820462946B7
:10053000984738BD08B5406810B103681B689847F4
:1005400008BD00BF2DE9F04F83B005468B460092F1
:1005500099460C9F4749FFF7AFFF28463946FFF7FA
:10056000B9FF28464449FFF7A7FFBBF1000F04D0AD
:1005700058460021009A04F069FFB9F1000F0CBF42
:100580004FF002084FF0000828463C49FFF7B6FF3D
:100590003B4B1B6801930026B24658E039490029BD
:1005A0004FD001F0E1F8034600285ED049E028680A
:1005B0000368DB689847C4B228462146FFF7BAFFB4
:1005C000B9F1000F31D0B8F1000F03D0B8F1010F2D
:1005D00017D02AE019F80A30A34209D10AF1010A1A
:1005E00019F80A80D8F1010838BF4FF000081CE064
:1005F00099F800A0A24514BF4FF0000A4FF0010A7D
:1006000013E0BBF1000F10D00D2C09D0009B012B83
:1006100009DD8BF80040013B00930BF1010B04E076
:100620004FF0020801E04FF00208BB5DA34203D186
:100630000136BB5D2BB917E03E78A64214BF0026F9
:100640000126286803689B6898470028AFDC0C499E
:100650000A68019BD21A6B694FF47A7101FB03F3AC
:100660009A429BD3002300E00123184603B0BDE863
:10067000F08F00BFB493000070950000CC93000091
:100680000492FF1F6917000008B5406808B102F026
:1006900099FE08BD10B50446436AB3F1FF3F2FD061
:1006A000A1B11849FFF708FF002384F8203094F81F
:1006B0002400012101F0FEF894F82400012101F04A
:1006C000D5F8114B1A68114B1A6010BD0E4B186803
:1006D0000E4B1B68C01AB0F5FA6F01D201F02EF96B
:1006E00020460B49FFF7E8FE012184F8201094F81A
:1006F000240001F0DFF894F82400002101F0B6F89E
:1007000010BD00BFD09300000492FF1FAC90FF1FEC
:10071000EC93000070B505460C461E4612B10B491D
:10072000FFF7ECFE28462146FFF7E8FE1EB12846FB
:100730000749FFF7E3FE2D68204605F05FFA024601
:100740002B685B6828462146984770BD0C940000D2
:10075000709500002DE9F04387B004463C49FFF74F
:10076000ABFE94F82030002B58D020460121FFF733
:1007700091FF384B1E681D46374F04E01FB100F053
:10078000F3FF00284CD02B689B1BB3F5FA7FF5D301
:10079000304BD3F800909846304F314E14E020464D
:1007A000314601221346FFF7B5FF2E4B009320463A
:1007B00000210A460B46FFF7C5FE0546264B13B13E
:1007C00000F0D2FF70B38DBBD8F80030C9EB030343
:1007D000BB42E4D920462449FFF76EFE052033E0F2
:1007E000204655F8041F42464346FFF793FF009703
:1007F0002046314632463346FFF7A4FE30B9164B49
:1008000013B100F0B1FF78B103201DE04D45E7D1F1
:1008100020461649FFF750FE002015E0012013E0A6
:10082000042011E004200FE004200DE0104B93E8B9
:10083000070006AB03E9070002AD0DF114094FF004
:100840000108084F0026CBE707B0BDE8F08300BFE2
:10085000109400000492FF1F691700007FA9030095
:10086000289400002C940000349400004C94000064
:10087000A893000038B5044690F821307BB90123D5
:1008800080F82130FFF766FF002384F82130054609
:1008900038B120461946FFF7FDFE284638BD09202D
:1008A00038BD38BD30B585B004460D4690F82030CF
:1008B000FBB9134901221346FFF72CFF114B00939C
:1008C000204603A90222104BFFF73CFE30B90F4B24
:1008D00013B100F049FF70B103200FE09DF80C3018
:1008E000303B092B09D803A804F07CFA28600020CB
:1008F00004E00A2002E0042000E0032005B030BD3F
:10090000689400002C9400007094000069170000A7
:1009100010B5044690F8213043B9012380F8213006
:10092000FFF7C0FF002384F8213010BD092010BD5F
:1009300030B589B004460D46104901221346FFF731
:10094000E9FE0F4B0093204602A918220D4BFFF73A
:10095000F9FD30B90C4B13B100F006FF58B103207C
:100960000AE09DF80830303B092B8CBF002301239F
:100970002B70002000E0042009B030BD7894000006
:100980002C94000084940000691700002DE9F041C8
:1009900090B004460F4616461D461E4901221346D6
:1009A000FFF7B8FE1C480090204608A920221B4BE8
:1009B000FFF7C8FD30B91A4B13B100F0D5FE10B3E4
:1009C000032023E0029703960495169B0593179B3B
:1009D0000693189B079301AD002408A8114FA04669
:1009E00003E040460CB908A8FFE7394605F068F96E
:1009F00058B155F8046F04F0F9F930800134062C31
:100A0000EFD1002002E0042000E0032010B0BDE898
:100A1000F08100BF989400002C940000A494000082
:100A200069170000B09400002DE9F04F85B004462E
:100A3000884617466F4D294601221346FFF76AFE86
:100A40000095204600210A460B46FFF77BFD40B982
:100A5000694B23B100F088FE002800F0BB80032022
:100A6000C5E0664B1D6899464FF47A76DFF888A199
:100A70000DE0BAF1000F04D000F076FE002800F07F
:100A8000AB80206803689B689847012807DCD9F889
:100A90000020521B636906FB03F39A42E9D32068E6
:100AA00003689B689847012840F398802068036892
:100AB000DB689847064620680268D268904700EBDA
:100AC000062080B2029020464D49FFF717FD2046D0
:100AD0000299FFF7D9FD20464A49FFF70FFDDDF8DF
:100AE00008B05B46002B41D000260396DFF8089142
:100AF000DFF808A1B9F1000F03D000F035FE00289F
:100B00006ED0206803689B68984798B12068036896
:100B1000DB689847B8F1000F0CD05FB13B683BB180
:100B200088F800003B68013B3B6008F1010801E0E8
:100B300001230393DAF80020521B63694FF47A71A2
:100B400001FB03F39A424DD201365E45D2DB0FE042
:100B5000B9F1000F03D000F007FE002844D0206850
:100B600003689B689847012808DD0FE00023039382
:100B7000DFF888804FF47A76DFF87C90D8F8002090
:100B8000521B636906FB03F39A42E1D320680368B2
:100B90009B689847012829DD20680368DB6898472F
:100BA000054620680268D268904700EB052085B2B0
:100BB00020461549FFF7A2FC20462946FFF764FDB1
:100BC00020461049FFF79AFC0FB1029B3B60039B44
:100BD000D8000CE004200AE0042008E0072006E02A
:100BE000042004E0072002E0042000E0072005B014
:100BF000BDE8F08FB4940000691700000492FF1F55
:100C0000C0940000D0940000D494000038B505468C
:100C10000C46FFF781FC2D68204604F0EFFF0246EA
:100C20002B685B6828462146984738BD38B505468D
:100C30000C46FFF729FD2868214602F0C3FB38BDAA
:100C40002DE9F0438BB004460F4616461D46A149D8
:100C5000FFF732FC94F82020002A40F03781002E64
:100C60005ED0002D5CD020469B4901220023FFF777
:100C700051FD2046A9B2FFF7D9FF2046974900222F
:100C80000123FFF747FD964B0093204600210A46BB
:100C90000B46FFF757FC40B9924B23B100F064FDBF
:100CA000002800F0158103203DE1A94600273D46BC
:100CB000B846206803681B68F15D9847F35D984467
:100CC0001FFA88F801352F464D45F2D12046864956
:100CD000FFF7F2FB20464146FFF70AFC2046834916
:100CE000FFF7EAFB206803681B684FEA1821984762
:100CF000206803681B685FFA88F198477C4B009373
:100D0000204600210A460B46FFF71CFC58BB754BDA
:100D100023B100F029FD002800F00281032002E148
:100D20002046744901220023FFF7F4FC1FB120463E
:100D30003946FFF76BFF2046684900220123FFF781
:100D4000E9FC6D4B0093204600210A460B46FFF755
:100D5000F9FB40B9634B23B100F006FD002800F019
:100D6000E1800320DFE0654B1D681A68521B644B6D
:100D70009A4200F2A580634EDFF8A0815B4F00230A
:100D8000099301238DF81730204609A9FFF78AFD42
:100D9000002840F0918094F82C306BB1A26A099B36
:100DA0009A4209DC0AA9002301F8113D2046FFF709
:100DB000BFFD002840F081809DF81730002B6AD0DD
:100DC000A26A099B9A4266DC0023ADF81830ADF8A0
:100DD0001A30ADF81C30ADF81E30ADF82030ADF84B
:100DE00022300DF11E03009308AB01930DF1220395
:100DF0000293204606A90DF11A0207ABFFF7C6FDC4
:100E0000002843D120464146FFF756FB2046BDF857
:100E10001810FFF76DFB20463946FFF74DFBBDF874
:100E20001830042B1BD820463749FFF745FBBDF887
:100E30002230E361BDF81C30012B0BD1129B4BB16A
:100E400020463249FFF738FB20461299139AFFF7E4
:100E5000EBFD68E0139BD3B10020186063E023F042
:100E6000020292B20C2A01D0102B05D1204628494B
:100E7000FFF722FB062056E020462649FFF71CFB21
:100E800020462169FFF7FEFA70B902E04BE000202E
:100E900049E0042047E020463146FFF70DFB20469D
:100EA000E168FFF7EFFA48B1144B1A68521B144B74
:100EB0009A427FF664AF03E035E034E0042032E08C
:100EC00020461549FFF7F8FA07202CE00A202AE00F
:100ED000042028E0DC940000F4940000C895000091
:100EE000009500006917000008950000709500004B
:100EF00014950000209500002C9400000492FF1F20
:100F0000DF930400949500003C950000509500008C
:100F10006495000074950000B09500002C950000C9
:100F2000042000E004200BB0BDE8F08330B583B0AE
:100F3000044690F8213063B9012380F82130002560
:100F4000009501952A462B46FFF77AFE84F821503A
:100F500000E0092003B030BD0022027042708280A0
:100F6000826002730282426102768283026280F8AA
:100F700024200285C26280F8302080F8382080F872
:100F80003920C26380F8482080F84920C26480F884
:100F9000582080F85920026680F8682080F869207F
:100FA000026780F8782080F87920C0F8802080F8E7
:100FB000882080F88920C0F8902080F8982080F858
:100FC0009920C0F8A02080F8A82080F8A92002214C
:100FD00080F8B91080F8BA2080F8BB2080F8BC20D7
:100FE000C0F8C020C0F8C420C0F8C820C0F8CC2089
:100FF000C0F8D020C0F8D42080F8AA20704700BFE5
:10100000A1F14103DBB2052B02D8A1F137007047F3
:10101000A1F16103DBB2052B94BFA1F15700A1F14F
:101020003000704738B5044605782D2D14BF0025D3
:10103000012505B1441C204603F0D8FE642303FBC0
:1010400000F02278A2F13003092B07D8631C1C465C
:1010500013F8012BA2F130010929F8D92E2A0FD15A
:101060006378A3F13002092A0AD802EB820300EB6D
:101070004300A378A3F13002092A9CBF1346C0188D
:1010800005B1404238BD00BF70B505460E4603F0BD
:10109000ADFE1D4BA3FB00135B09642202FB130092
:1010A00080B21A4A02FB00F033802A78A2F13003A2
:1010B000092B07D86B1C1D4613F8012BA2F1300435
:1010C000092CF8D92E2A13D1691C6B78A3F13002B0
:1010D000092A0DD80D4A0E4DA5FB0242D208303B1D
:1010E00002FB030011F8013FA3F13004092CF3D9EE
:1010F00000EB8000431C074AA2FB03135B087360EC
:101100000023337270BD00BF1F85EB51809698009D
:10111000CDCCCCCCABAAAAAA10B4034653F81C4F32
:101120005968446081601B7A0373034653F8284F63
:101130005968046141611B7A0376044B1B68436361
:101140000123437003705DF8044B70470492FF1F46
:1011500038B5044600234370808803F079FC0546C7
:10116000A06803F071FC0A4903F07AFD01462846A5
:1011700003F0BAFB03F04CF8237B1BB1024601F1EC
:10118000004301E002460B461046194638BD00BF39
:10119000286B6E4E38B5044600234370008A03F076
:1011A00057FC0546606903F04FFC0A4903F058FDFF
:1011B0000146284603F098FB03F02AF8237E1BB172
:1011C000024601F1004301E002460B461046194673
:1011D00038BD00BF286B6E4E83684360034B1B68AD
:1011E000C360012343700370704700BF0492FF1F68
:1011F00083684360034B1B68C36001234370037023
:10120000704700BF0492FF1F10B504460846FFF761
:1012100009FFA06010BD00BF10B50446084603F0EA
:10122000E5FDA06010BD00BFC3688360034B1B6871
:101230004360012343700370704700BF0492FF1F97
:1012400010B504460846FFF7EDFEE06010BD00BF94
:10125000C3688360034B1B684360012343700370C2
:10126000704700BF0492FF1F10B50446084603F004
:10127000BDFDE06010BD00BF10B504461030214632
:1012800004F05EFC044B1B682362012384F82530C4
:1012900084F8243010BD00BF0492FF1F08B510224F
:1012A00004F0DCFC08BD00BFF8B5044690F8A96066
:1012B000002E6AD094F8AA10FFF7A2FE0546204639
:1012C00094F8AB10FFF79CFE00EB051094F8A830E3
:1012D000C5B2AB4252D1D4F8D4300133C4F8D430C3
:1012E00094F8BC3023B1D4F8CC300133C4F8CC30FE
:1012F00094F8B930C3B1012B2CD104F13800FFF7B9
:101300006BFF04F14800FFF773FF94F8BC300BB398
:101310002046FFF701FF04F15800FFF785FF04F1B5
:101320006800FFF781FF15E004F14800FFF760FF58
:1013300094F8BC3033B12046FFF7EEFE04F178009C
:10134000FFF772FF04F18800FFF782FF04F19800B5
:10135000FFF76AFFD4F8C4503DB9E0E02846FFF734
:101360008BFF2D6B002D00F0DA80D4F8C430A86A12
:10137000996A04F0D7FA0028F0D0D0E0D4F8D03041
:101380000133C4F8D0300026C9E090F8BA30002B01
:1013900036D100F1AA073846624904F0C3FA18B9F9
:1013A000012384F8B9300BE038465F4904F0BAFAFB
:1013B00018B9002384F8B93002E0022384F8B93068
:1013C000D4F8C050C4F8C45035B9A8E02D6BC4F8A7
:1013D000C450002D00F0A380A86A394604F0A2FA98
:1013E0000028F3DB002D00F09A80A86A394604F04B
:1013F00099FA002840F393800023C4F8C4308EE0AB
:1014000090F8B920022A70D090F8AA1000296CD068
:1014100043EA4213013B282B67D8DFE803F015228B
:10142000282F354E555B616666666666666666663B
:101430006666666666666666666666666666151BE8
:1014400022282F353C424800483004F1AA01FFF71A
:10145000DBFE4AE0412914BF0021012180F8BC10C5
:1014600043E0AA3004F11C01FFF70EFE3DE05329D2
:1014700014BF0021012180F8241036E0AA3004F1C5
:101480002801FFF701FE30E0572914BF0021012198
:1014900080F8301029E0583004F1AA01FFF7D0FE9F
:1014A00023E0683004F1AA01FFF7CAFE1DE03830DE
:1014B00004F1AA01FFF7B0FE17E0302994BF002124
:1014C000012180F8BC1010E0883004F1AA01FFF778
:1014D000CBFE0AE0983004F1AA01FFF7B1FE04E068
:1014E000783004F1AA01FFF7ABFED4F8C450B5B1CF
:1014F00004F1AA0707E09A4203D128463946FFF7CC
:10150000CDFE2D6B5DB1D4F8C430A86A996A04F0A1
:1015100009FA20B9EA6A94F8BA309A42EBDD30460B
:10152000F8BD00BFDC950000E495000038B5044626
:101530000D46D0F8C8300133C0F8C830A1F10A0315
:10154000222B44D8DFE803F01843431843434343B6
:10155000434343434343434343434343434343435B
:1015600043433443434343431843120090F8A830A5
:1015700083F02C0380F8A83094F8BB300E2B07D8EA
:101580002344002283F8AA202046FFF78DFE00E0C6
:10159000002094F8BA30013384F8BA30002384F87C
:1015A000BB302A2D14BF0025012584F8A95038BD71
:1015B000002084F8BB0084F8BA0084F8A800022355
:1015C00084F8B93084F8A90084F8BC0038BD90F8DC
:1015D000BB300D2B05D85A1C80F8BB20034483F880
:1015E000AA1094F8A90028B994F8A8305D4084F8AE
:1015F000A85038BD002038BD38B50D20012100F0BD
:1016000059F94FF47A7000F099F942F2107000F035
:1016100003FA4FF47A7000F091F944F6206000F07C
:1016200003FD4FF47A7000F089F90B4C23685B6876
:1016300020460A4905229847204601F077FE084DCA
:1016400028462146FEF71CFF28460121FEF70AFF27
:101650002846FFF70FF938BD1494FF1F2C960000A1
:10166000D091FF1F70B582B0324C23685B68204672
:1016700031490A229847204601F058FE2F48304948
:10168000FFF746F92F4B186070B123685B6820465E
:101690002D491C22984720462A4B196801F092FEDA
:1016A000204601F043FE42E0284C294B18682949A6
:1016B00003F022FA03F070FB0646274B1868254911
:1016C00003F01AFA03F068FB0546244B186803F090
:1016D00063FB00902046224932462B4604F0FCF87A
:1016E000204604F08BFA0246124D2B685B682846B0
:1016F00021469847284601F019FE10482146FFF779
:1017000015FC104B186070B12B685B6828461549B2
:101710001A22984728460B4B196801F053FE2846B9
:1017200001F004FE03E00022084B1A70FEE702B04D
:1017300070BD00BF1494FF1F34960000D091FF1FAE
:101740006087FF1F0092FF1F40960000BC90FF1FA4
:10175000B490FF1F00247449B890FF1FB090FF1F82
:10176000609600006896000010B51C4B19681C4B71
:10177000A3FB01210D20C1F3801100F077F800F0E8
:101780002FFE002805DD00F03BFEC1B21548FFF733
:10179000CDFE144B1B7873B1124C2046FFF7D8FCDA
:1017A00003F04CF8104B18602046FFF7F3FC03F0F1
:1017B00045F80E4B18600B4B93F8783063B1094B2A
:1017C000002283F87920D3F8800003F041F908491A
:1017D00003F046FA074B1860012010BD0492FF1F6A
:1017E000D34D6210F890FF1FB490FF1FB890FF1FF9
:1017F0000000C842B090FF1F08B5114B114A1A6093
:1018000000225A609A600A21D9601E21196159612B
:101810004FF4967199614FF0FF31D961012183F83E
:10182000201083F821200620586202229A6283F851
:101830002C1000F03FF80448FFF78EFB08BD00BFF6
:10184000D091FF1F0494FF1FF890FF1F044B00224C
:101850001A6004490A60044A106010221A60704736
:1018600014D0034004D0034000D0034021281ED8E8
:101870000F4B53F8303093F8802212F0FF0F08D04E
:1018800019B1012283F880207047012283F80021DA
:101890007047074B03EBC000436821B11A6842F060
:1018A00003021A6070471A6822F002021A60704739
:1018B0008496000021281CD80E4B03EBC0035B6804
:1018C000012908D10B4A52F8302082F880124FF4D7
:1018D000A2721A607047074A52F83020002082F83E
:1018E000800219B94FF480721A60704740F20312F7
:1018F0001A6070478496000072B60C4B1B680C4A45
:1019000012680C49096862B611F0806F02D0322B60
:1019100088BF0132C3F5BB33FF330749A1FB030383
:101920009B094FF47A7000FB0230704718E000E02A
:101930000492FF1F04ED00E0ABAAAAAA38B5054641
:10194000FFF7DAFF044665B1FFF7D6FF001BB0F5DD
:101950007A7F03D3013D04D004F57A7401F068FD69
:10196000F2E738BD10B5254B4FF400021A604FF076
:1019700080721A604FF000721A604FF080621A6035
:101980004FF000621A6000201D4B18604BF6FF718B
:101990000433196028231B4A13600832136008328D
:1019A0001360083213600832136008321360083283
:1019B0001360083213600922134C226004F580542E
:1019C000043420600434216004342360083423602C
:1019D000143C226004F5FE24043420600B480160AE
:1019E0000B490B6008310B600A4B1A6001F0DCFDFB
:1019F000FA20FFF7A3FF01F033FA10BD08E100E081
:101A0000048003400C8003400080034008800B40AA
:101A10000C800B4000800B40194B1A6842F4806226
:101A20001A600023174A1370174A1370174A13706D
:101A3000174A1370174A137040F21332164B1A608C
:101A40004FF4517204331A60C0F34432134B1A70CE
:101A5000C0F347125A7000F01F00987204229A7067
:101A60000221D9745A7588221A743C22DA704022F5
:101A70000B4B1A704FF40052A3F229331A607047CF
:101A8000348004409092FF1F0D92FF1F9892FF1F19
:101A90009192FF1F0C92FF1F40A0044000A006403F
:101AA0002DE400E0164B9B7803F0EC0300F00302FA
:101AB000134310F0040F18BF43F01003104A937043
:101AC00000F00F03042B04D11346927942F0400238
:101AD0009A710B4B5A7902F0EF0210F0100F18BFF9
:101AE00042F01002064B5A719B7903F0EF0310F09D
:101AF000200F18BF43F01003014A9371704700BFD5
:101B000000A0064010B5144B1B6813F4806F21D061
:101B1000124B1B7813F0FF0F06D0104C01F088FC1D
:101B2000237813F0FF0FF9D14FF400520C4B1A60D9
:101B300000230C4AD37040F203120B490A600431AF
:101B40000A600A4A13700A4A13700A4B1B680BB1E9
:101B500001221A7010BD00BF348004400C92FF1F98
:101B600084E100E000A0064040A004409092FF1FE6
:101B70000D92FF1F0892FF1F10B50446094A137803
:101B800013F0FF0FFBD120460121FFF793FE204603
:101B90000021FFF76BFE044B53F83420034B1A600F
:101BA00010BD00BF0C92FF1F849600009492FF1F8F
:101BB00010B50D4B1B6813F4806F12D021280CD880
:101BC0000A4C0B4B53F8303023600121FFF772FEB3
:101BD000236800221A70012010BD0020034B1860FA
:101BE00010BD002010BD00BF348004400892FF1FCC
:101BF00084960000114B1B6813F4806F1BD01228D1
:101C000004D140F202320E4B1A600DE0142804D1C8
:101C100040F202320B4B1A6006E00B4B5A7B02F08B
:101C2000FE025A7300207047074B5A7B42F00102B4
:101C30005A73012070470020704700BF3480044071
:101C40000CA0044014C0044000A006402DE9F0415F
:101C500007461F4B1B6813F4806F37D01D4B1B6862
:101C60000BB101221A701C4B1C780134402C28BF88
:101C700000241A4D1A4EDFF86C8017E001F058FD71
:101C800040280FDC337913F0800F0FD02B7801330D
:101C9000402B28BF002318F80320D2B2F271DBB228
:101CA0002B7003E0FF2801DD01F0C2FB2B78DBB2D3
:101CB0009C42E3D0FFB20B4B1F5501220A4B1A7016
:101CC000E4B2054B1C70BC22054BDA70BDE8F08114
:101CD000348004409492FF1F9892FF1F9192FF1F3F
:101CE00000A006401092FF1F0C92FF1F2DE9F84F35
:101CF0000746284B1B6813F4806F49D0264B1B689E
:101D00000BB101221A7007EB010B5F453DD2DFF8E2
:101D10009890224EDFF88C80DFF890A099F8004070
:101D20000134402C28BF00243578EDB2A54220D1E3
:101D3000BC2388F8033001F0FBFC402811DC98F844
:101D4000043013F0800F10D033780133402B28BFBC
:101D500000231AF80320D2B288F80720DBB23370D0
:101D600003E0FF2801DD01F063FB3378DBB29D4225
:101D7000E1D017F8013B0AF804300122084B1A7031
:101D8000E4B289F800405F45C8D1BC22054BDA7047
:101D9000BDE8F88F348004409492FF1F9192FF1F9A
:101DA0000C92FF1F00A006409892FF1F1092FF1F89
:101DB00010B5064B1B7813F0FF0F06D0034C01F053
:101DC00037FB237813F0FF0FF9D110BD0C92FF1FE2
:101DD000064B1B78DBB2064A1278D2B293422CBF74
:101DE0003F3202F1FF32D01A704700BF9892FF1FB6
:101DF0009192FF1F054B1878C0B2054B1B78DBB2E0
:101E0000984238BF4030C01A704700BF9092FF1F01
:101E10000D92FF1F10B4184B1A78D2B2174B1B78D3
:101E2000DBB29A4218D001333F2B18D81449C85C52
:101E3000C0B2DCB211490C7012490968C9B19A42AA
:101E400003D300E00023D31A01E04032D31A1A2B47
:101E50000FDC00230B700CE04FF0FF3009E0084B63
:101E60001878C0B20021054B1970064B196800297B
:101E7000E8D15DF8044B70479092FF1F0D92FF1F51
:101E80005092FF1F0892FF1F094B1A78D2B2094BDC
:101E90001B78DBB29A4207D00133402B28BF0023C6
:101EA000054AD05CC0B270474FF0FF30704700BFAA
:101EB0009092FF1F0D92FF1F5092FF1F0D4B1B684A
:101EC00013F4806F14D00C4BDA7802F0CB02DA7086
:101ED00040225A74DA7842F03402DA70074B1A78EA
:101EE000D2B2074B1A70074B1B680BB100221A7055
:101EF000704700BF3480044000A006400D92FF1FD1
:101F00009092FF1F0892FF1F70B43D4B1B7913F096
:101F1000300F33D072B63A4B9B7D03F0FF022BB9E2
:101F2000374BDA7940225A7462B627E062B6354BF5
:101F30001978C9B2344B1C78E4B2314D334EEB7989
:101F4000D8B24B1C402B28BF0023A3421CBFF05427
:101F50001946531E13F0FF02F1D1CAB2294B1A7071
:101F60002B4B1B6853B1A1422EBFC4EB0101C4F13E
:101F7000400409192729C4BF01221A70204BDA78BE
:101F8000D2B212F0800F27D01B7913F0800F23D02C
:101F9000204B1C78E4B2204B1B78DBB29C4210D063
:101FA00017491E4D01E0A3420BD00133402B28BF3F
:101FB00000230879E85CC0B2C871087DC0B2072868
:101FC000F1D9DBB214490B700D4B1B7913F0800F64
:101FD00002D07C210A4BD97012F0400F0ED0084B72
:101FE0001B7913F0400F09D000220D4B1A700D4BD6
:101FF0001B6803B11A703C22014BDA7070BC704749
:1020000000A006409092FF1F0D92FF1F5092FF1FED
:102010000892FF1F9892FF1F9192FF1F1092FF1FBF
:102020000C92FF1F9492FF1F194B1A6842F4006232
:102030001A600023174A1370174A1370174A137057
:10204000174A1370174A137040F21332164B1A6076
:102050004FF4517204331A60C0F34432134B1A70B8
:10206000C0F347125A7000F01F00987204229A7051
:102070000221D9745A7588221A743C22DA704022DF
:102080000B4B1A704FF40042A3F22B331A607047C7
:10209000348004400493FF1F9A92FF1F0C93FF1F8C
:1020A0000593FF1F9992FF1F0CB0044000B006403B
:1020B0002FE400E0164B9B7803F0EC0300F00302E2
:1020C000134310F0040F18BF43F01003104A93702D
:1020D00000F00F03042B04D11346927942F0400222
:1020E0009A710B4B5A7902F0EF0210F0100F18BFE3
:1020F00042F01002064B5A719B7903F0EF0310F087
:10210000200F18BF43F01003014A9371704700BFBE
:1021100000B0064010B5114B1B6813F4006F1CD0C3
:102120000F4B1B7813F0FF0F06D00D4C01F080F918
:10213000237813F0FF0FF9D14FF40042094B1A60D6
:102140000023094AD37040F2031208490A6004319F
:102150000A60074A1370074A137010BD34800440A8
:102160009992FF1F84E100E000B006400CB00440EB
:102170000493FF1F9A92FF1F10B50446094A137873
:1021800013F0FF0FFBD120460121FFF793FB204600
:102190000021FFF76BFB044B53F83420034B1A600C
:1021A00010BD00BF9992FF1F849600000893FF1F87
:1021B0000D4B1B6813F4006F13D016280AD14FF48F
:1021C00040720A4B1A600A4B5A7B42F008025A735B
:1021D00001207047064B5A7B02F0F7025A73002029
:1021E00070470020704700BF3480044004B00440B2
:1021F00000B006400D4B1B6813F4006F13D0172876
:102200000AD14FF440720A4B1A600A4B5A7B42F0D3
:1022100001025A7301207047064B5A7B02F0FE02FE
:102220005A73002070470020704700BF348004407C
:1022300008B0044000B006402DE9F04107461F4BAE
:102240001B6813F4006F37D01D4B1B680BB10122C4
:102250001A701C4B1C780134282C28BF00241A4DFE
:102260001A4EDFF86C8017E001F062FA40280FDCAC
:10227000337913F0800F0FD02B780133282B28BF30
:10228000002318F80320D2B2F271DBB22B7003E006
:10229000FF2801DD01F0CCF82B78DBB29C42E3D0C3
:1022A000FFB20B4B1F5501220A4B1A70E4B2054BCB
:1022B0001C70BC22054BDA70BDE8F081348004400C
:1022C0000893FF1F0C93FF1F0593FF1F00B00640EC
:1022D0009C92FF1F9992FF1F2DE9F84F0746284B4C
:1022E0001B6813F4006F49D0264B1B680BB1012209
:1022F0001A7007EB010B5F453DD2DFF89890224E34
:10230000DFF88C80DFF890A099F800400134282C89
:1023100028BF00243578EDB2A54220D1BC2388F82F
:10232000033001F005FA402811DC98F8043013F06E
:10233000800F10D033780133282B28BF00231AF8E0
:102340000320D2B288F80720DBB2337003E0FF2805
:1023500001DD01F06DF83378DBB29D42E1D017F872
:10236000013B0AF804300122084B1A70E4B289F8E4
:1023700000405F45C8D1BC22054BDA70BDE8F88F3C
:10238000348004400893FF1F0593FF1F9992FF1F9D
:1023900000B006400C93FF1F9C92FF1F10B5064B28
:1023A0001B7813F0FF0F06D0034C01F041F823789F
:1023B00013F0FF0FF9D110BD9992FF1F064B1B7848
:1023C000DBB2064A1278D2B293422CBF273202F116
:1023D000FF32D01A704700BF0C93FF1F0593FF1FF9
:1023E000054B1878C0B2054B1B78DBB2984238BF5A
:1023F0004030C01A704700BF0493FF1F9A92FF1F1E
:102400000A4B1A78D2B20A4B1B78DBB29A4209D037
:102410000133402B28BF0023064AD05CDBB2044ABC
:10242000137070474FF0FF30704700BF0493FF1FD9
:102430009A92FF1FC492FF1F094B1A78D2B2094B20
:102440001B78DBB29A4207D00133402B28BF002310
:10245000054AD05CC0B270474FF0FF30704700BFF4
:102460000493FF1F9A92FF1FC492FF1F0A4B1B6821
:1024700013F4006F0FD0094BDA7802F0CB02DA7058
:1024800040225A74DA7842F03402DA70044B1A7837
:10249000D2B2044B1A7070473480044000B006403A
:1024A0009A92FF1F0493FF1F70B4364B1B7913F0F1
:1024B000300F25D072B6334B9B7D03F0FF022BB952
:1024C000304BDA7940225A7462B619E062B62E4B6C
:1024D0001978C9B22D4B1D78EDB22A4C2C4EE379F8
:1024E000D8B24B1C402B28BF0023AB421CBFF0547A
:1024F0001946531E13F0FF02F1D1C9B2224B1970D5
:10250000204BDA78D2B212F0800F27D01B7913F06B
:10251000800F23D01F4B1C78E4B21F4B1B78DBB21B
:102520009C4210D017491D4D01E0A3420BD001334E
:10253000282B28BF00230879E85CC0B2C871087D49
:10254000C0B20728F1D9DBB213490B700D4B1B79D0
:1025500013F0800F02D07C210A4BD97012F0400F8B
:102560000ED0084B1B7913F0400F09D000220C4B02
:102570001A700C4B1B6803B11A703C22014BDA70C5
:1025800070BC704700B006400493FF1F9A92FF1F73
:10259000C492FF1F0C93FF1F0593FF1F9C92FF1F08
:1025A0009992FF1F0893FF1F30B40E4B1B7843F026
:1025B00002020D4C04EBC20460600C480078002855
:1025C0000CBF8824C82444EA0141074D45F8321065
:1025D00080F00100054A107083F00103014A137076
:1025E00030BC70477893FF1F0080FF1FF193FF1FDF
:1025F00010B4431E032B11D872B60A4A52F82300B6
:1026000050B14268074941F82320074A32F8134085
:102610000188611A22F8131062B600E000205DF80C
:10262000044B70476893FF1FF494FF1F0138032881
:102630000DD872B6074B53F820302BB10020013073
:102640005B68002BFBD100E0002062B670470020E1
:10265000704700BFBC93FF1F38B572B601231B49FA
:102660001B4C5A1812F8012C12F0080F24D09A00B3
:1026700054F832506DB9164B03EBC2010830486074
:10268000144943F83210144B1A78013A1A7062B6A2
:1026900038BD42F0010254F832506DB90C4B03EBD7
:1026A000C201083048600D4943F832100A4B1A78CD
:1026B000013A1A7062B638BD0133052BD1D162B62A
:1026C0000022054B1A7000F02FFC38BD189800004E
:1026D0000080FF1F88004000E693FF1FC8004000F5
:1026E00010B4431E032B37D8400140F010001C4AA1
:1026F000104472B61B4AD25C032A09D8DFE802F004
:1027000019021B050830022216E00830042213E0EB
:10271000154A52F823201AB9134A42F8231003E04D
:10272000124A52F823205160104A42F8231062B630
:1027300012E0032200E005220A4CE25401F10803F2
:10274000436000F00803002B0CBF8823C8230A88CD
:1027500043EA0243036062B65DF8044B704700BF72
:102760000080FF1F2493FF1FBC93FF1FCC93FF1F0C
:102770002DE9F84FA34CDFF8E092DFF8E0A2DFF894
:10278000E0B22578EDB215F0040F1DD09E4B1B78FA
:1027900013F0FF0F16D09D4B1B7803F0FF022BB1F7
:1027A000531EDBB2994A137003B900BE984B1B78D5
:1027B00003F0FF0233B1531EDBB2954A13700BB91D
:1027C00000F0F2FC0423237015F0080F00F0DC8207
:1027D00099F80030DBB21D0940F01D828D4D9E0836
:1027E00005EBC6035A6855F83630C3F38303013B43
:1027F0000C2B00F20C82DFE813F0C701C7010A02BC
:102800000A020A020A020A020A02E4010A020A028F
:102810000A020D00804913680B6052684A607F4AC3
:1028200045F8362000227E490A607A490A618A61A9
:1028300001217C4A11709BB240F28162934218D808
:10284000B3F5D06F2ED2B3F5817F00F01E8106D88C
:10285000802B00F0C980822B00F0CC8062E140F236
:102860000232934200F02681B3F5A06F00F05E8142
:1028700058E142F22102934200F0828107D8B3F579
:10288000086F00F0AB80B3F5106F11D04AE142F24F
:102890002122934200F0418142F22132934200F022
:1028A00045813FE1604B5D68002D40F0188130E1CB
:1028B000594B9A78544B1A70564D05F180062B6A85
:1028C00013F0800F03D0686A083800F02DFB08353C
:1028D000B542F4D1DFF88C8100263746534AB05810
:1028E00028B1456800F020FB0DB12846F9E7002328
:1028F0004E4973504E4AB3504E4BF05828B145687C
:1029000000F012FB0DB12846F9E700234949735046
:10291000494AB35028F8023F484BFB5C023B032B6B
:102920000AD8DFE803F0020602060022434BDA551C
:1029300002E00122414BDA5501370436102ECDD189
:1029400000223F4B1A7001253E4EDFF81C81314FAB
:1029500005EB080313F8013C06F8043B13F0080FDD
:102960002DD000F0C1FA48B1A90007EB451200F1E3
:1029700008035360344A47F8312007E0AB000022D7
:1029800047F833202E4B1A7801321A7000F0ACFA57
:1029900058B1AB0043F0010307EBC30100F108029B
:1029A0004A601E4A47F8332009E0AB0043F00103B8
:1029B000002247F83320224B1A7801321A70AA00FD
:1029C00042F00201002347F8313042F0030247F899
:1029D000323001351D4B9E42BAD116E20A4B1B78AC
:1029E0001B4D2B700127A6E0194D00232B706B7037
:1029F0000227A0E0084B9B88042B37D90F22154BE8
:102A00001A70BDE080200740F093FF1F7993FF1FED
:102A1000F293FF1F0080FF1FDC93FF1FC8004000E0
:102A20001093FF1FF193FF1F1C9800006893FF1F76
:102A30001493FF1FBC93FF1FCC93FF1F2493FF1F12
:102A4000E693FF1FC420074088004000D4200740C1
:102A5000E893FF1FC02007409020074094200740C4
:102A600098200740F294FF1F189800009E4A00210A
:102A7000117051709D4A12F8233013F0020F58D094
:102A8000994D01232B70022755E0994B9B8803F049
:102A90007F03042B02DC964A52881AB10F22934B13
:102AA0001A706DE0914A12F8231021F0020102F829
:102AB0002310AAE18E4B9B8803F07F03042B02DCDA
:102AC0008B4A52881AB10F22884B1A7058E0874AF5
:102AD00012F8231041F0020102F8231095E1844B13
:102AE0005E889F88834BA3F10C02114633F80C0CCF
:102AF000B04209D133F80A0CB84205D1360A032E88
:102B00000CBF2F78178916E00D690C330C32002D9D
:102B1000EBD10F22754B1A7032E0754B9A78764BD9
:102B20001A7072E10F22714B1A7029E000273D469E
:102B300001E002276C4D6E4BDB889F4228BF1F4689
:102B4000402F34BF3E46402628463146FFF72CFD35
:102B50003544BF1B03D13F2E00F25C8110E0402FB3
:102B600034BF3E46402628463146FFF71DFD35441A
:102B7000BF1B01D13F2E03D9604B1D60604B1F80EE
:102B800001238AF8003042E0594B198842F22103B0
:102B9000994212D15B4BD81D12F8011B03F8011F9B
:102BA0008342F9D1584B1B68862B02D10F22574B19
:102BB0001A7000200146FFF7F7FC554B45F83630F8
:102BC00025E04E4B1E68BEB14D4FB7F80080B8F1FE
:102BD000400F34BF4546402530462946FFF7E4FC08
:102BE000C5EB08039BB23B800BB9402D01D13544A6
:102BF00000E00025414B1D603D4B1B88B3F5A06FE5
:102C000005D13B4B00225A709B788BF80030012392
:102C10008AF80030B5E03F4E9F0806EBC708D8F8A9
:102C20000420A2F10800013DEDB213F0080F47D0D7
:102C300000F07AF9384B53F825304BB35A683649CF
:102C400041F8252003F10802C8F80420334A525DF8
:102C5000032A12D8DFE802F002060A0E03212F4AE7
:102C600051550AE002212D4A515506E005212B4A13
:102C7000515502E00421294A515518F0080F0CBFA4
:102C80008822C8221B8842EA034346F8373078E09E
:102C9000224B5B5D032B0BD8DFE803F07373020656
:102CA00000221E4B5A556CE001221C4B5A5568E01D
:102CB00018F0080F0CBF02220322184B5A5560E08F
:102CC00056F837301B0C22F8083C002B51D000235B
:102CD00022F8063C42F8043C114B53F825300BBB5C
:102CE0000F4B43F8250021E0E893FF1FC020074069
:102CF000DC93FF1F289800000094FF1F1093FF1F14
:102D0000E493FF1FFB94FF1FFC94FF1F7993FF1FA9
:102D1000C80040000080FF1FBC93FF1F2493FF1FCB
:102D20006893FF1F3F4B53F8253058603D4B43F8E5
:102D300025003D4B33F8151032F8082C0A4423F8CF
:102D4000152000F0D1F860B100F10803C8F8043094
:102D500018F0080F354B364A08BF134646F837308F
:102D60000FE0002346F83730324B1A7801321A70E0
:102D700007E018F0080F2D4B2D4A08BF134646F800
:102D8000373008232370FCE415F0010F22D02A49C4
:102D900002230B700022294B1A70294B244818601B
:102DA000284C5C6098602848D8601A619A610D20B0
:102DB000264B1870FF23264803700838037018301C
:102DC0000270244A13709F22234B1A7001230B7048
:102DD000BDE8F88F15F0800F05D00D221B4B1A703F
:102DE0008022403B1A7015F0020F06D0184B1A785B
:102DF000D2B21A700222083B1A7015F0100F0ED0D2
:102E00001022164B1A70BDE8F88F00200146FFF71C
:102E1000CBFBB5E628460021FFF7C6FBB0E6BDE8D0
:102E2000F88F00BF1493FF1FF494FF1FC8004000E9
:102E300088004000E693FF1F942007407893FF1F0F
:102E40000080FF1F2893FF1F7C93FF1FC0200740B7
:102E5000882007408C2007408420074080200740BE
:102E600008B500F0D9FE00231B491A465A50C8186D
:102E700042600833882BF9D1184B1A6842F480223B
:102E80001A60154BC3F30721154A1170C3F30741AC
:102E9000143211701B0E04321370FF23343A137076
:102EA00008321370783A13700123843213700021B2
:102EB0006C3211707C3A137070220A4B1A704FF406
:102EC0000072A3F241331A60102203F1C04303F5EC
:102ED000C8231A7008BD00BF0080FF1F3480044063
:102EE0009C20074049E400E072B60D4B1A68B2FA24
:102EF00082F30B2B02D962B6002070474FF00041DD
:102F0000D94022EA010206490A6062B6054903EB8C
:102F1000C303DB00C8180022CA504260704700BFDC
:102F20006487FF1F0084FF1F08B50F4BC31A0F4AA9
:102F3000A2FB03131B090B2B14D80D4A12783AB1CC
:102F40000C4A127812F0FF0F02D0FFF785FB08BD84
:102F500072B6094A4FF0004121FA03F31168194390
:102F6000116062B608BD00BF0084FF1F398EE338D0
:102F7000E693FF1FF093FF1F6487FF1F10B5134BED
:102F80001B6853B9124B1B7813F0FF0F18D00320A6
:102F9000FFF72EFB0D4B1860A8B10C4B1868438847
:102FA0005A1C03441C7A03889A4206D3FFF7BCFFDD
:102FB0000022064B1A60204610BD4280204610BDFC
:102FC0004FF0FF3010BD4FF0FF3010BDFC93FF1FDE
:102FD000F093FF1F08B50D4B1B6883B90C4B1B7892
:102FE00013F0FF0F08D00320FFF702FB074B186018
:102FF00028B94FF0FF3008BD4FF0FF3008BD034B3C
:103000001B685A881344187A08BD00BFFC93FF1F41
:10301000F093FF1F044B9888044B1B681BB11A8860
:103020005B88D31A18447047F494FF1FFC93FF1F6A
:103030002DE9F04704460122374B1A700E4600294D
:1030400064D0DFF8E080DFF8E0909A46334FD8F89C
:10305000003083BB99F8003013F0FF0F06D1002237
:103060002D4B1A704FF0FF30BDE8F0874AF2F9257A
:103070000420FFF7DBFA07280AD801238AF800307A
:10308000FFF732FFC8F80000A8B900238AF8003023
:10309000013D01D03B7833B10122204B1A704FF033
:1030A000FF30BDE8F08700F0C3F999F8003013F065
:1030B000FF0FDDD1D3E700233B70D8F800104A881A
:1030C000C2F14005AE4238BF354602F108030B4459
:1030D0002A444A80761B3DB1254414F8012B03F89D
:1030E000012BAC42F9D100E025464B883F2B07D994
:1030F00040230B800420FFF7F3FA0023C8F80030C8
:103100000522074B1A700EB12C46A0E70020024B97
:103110001870BDE8F08700BFF393FF1FF893FF1FFF
:10312000F293FF1FF493FF1FF093FF1F00B583B0CE
:1031300002AB03F8010D18460121FFF779FF03B038
:103140005DF804FB10B5144B1B7813F0FF0F21D072
:103150000122124B1A70124B196851B10024114B05
:103160001C704B880B800420FFF7BAFA0C4B1C60D4
:103170000DE0FFF7B9FE014630B10022094B1A708D
:103180000420FFF7ADFA02E00122064B1A7000227C
:10319000024B1A7010BD00BFF093FF1FF393FF1F87
:1031A000F493FF1FF293FF1F08B50E4B1B7813F02B
:1031B000FF0F16D10C4B196841B14B880B800420CE
:1031C000FFF78EFA0022084B1A6008BDFFF78CFE4D
:1031D000014618B10420FFF783FA08BD0122034B12
:1031E0001A7008BDF393FF1FF493FF1FF293FF1FA4
:1031F00008B503681B68C9B2984708BD08B50368DD
:103200001B68C9B2984708BD08B503681B68C9B2F6
:10321000984708BD08B503681B68C9B2984708BD40
:1032200008B54B0803F1376000F5D830B0FBF1F07A
:10323000FEF7F2FB08BD00BF10B514464B0803F1C2
:10324000376000F5D830B0FBF1F0FEF7E5FB204623
:10325000FEF728FC10BD00BF08B5FEF753FC08BD03
:1032600008B50846FEF788FC08BD00BF08B508464B
:10327000FEF79EFC003018BF012008BD08B50846C7
:10328000FEF7B8FC003018BF012008BD08B5FEF7F6
:10329000B1FD08BD08B5FEF7F7FD08BD08B5FEF79E
:1032A000B9FD08BD08B5FEF783FD08BD08B5FEF7FA
:1032B00005FE08BD08B5FEF78BFD08BD08B508463C
:1032C000FEF7C4FC012008BD08B50846FEF7BEFCA9
:1032D000012008BD10B5144608461146FEF706FD4C
:1032E000204610BD38B50D46084602F087FC04465E
:1032F00028462146FEF7FAFC204638BD704700BF3D
:10330000044B00221A714FF47A7199601A73024AC1
:103310001A6070470494FF1FA097000008B5FEF7DD
:103320006BF9FEF79FF900F083F8FAE700B583B078
:10333000054B1B88ADF8043003685B6801A90222C5
:10334000984703B05DF804FBF0970000F0B58BB030
:10335000164622B903681B68C9B298472FE0012AB4
:1033600008BF0A2621B930228DF82520212417E034
:1033700021243746B1FBF6F506FB1515EDB22246C2
:10338000092D94BF30353735EDB20DF1280E72445A
:1033900002F8245CB1FBF7F111B1013CE4B2E9E7BA
:1033A00033B1013CE4B20AAB23442D2203F8242CB0
:1033B00003685B6801A92144C4F1220298470BB05D
:1033C000F0BD00BF08B50029BABF49422D23002334
:1033D0000A22FFF7BBFF08BD08B5FFF71BFE08BDBB
:1033E00008B5FFF7CBFD08BD08B5FFF7F3FD08BD35
:1033F00008B5FFF7A7FE08BD08B50846FFF796FE1B
:1034000008BD00BF08B508461146FFF711FE08BD0C
:10341000704700BF044B00221A714FF47A71996013
:103420001A73024A1A6070471494FF1F0098000034
:1034300008B50F4B1B78CBB901220D4B1A70FFF763
:10344000E9FD08B1FFF7E4FFFEF7D4FC08B1FFF790
:1034500055FFFEF7C5FF08B100F0A8FC00F02CFBFB
:1034600008B100F039FD0022014B1A7008BD00BF01
:103470002494FF1F844641EA000313F003036DD137
:10348000403A41D351F8043B40F8043B51F8043B27
:1034900040F8043B51F8043B40F8043B51F8043B2E
:1034A00040F8043B51F8043B40F8043B51F8043B1E
:1034B00040F8043B51F8043B40F8043B51F8043B0E
:1034C00040F8043B51F8043B40F8043B51F8043BFE
:1034D00040F8043B51F8043B40F8043B51F8043BEE
:1034E00040F8043B51F8043B40F8043B51F8043BDE
:1034F00040F8043B51F8043B40F8043B51F8043BCE
:1035000040F8043B403ABDD2303211D351F8043B6D
:1035100040F8043B51F8043B40F8043B51F8043BAD
:1035200040F8043B51F8043B40F8043B103AEDD21C
:103530000C3205D351F8043B40F8043B043AF9D26D
:10354000043208D0D2071CBF11F8013B00F8013B40
:1035500001D30B8803806046704700BF082A13D34D
:103560008B078DD010F003038AD0C3F10403D21A65
:10357000DB071CBF11F8013B00F8013B80D331F899
:10358000023B20F8023B7BE7043AD9D3013A11F819
:10359000013B00F8013BF9D20B7803704B78437084
:1035A0008B7883706046704760223A4B1A70E12234
:1035B00001331A70384B1B78082B10D1012203F10C
:1035C000804303F56C331A60132334490B6001F513
:1035D000FF2101F2FC710A60314A13601FE00A2BDF
:1035E0000DD139222F4B1A6013232C490B6001F5A2
:1035F000FF2101F2FC710A60294A13600FE00C2BD5
:103600000CBF35223D22274B1A60122323490B6041
:1036100001F5FF2101F2FC710A60214A1360224B7F
:103620001B7833B10123214A136002F50022136095
:1036300005E000231D4A136002F5002213601C4BB5
:103640001B78012B06D880231A4A136002F500224A
:1036500013601AE0042B06D88423164A136002F57F
:103660000022136011E0082B06D88523114A13604D
:1036700002F50022136008E0102B94BF86238723F5
:103680000C4A136002F50022136001220A4B1A70E3
:10369000704700BF004007406887FF1F0CB0034021
:1036A0000CB00B4008B003402694FF1F20B003402D
:1036B0006987FF1F24B003402594FF1F024B1A683F
:1036C00001321A60704700BF0492FF1F08B50D4C0D
:1036D000236813F4802F01D0FFF74AF8236813F40E
:1036E000806F01D0FEF710FC236813F4006F01D047
:1036F000FEF7DAFE236813F4805FE9D000F02CFABD
:10370000E6E700BF3480044008B5FFF7DFFF00BFE5
:103710001022014B1A80704700200540704700BFFF
:10372000024A136818441060184670476C87FF1FE0
:10373000EFF31383ABB9EFF31083ABB9EFF305836A
:1037400023B10F2B05D9094A985C03E04FF4807030
:1037500000E00020EFF311833BB1834238BF1846ED
:1037600070474FF0FF30704700207047F0E300E0F3
:1037700030B40023B0FBF2F402FB14041D46092C04
:1037800094BF30343734E4B2CC54B0FBF2F008B11B
:103790000133EFE70D4400226A70934207DD885C35
:1037A000CC5C8C54C8540132013B9A42F7DB08468A
:1037B00030BC7047174B1A6842F480521A600023DD
:1037C000154A1370154A1370154A1370154A137071
:1037D000154A137040F21331144A11604FF45171BD
:1037E00004321160C0F34431114A1170C0F3471123
:1037F000517000F01F009072937013742C23D370DB
:1038000040220C4B1A704FF40032A3F22D331A6091
:10381000704700BF348004409494FF1F2894FF1F1A
:103820009C94FF1F9594FF1F2794FF1F08C004401E
:1038300000C0064031E400E0164B9B7803F0EC0337
:1038400000F00302134310F0040F18BF43F01003FD
:10385000104A937000F00F03042B04D113469279A1
:1038600042F040029A710B4B5A7902F0EF0210F0CD
:10387000100F18BF42F01002064B5A719B7903F0EB
:10388000EF0310F0200F18BF43F01003014A9371AB
:10389000704700BF00C0064010B5114B1B6813F401
:1038A000805F1CD00F4B1B7813F0FF0F06D00D4C20
:1038B000FFF7BEFD237813F0FF0FF9D14FF400326C
:1038C000094B1A600023094AD37040F203120849D9
:1038D0000A6004310A60074A1370074A137010BD6A
:1038E000348004402794FF1F84E100E000C00640BC
:1038F00008C004409494FF1F2894FF1F10B504468D
:10390000094A137813F0FF0FFBD120460121FDF780
:10391000D1FF20460021FDF7A9FF044B53F83420C6
:10392000034B1A6010BD00BF2794FF1F8496000050
:103930009894FF1F0D4B1B6813F4805F14D002286E
:103940000BD14FF440720A4B1A6003F500335A7BD7
:1039500042F008025A7301207047064B5A7B02F06E
:10396000F7025A73002070470020704734800440EB
:1039700000C0044000C006400D4B1B6813F4805F7C
:1039800013D00E280AD14FF440720A4B1A600A4B2A
:103990005A7B42F001025A7301207047064B5A7B52
:1039A00002F0FE025A73002070470020704700BFEB
:1039B0003480044004C0044000C006402DE9F041BA
:1039C00007461F4B1B6813F4805F37D01D4B1B68E5
:1039D0000BB101221A701C4B1C780134282C28BF13
:1039E00000241A4D1A4EDFF86C8017E0FFF7A0FE96
:1039F00040280FDC337913F0800F0FD02B78013380
:103A0000282B28BF002318F80320D2B2F271DBB2B2
:103A10002B7003E0FF2801DDFFF70AFD2B78DBB2F6
:103A20009C42E3D0FFB20B4B1F5501220A4B1A7088
:103A3000E4B2054B1C70AC22054BDA70BDE8F08196
:103A4000348004409894FF1F9C94FF1F9594FF1F9F
:103A500000C006402C94FF1F2794FF1F38B5054671
:103A60000C4629B115F8010BFFF7A8FF013CF9D16D
:103A700038BD00BF10B5064B1B7813F0FF0F06D002
:103A8000034CFFF7D5FC237813F0FF0FF9D110BDDD
:103A90002794FF1F064B1B78DBB2064A1278D2B27E
:103AA00093422CBF273202F1FF32D01A704700BF79
:103AB0009C94FF1F9594FF1F054B1878C0B2054BCF
:103AC0001B78DBB2984238BF4030C01A704700BF45
:103AD0009494FF1F2894FF1F0A4B1A78D2B20A4B06
:103AE0001B78DBB29A4209D00133402B28BF002358
:103AF000064AD05CDBB2044A137070474FF0FF30C7
:103B0000704700BF9494FF1F2894FF1F5494FF1F19
:103B1000094B1A78D2B2094B1B78DBB29A4207D014
:103B20000133402B28BF0023054AD05CC0B2704748
:103B30004FF0FF30704700BF9494FF1F2894FF1F81
:103B40005494FF1F024B1A78D2B2024B1A7070477E
:103B50002894FF1F9494FF1F264B1B7913F0200F0E
:103B600012D0244BDB79D9B2234B1B780133402B85
:103B700028BF0023214A1278D2B29A4204D0204AA8
:103B8000D154DBB21C4A13701A4BDB78DBB213F052
:103B9000800F1CD0174A127912F0800F17D0194AE3
:103BA0001178C9B2184A1278D2B2914203D16C216D
:103BB000104AD1700BE00132282A28BF0022134995
:103BC000885CC0B20B49C871D2B20F490A7013F0B9
:103BD000400F0ED0074B1B7913F0400F09D0002285
:103BE0000B4B1A700B4B1B6803B11A702C22014B44
:103BF000DA70704700C006409494FF1F2894FF1F9E
:103C00005494FF1F9C94FF1F9594FF1F2C94FF1F3B
:103C10002794FF1F9894FF1F00B585B072B61B4B09
:103C200070221A7041211A4A11700F21013A117045
:103C300080221A701A46137813F0800FFBD0154BB0
:103C4000186862B6144B98429CBF00EB800040009D
:103C500001A90A22FFF78CFD9DF804307BB908E02A
:103C600001A9595C31B19180023201330A2BF7D19D
:103C700000E0002301335B00084A137003E0074AA9
:103C800053800123ECE705B05DF804FB000002401F
:103C900007000240080002407F969800FC87FF1F43
:103CA00008B503681B68C9B2984708BD08B5036822
:103CB0001B68C9B2984708BD08B503681B68C9B23C
:103CC000984708BD08B503681B68C9B2984708BD86
:103CD00008B54B0803F1376000F5D830B0FBF1F0C0
:103CE000FEF7A2F908BD00BF10B514464B0803F15A
:103CF000376000F5D830B0FBF1F0FEF795F92046BB
:103D0000FEF7D8F910BD00BF08B5FEF703FA08BDED
:103D100008B50846FEF730FA08BD00BF08B50846EA
:103D2000FEF746FA003018BF012008BD08B5084666
:103D3000FEF760FA003018BF012008BD08B5FEF795
:103D40004FFB08BD08B5FEF777FB08BD08B5FEF7C9
:103D500057FB08BD08B5FEF721FB08BD08B5FEF707
:103D600085FB08BD08B5FEF729FB08BD08B5084668
:103D7000FEF762FA012008BD08B50846FEF75CFAB6
:103D8000012008BD10B5144608461146FEF7A4FAF6
:103D9000204610BD38B50D46084601F02FFF0446F9
:103DA00028462146FEF798FA204638BD704700BFE6
:103DB000044B00221A714FF47A7199601A73024A07
:103DC0001A607047A094FF1F7898000008B5036838
:103DD0001B68C9B2984708BD08B503681B68C9B21B
:103DE000984708BD08B503681B68C9B2984708BD65
:103DF00008B503681B68C9B2984708BD08B54B08E9
:103E000003F1B76000F55840B0FBF1F0FFF7D2FCCA
:103E100008BD00BF10B514464B0803F1B76000F5AC
:103E20005840B0FBF1F0FFF7C5FC2046FFF704FD5A
:103E300010BD00BF08B5FFF72FFD08BD08B5084647
:103E4000FFF75CFD08BD00BF08B50846FFF772FD2F
:103E5000003018BF012008BD08B50846FFF78CFDEB
:103E6000003018BF012008BD08B5FFF725FE08BDCA
:103E700008B5FFF74DFE08BD08B5FFF72DFE08BDDC
:103E800008B5FFF7F7FD08BD08B5FFF75BFE08BDF5
:103E900008B5FFF7FFFD08BD08B50846FFF78EFD22
:103EA000012008BD08B50846FFF788FD012008BDC0
:103EB00010B5144608461146FFF7D0FD204610BD48
:103EC00038B50D46084601F099FE044628462146BD
:103ED000FFF7C4FD204638BD704700BF044B0022E9
:103EE0001A714FF47A7199601A73024A1A60704716
:103EF000B094FF1FD098000031F0004310B408D0F8
:103F00000F4AA3F5801494420AD804205DF8044BAC
:103F1000704700280CBF022003205DF8044B704757
:103F2000B3F5801F01D20320F7E7064A934201D080
:103F30000020F2E7D0F1010038BF0020EDE700BF1C
:103F4000FFFFDF7F0000F07F81F0004102E000BF53
:103F500083F0004330B54FEA41044FEA430594EA49
:103F6000050F08BF90EA020F1FBF54EA000C55EA84
:103F7000020C7FEA645C7FEA655C00F0E2804FEA55
:103F80005454D4EB5555B8BF6D420CDD2C4480EA37
:103F9000020281EA030382EA000083EA010180EA67
:103FA000020281EA0303362D88BF30BD11F0004FB5
:103FB0004FEA01314FF4801C4CEA113102D04042EB
:103FC00061EB410113F0004F4FEA03334CEA133326
:103FD00002D0524263EB430394EA050F00F0A7803E
:103FE000A4F10104D5F1200E0DDB02FA0EFC22FA39
:103FF00005F2801841F1000103FA0EF2801843FA2D
:1040000005F359410EE0A5F120050EF1200E012A1D
:1040100003FA0EFC28BF4CF0020C43FA05F3C0185B
:1040200051EBE37101F0004507D54FF0000EDCF1D4
:10403000000C7EEB00006EEB0101B1F5801F1BD37D
:10404000B1F5001F0CD349085FEA30004FEA3C0C81
:1040500004F101044FEA445212F5800F80F09A8077
:10406000BCF1004F08BF5FEA500C50F1000041EB7B
:10407000045141EA050130BD5FEA4C0C404141EB7F
:10408000010111F4801FA4F10104E9D191F0000FA6
:1040900004BF01460020B1FA81F308BF2033A3F129
:1040A0000B03B3F120020CDA0C3208DD02F1140C20
:1040B000C2F10C0201FA0CF021FA02F10CE002F15B
:1040C0001402D8BFC2F1200C01FA02F120FA0CFC54
:1040D000DCBF41EA0C019040E41AA2BF01EB04519D
:1040E000294330BD6FEA04041F3C1CDA0C340EDC9B
:1040F00004F11404C4F1200220FA04F001FA02F3DE
:1041000040EA030021FA04F345EA030130BDC4F19B
:104110000C04C4F1200220FA02F001FA04F340EA90
:104120000300294630BD21FA04F0294630BD94F041
:10413000000F83F4801306BF81F480110134013D28
:104140004EE77FEA645C18BF7FEA655C29D094EA99
:10415000050F08BF90EA020F05D054EA000C04BF17
:104160001946104630BD91EA030F1EBF0021002002
:1041700030BD5FEA545C05D14000494128BF41F0A1
:10418000004130BD14F580043CBF01F5801130BD05
:1041900001F0004545F0FE4141F470014FF0000090
:1041A00030BD7FEA645C1ABF194610467FEA655C41
:1041B0001CBF0B46024650EA013406BF52EA0335E3
:1041C00091EA030F41F4002130BD00BF90F0000FD1
:1041D00004BF0021704730B54FF4806404F132040D
:1041E0004FF000054FF0000150E700BF90F0000FC6
:1041F00004BF0021704730B54FF4806404F13204ED
:1042000010F0004548BF40424FF000013EE700BFBC
:1042100042004FEAE2014FEA31014FEA02701FBF4C
:1042200012F07F4393F07F4F81F06051704792F01E
:10423000000F14BF93F07F4F704730B54FF4607498
:1042400001F0004521F0004120E700BF50EA0102E3
:1042500008BF704730B54FF000050AE050EA010290
:1042600008BF704730B511F0004502D5404261EB00
:1042700041014FF4806404F132045FEA915C3FF441
:10428000DCAE4FF003025FEADC0C18BF03325FEADA
:10429000DC0C18BF033202EBDC02C2F1200300FA8F
:1042A00003FC20FA02F001FA03FE40EA0E0021FAB4
:1042B00002F11444C1E600BF70B54FF0FF0C4CF49E
:1042C000E06C1CEA11541DBF1CEA135594EA0C0F54
:1042D00095EA0C0F00F0DEF82C4481EA030621EA8F
:1042E0004C5123EA4C5350EA013518BF52EA0335CA
:1042F00041F4801143F4801338D0A0FB02CE4FF07C
:104300000005E1FB02E506F00042E0FB03E54FF0AB
:104310000006E1FB03569CF0000F18BF4EF0010EA3
:10432000A4F1FF04B6F5007F64F5407404D25FEA9F
:104330004E0E6D4146EB060642EAC62141EA555152
:104340004FEAC52040EA5E504FEACE2EB4F1FD0C94
:1043500088BFBCF5E06F1ED8BEF1004F08BF5FEA12
:10436000500E50F1000041EB045170BD06F00046C4
:1043700046EA010140EA020081EA0301B4EB5C0471
:10438000C2BFD4EB0C0541EA045170BD41F4801169
:104390004FF0000E013C00F3AB8014F1360FDEBF8E
:1043A000002001F0004170BDC4F10004203C35DA6A
:1043B0000C341BDC04F11404C4F1200500FA05F3ED
:1043C00020FA04F001FA05F240EA020001F000428E
:1043D00021F0004110EBD37021FA04F642EB060104
:1043E0005EEA430E08BF20EAD37070BDC4F10C042E
:1043F000C4F1200500FA04F320FA05F001FA04F2F2
:1044000040EA020001F0004110EBD37041F10001DD
:104410005EEA430E08BF20EAD37070BDC4F12005E8
:1044200000FA05F24EEA020E20FA04F301FA05F250
:1044300043EA020321FA04F001F0004121FA04F2F8
:1044400020EA020000EBD3705EEA430E08BF20EAC8
:10445000D37070BD94F0000F0FD101F00046400002
:1044600041EB010111F4801F08BF013CF7D041EA84
:10447000060195F0000F18BF704703F00046520088
:1044800043EB030313F4801F08BF013DF7D043EA59
:104490000603704794EA0C0F0CEA135518BF95EA0F
:1044A0000C0F0CD050EA410618BF52EA4306D1D196
:1044B00081EA030101F000414FF0000070BD50EAB5
:1044C000410606BF1046194652EA430619D094EA3F
:1044D0000C0F02D150EA013613D195EA0C0F05D129
:1044E00052EA03361CBF104619460AD181EA03017D
:1044F00001F0004141F0FE4141F470014FF0000035
:1045000070BD41F0FE4141F4780170BD70B54FF0CF
:10451000FF0C4CF4E06C1CEA11541DBF1CEA13554F
:1045200094EA0C0F95EA0C0F00F0A7F8A4EB050431
:1045300081EA030E52EA03354FEA013100F0888028
:104540004FEA03334FF0805545EA131343EA1263F1
:104550004FEA022245EA111545EA10654FEA0026A6
:104560000EF000419D4208BF964244F1FD0404F55F
:10457000407402D25B084FEA3202B61A65EB0305BB
:104580005B084FEA32024FF480104FF4002CB6EB78
:10459000020E75EB030E22BFB61A754640EA0C00F8
:1045A0005B084FEA3202B6EB020E75EB030E22BF38
:1045B000B61A754640EA5C005B084FEA3202B6EB79
:1045C000020E75EB030E22BFB61A754640EA9C0038
:1045D0005B084FEA3202B6EB020E75EB030E22BF08
:1045E000B61A754640EADC0055EA060E18D04FEAC6
:1045F000051545EA16754FEA06164FEAC30343EA66
:1046000052734FEAC2025FEA1C1CC0D111F4801F32
:104610000BD141EA00014FF000004FF0004CB6E72B
:1046200011F4801F04BF01430020B4F1FD0C88BFCA
:10463000BCF5E06F3FF6AFAEB5EB030C04BFB6EBD5
:10464000020C5FEA500C50F1000041EB045170BDC8
:104650000EF0004E4EEA113114EB5C04C2BFD4EBF5
:104660000C0541EA045170BD41F480114FF0000E79
:10467000013C90E645EA060E8DE60CEA135594EAF5
:104680000C0F08BF95EA0C0F3FF43BAF94EA0C0FF8
:104690000AD150EA01347FF434AF95EA0C0F7FF46D
:1046A00025AF104619462CE795EA0C0F06D152EAC1
:1046B00003353FF4FDAE1046194622E750EA4106A5
:1046C00018BF52EA43067FF4C5AE50EA41047FF4B6
:1046D0000DAF52EA43057FF4EBAE12E74FF0FF3C1B
:1046E00006E000BF4FF0010C02E000BF4FF0010CEC
:1046F0004DF804CD4FEA410C7FEA6C5C4FEA430C65
:1047000018BF7FEA6C5C1BD001B050EA410C0CBFB3
:1047100052EA430C91EA030F02BF90EA020F002015
:10472000704710F1000F91EA030F58BF994208BF7C
:1047300090422CBFD8176FEAE37040F00100704739
:104740004FEA410C7FEA6C5C02D150EA013C07D190
:104750004FEA430C7FEA6C5CD6D152EA033CD3D0DB
:104760005DF8040B704700BF8446104662468C46D5
:104770001946634600E000BF01B5FFF7B7FF002808
:1047800048BF10F1000F01BD4DF808EDFFF7F4FF31
:104790000CBF012000205DF808FB00BF4DF808EDBC
:1047A000FFF7EAFF34BF012000205DF808FB00BFDF
:1047B0004DF808EDFFF7E0FF94BF012000205DF801
:1047C00008FB00BF4DF808EDFFF7CEFF94BF0120B6
:1047D00000205DF808FB00BF4DF808EDFFF7C4FFAF
:1047E00034BF012000205DF808FB00BF4FEA410202
:1047F00012F5001215D211D56FF47873B3EB625233
:1048000012D94FEAC12343F0004343EA505311F059
:10481000004F23FA02F018BF404270474FF00000EB
:10482000704750EA013005D111F0004008BF6FF029
:10483000004070474FF00000704700BF4FEA410250
:10484000B2F1E04324BFB3F5001CDCF1FE5C0DD9EE
:1048500001F0004C4FEAC0024CEA5070B2F1004F38
:1048600040EB830008BF20F00100704711F0804F3B
:1048700021D113F13872BCBF01F00040704741F400
:1048800080114FEA5252C2F11802C2F1200C10FA04
:104890000CF320FA02F018BF40F001004FEAC123E8
:1048A0004FEAD32303FA0CFC40EA0C0023FA02F38C
:1048B0004FEA4303CCE77FEA625307D150EA013362
:1048C0001EBF4FF0FE4040F44000704701F0004032
:1048D00040F0FE4040F40000704700BF80F0004010
:1048E00002E000BF81F0004142001FBF5FEA4103C8
:1048F00092EA030F7FEA226C7FEA236C6AD04FEAC8
:104900001262D2EB1363C1BFD2184140484041400C
:10491000B8BF5B42192B88BF704710F0004F40F4BE
:10492000000020F07F4018BF404211F0004F41F4DA
:10493000000121F07F4118BF494292EA030F3FD0A6
:10494000A2F1010241FA03FC10EB0C00C3F12003B9
:1049500001FA03F100F0004302D5494260EB400048
:10496000B0F5000F13D3B0F1807F06D340084FEAB3
:10497000310102F10102FE2A51D2B1F1004F40EBA8
:10498000C25008BF20F0010040EA03007047490010
:1049900040EB000010F4000FA2F10102EDD1B0FADB
:1049A00080FCACF1080CB2EB0C0200FA0CF0AABFD0
:1049B00000EBC25052421843BCBFD040184370476E
:1049C00092F0000F81F4000106BF80F40000013274
:1049D000013BB5E74FEA41037FEA226C18BF7FEA4B
:1049E000236C21D092EA030F04D092F0000F08BF8D
:1049F0000846704790EA010F1CBF0020704712F074
:104A00007F4F04D1400028BF40F00040704712F1B2
:104A100000723CBF00F50000704700F0004343F017
:104A2000FE4040F4000070477FEA226216BF08464D
:104A30007FEA23630146420206BF5FEA412390EA10
:104A4000010F40F4800070474FF0000304E000BF06
:104A500010F0004348BF40425FEA000C08BF7047B7
:104A600043F0964301464FF000001CE050EA01027B
:104A700008BF70474FF000030AE000BF50EA010290
:104A800008BF704711F0004302D5404261EB41017D
:104A90005FEA010C02BF84460146002043F0B643A2
:104AA00008BFA3F18053A3F50003BCFA8CF2083AC7
:104AB000A3EBC25310DB01FA02FC634400FA02FCD0
:104AC000C2F12002BCF1004F20FA02F243EB0200D7
:104AD00008BF20F00100704702F1200201FA02FC39
:104AE000C2F1200250EA4C0021FA02F243EB02002C
:104AF00008BF20EADC7070474FF0FF0C1CEAD05270
:104B00001EBF1CEAD15392EA0C0F93EA0C0F6FD030
:104B10001A4480EA010C400218BF5FEA41211ED00E
:104B20004FF0006343EA501043EA5111A0FB0131FA
:104B30000CF00040B1F5000F3EBF490041EAD371CF
:104B40005B0040EA010062F17F02FD2A1DD8B3F14B
:104B5000004F40EBC25008BF20F00100704790F0BA
:104B6000000F0CF0004C08BF49024CEA502040EA0C
:104B700051207F3AC2BFD2F1FF0340EAC2507047D2
:104B800040F400004FF00003013A5DDC12F1190F10
:104B9000DCBF00F000407047C2F10002410021FA82
:104BA00002F1C2F1200200FA02FC5FEA310040F19A
:104BB000000053EA4C0308BF20EADC70704792F013
:104BC000000F00F0004C02BF400010F4000F013A4B
:104BD000F9D040EA0C0093F0000F01F0004C02BF46
:104BE000490011F4000F013BF9D041EA0C018FE7B5
:104BF0000CEAD15392EA0C0F18BF93EA0C0F0AD0BB
:104C000030F0004C18BF31F0004CD8D180EA0100E0
:104C100000F00040704790F0000F17BF90F0004F79
:104C2000084691F0000F91F0004F14D092EA0C0F5B
:104C300001D142020FD193EA0C0F03D14B0218BFEE
:104C4000084608D180EA010000F0004040F0FE4034
:104C500040F40000704740F0FE4040F440007047D0
:104C60004FF0FF0C1CEAD0521EBF1CEAD15392EA4F
:104C70000C0F93EA0C0F69D0A2EB030280EA010C3F
:104C800049024FEA402037D04FF0805343EA1111D8
:104C900043EA10130CF000408B4238BF5B0042F136
:104CA0007D024FF4000C8B4224BF5B1A40EA0C00DB
:104CB000B3EB510F24BFA3EB510340EA5C00B3EB0D
:104CC000910F24BFA3EB910340EA9C00B3EBD10FFB
:104CD00024BFA3EBD10340EADC001B0118BF5FEA4D
:104CE0001C1CE0D1FD2A3FF650AF8B4240EBC25076
:104CF00008BF20F0010070470CF0004C4CEA502037
:104D00007F32C2BFD2F1FF0340EAC250704740F485
:104D100000004FF00003013A37E792F0000F00F077
:104D2000004C02BF400010F4000F013AF9D040EAF5
:104D30000C0093F0000F01F0004C02BF490011F489
:104D4000000F013BF9D041EA0C0195E70CEAD15381
:104D500092EA0C0F08D142027FF47DAF93EA0C0F68
:104D60007FF470AF084676E793EA0C0F04D14B024C
:104D70003FF44CAF08466EE730F0004C18BF31F0FE
:104D8000004CCAD130F000427FF45CAF31F00043F8
:104D90007FF43CAF5FE700BF4FEA4002B2F1FE4F45
:104DA0000FD34FF09E03B3EB12620DD94FEA0023ED
:104DB00043F0004310F0004F23FA02F018BF4042C6
:104DC00070474FF00000704712F1610F01D14202AD
:104DD00005D110F0004008BF6FF0004070474FF061
:104DE0000000704700210A2201F02EB800210A229B
:104DF00001F02AB870B50F4E0F4D761BB61007D0D4
:104E0000043D0024013455F8043F9847A642F9D1E7
:104E10000A4E0B4D761B04F0C5FEB61008D0043DBB
:104E20000024013455F8043F9847A642F9D170BDDB
:104E300070BD00BFB09B0000B09B0000CC9B000089
:104E4000B09B0000024B0146186800F003B800BF99
:104E5000408CFF1F2DE9F04F01F10B05162D83B09B
:104E6000064627D935F0070527D4A94225D830466C
:104E700000F036FBB5F5FC7F26D2C14F4FEAD50CCA
:104E800007EBCC03DC689C4200F0D2816368E268E7
:104E9000A16823F00303234430465D68CA6045F0EF
:104EA000010591605D6000F01DFB0834204603B0F1
:104EB000BDE8F08F1025A942D9D900240C23204643
:104EC000336003B0BDE8F08F5FEA552C00F08A80B4
:104ED000BCF1040F00F260814FEA951C0CF1380C14
:104EE0004FEA4C01A64F07EB8101CC68A14205D1E6
:104EF0000CE0002B7ADAE468A14207D0626822F065
:104F00000302531B0F2BF4DD0CF1FF3C0CF1010CE1
:104F10009B4B3C6903F1080E744500F07E8161688B
:104F200021F003014A1B0F2A00F36481002AC3F811
:104F300014E0C3F810E06ADAB1F5007F80F03A813E
:104F4000C90803EBC1004FEAA1085A688168A16053
:104F50004FF0010909FA08F848EA0202E0605A60D5
:104F60008460CC604FEAAC030120984090425BD84B
:104F7000024206D12CF0030C400002420CF1040C5A
:104F8000FAD007EBCC084446E146E3689C4207D1DF
:104F900045E1002A80F25681DB689C4200F03F81A7
:104FA000596821F003014A1B0F2AF2DD1C46D3F891
:104FB0000CC054F8088F591945F0010942F0010559
:104FC000C3F804903046C8F80CC0CCF8088079616A
:104FD0003961C1F80CE0C1F808E04D608A5000F07A
:104FE00081FA63E77E214FF03F0C7BE72244E368C0
:104FF0005068A16840F00105CB603046996055606B
:1050000000F070FA0834204603B0BDE8F08F214468
:1050100030464B6843F001034B6000F063FA0834FC
:10502000204603B0BDE8F08FBC68636823F0030935
:10503000A94504D3C5EB09030F2B00F39180514B15
:10504000514A19681368013305EB010A04EB090B97
:1050500000F061810AF5805A0AF10F0A2AF47F6A8A
:105060002AF00F0A30465146019200F023FCB0F1BD
:10507000FF3F8046019A00F00081834500F2FA80EC
:10508000DFF810C1DCF80030C3455344CCF80030E1
:1050900000F04A8112683C4901321BBFCBEB080B80
:1050A0005B44C1F80080CCF8003018F0070300F032
:1050B0001381C3F10802C3F5805390440833C244FE
:1050C000CAF30B0ACAEB030A51463046CDF804C0B6
:1050D00000F0F0FB431CDDF804C000F03581C8EBA4
:1050E0000002524442F00102DCF80030C7F80880A8
:1050F0005344BC42C8F80420CCF80030DFF894A038
:1051000015D0B9F10F0F40F2EA806168A9F10C02E5
:1051100022F0070201F0010EA118052042EA0E0E4E
:105120000F2AC4F804E04860886000F21181174A31
:10513000BC6811688B4288BF1360154A11688B42A6
:1051400088BF1360626822F003029542C5EB020338
:1051500001D80F2B04DC304600F0C4F90024A5E68A
:10516000621943F0010345F0010565603046BA60FD
:10517000536000F0B7F90834204603B0BDE8F08F63
:10518000448CFF1FC894FF1F5090FF1FC494FF1F43
:10519000C094FF1FCC94FF1FBCF1140F61D9BCF168
:1051A000540F00F28F804FEA153C0CF16E0C4FEA61
:1051B0004C0197E64B0A042B58D9142B00F2AE8011
:1051C00003F15B02500007EB8000DFF8BC818368CD
:1051D000834200F08A805A6822F00302914202D290
:1051E0009B689842F7D1D9687A68E160A3608C60C7
:1051F000DC60B7E6611942F0010745F00105656022
:10520000304659611961C1F80CE0C1F808E04F60FF
:105210008A50083400F066F948E65A68A2E609F1B7
:10522000010919F0030F04F108047FF4AEAE2DE07C
:1052300004F108036469A34208BF0CF1020C3FF4B7
:1052400067AE23E619441C464868DB6854F8082F0B
:1052500040F001054D603046D3609A6000F042F99D
:1052600024E60CF15B0C4FEA4C013BE68A0938322C
:105270005000A8E7BC423FF403AFBC68626822F06C
:10528000030262E7D8F8008098457BD11CF0030F39
:10529000A8F108030CF1FF3CF4D17B6823EA00037A
:1052A0007B60400098423FF6BFAE00283FF4BCAEA2
:1052B0000342CC467FF465AE400003420CF1040C7F
:1052C000FAD05EE6BCF5AA7F1AD84FEAD53C0CF1BD
:1052D000770C4FEA4C0105E64FF48053EFE60123CB
:1052E000C8F80430444600222FE791100120D8F876
:1052F000042000FA01F10A43C8F80420194674E7B3
:1053000040F254539C451BD84FEA954C0CF17C0C51
:105310004FEA4C01E6E50AF1100AA3E6542B1FD828
:105320000A0B6E3250004EE7CBF30B0100297FF4DD
:10533000B1AE0AEB0901BA6841F001015160F6E62D
:10534000FC214FF07E0CCDE501224FF0000ACBE6A8
:1053500004F10801304603F029F8DAF80030E6E6F7
:10536000B3F5AA7F03D8CA0B773250002BE740F27F
:105370005452934203D88A0C7C32500023E7FC201D
:105380007E2220E77B688CE7448CFF1F8842F0B4C4
:1053900010D98C18A0420DD28518531E42B1214657
:1053A0002A4611F8014D02F8014D013B5C1CF8D171
:1053B000F0BC70470F2A3FD940EA01039B073FD159
:1053C000A2F110073F0900EB071610360C46034602
:1053D00025681D6065685D60A5689D60E568DD60A5
:1053E0001033B34204F11004F2D17B1C02F00F0C15
:1053F0001B01BCF1030F1944034423D90E461D467B
:105400006446043C56F8047B45F8047B032CF8D82A
:10541000ACF1040424F00304043402F00302234436
:105420002144002AC4D01A4411F8014B03F8014B5F
:105430009342F9D1F0BC70470346002AF3D1B7E795
:105440000346F0E76246002AEDD1B1E7F0B48407E5
:1054500043D0541E002A3ED0CDB2034603E0621E64
:10546000002C38D0144603F8015B9A07F7D1032CBF
:105470002AD9CDB245EA05250F2C45EA054515D9AF
:10548000A4F110073F0903F1100606EB07161A46B0
:10549000156055609560D5601032B242F8D104F0C5
:1054A0000F040137032C03EB07130DD91E462246C8
:1054B000043A032A46F8045BFAD8221F22F00302BA
:1054C0000432134404F003042CB1C9B21C4403F8A1
:1054D000011BA342FBD1F0BC704714460346C6E74C
:1054E000704700BF704700BF2DE9F04F0C4683B0F6
:1054F00090468146002900F0E280FFF7F1FF08F1B5
:105500000B0654F8043C162E23F00305A4F10807FB
:105510004BD810210E46B0454CD88D4278DADFF8D2
:1055200090B3DBF808E07819864500F0CE80426839
:1055300022F0010C8444DCF804C01CF0010F7AD086
:1055400000221046DB0700F1928054F8083CC3EBC0
:10555000070ADAF8043023F003032B4488B37045BC
:1055600000F0ED8002EB030E8E452ADBC3688268F3
:105570005746D3609A6057F8081FDAF80C30CB60B2
:105580002A1F242A996000F22681132A40F2B38050
:105590002368CAF808306368CAF80C301B2A00F286
:1055A000308108340AF11003A6E026F00706002E29
:1055B0003146B0DA0C230020C9F8003003B0BDE852
:1055C000F08F8B4253DB5746DAF80C1057F8080F70
:1055D0002A1F242AC160886000F20981132A40F240
:1055E00004812168CAF808106168CAF80C101B2AE7
:1055F00000F21C8108340AF1100221681160616810
:105600005160A16891601D46DAF804303C46574667
:10561000AA1B0F2A03F0010319D82B433D447B60DA
:105620006B6843F001036B604846FFF75BFF204661
:1056300003B0BDE8F08F22F0030202EB050C8C45AD
:1056400080DBC26881686546CA609160E0E7B9198D
:1056500042F001001E430A447E604860536843F0F4
:10566000010308315360484602F0A0FEDCE74146E2
:105670004846FFF7EFFB8046D0B154F8043C23F0D6
:1056800001023A44A0F10801914200F09E802A1FD5
:10569000242A50D8132A23D80346224611681960B9
:1056A0005168596092689A602146484602F07EFE31
:1056B0004846FFF717FF404603B0BDE8F08F11469C
:1056C00003B0BDE8F04FFFF7C5BBDEF8042022F0C1
:1056D0000302501906F1100C604519DA704631E7E3
:1056E00023680360636843601B2A63D800F10803E2
:1056F00004F10802D2E73B4622681A6062685A60E9
:10570000A2689A603C467546DAF8043057467FE74F
:105710003744831B43F00103CBF808707B6054F8D7
:10572000043C03F001031E43484644F8046CFFF7B1
:10573000D9FE20467CE72146FFF728FEB4E702EBBE
:10574000030C06F110029445FFF63BAF5746DAF81A
:105750000C3057F8081F2A1F242ACB60996000F2EA
:105760008780132A78D92368CAF808306368CAF892
:105770000C301B2A00F2858008340AF110032268DD
:105780001A6062685A60A2689A600AEB0603C6EB68
:105790000C0242F00102CBF808305A60DAF804300B
:1057A00003F001031E434846CAF80460FFF79AFE5F
:1057B00038463DE7A3688360E368C360242A2CD0A1
:1057C00000F1100304F1100268E750F8042C22F0F5
:1057D000030215441CE72146384675463C46FFF750
:1057E000D5FD5746DAF8043012E73A4605E7214678
:1057F00038461D463C46FFF7C9FD5746DAF80430E7
:1058000006E7A368CAF81030E368CAF81430242AFF
:1058100018D010340AF118036EE723690361636935
:10582000436104F1180200F1180337E7A168CAF8D0
:105830001010E168CAF81410242A0FD010340AF1AD
:105840001802DAE62369CAF818306369CAF81C300E
:1058500018340AF120034FE73B4690E72269CAF863
:1058600018206269CAF81C2018340AF12002C4E624
:1058700021463846CDF804C0FFF788FDDDF804C0A6
:1058800083E7A368CAF81030E368CAF81430242A02
:1058900003D010340AF1180371E72369CAF81830ED
:1058A0006369CAF81C3018340AF1200367E700BFA7
:1058B000448CFF1F38B5074C00230546084623607B
:1058C000FDF72EFF431C00D038BD2368002BFBD012
:1058D0002B6038BD0495FF1F0EB4F0B59CB021AB12
:1058E0000F4953F8042B019305466FF000440868F4
:1058F00002954FF402774FF6FF7602A90695ADF8B0
:10590000147004940794ADF8166000F0A9FA029B95
:1059100000221A701CB0BDE8F04003B0704700BF11
:10592000408CFF1F40EA010C1CF0070F23D1BDF192
:10593000100DCDE90245CDE900676FF000064FF08C
:10594000000700BFF0E80223F1E80245A24282FA14
:1059500046FCA7FA86FC08BFBCF1000F40F0D780D8
:10596000AB4283FA46FCA7FA86FC08BFBCF1000FE5
:1059700040F0CA80E6E710F0030C21D020F00300CD
:1059800050F8042B5FEACC7C08D00FD211F801CB81
:105990005FFA92F3B3EB0C0C10D17BB111F801CB91
:1059A0005FFAA2F3B3EB0C0C08D13BB111F801CBB9
:1059B0005FFAB2F3B3EB0C0C00D10BB96046704741
:1059C000BDF1100DCDE90245CDE900676FF000068D
:1059D0004FF0000711F0030C2DD110F0040F0DD083
:1059E00050F8042B51F8044BA24282FA46FCA7FA65
:1059F00086FC08BFBCF1000F40F0898011F0040F55
:105A00009FD051F8045B00BFF0E80223AA4282FA5B
:105A100046FCA7FA86FC08BFBCF1000F71D1F1E883
:105A20000245A34283FA46FCA7FA86FC08BFBCF1F4
:105A3000000F63D1E8E721F00301BCF1020F1ED093
:105A40003BDA51F8045B00BF50F8043B4FEA1525E0
:105A500083FA46FCA7FA86FCB7EB0C2F03EA162262
:105A600008BFAA424DD151F8045BBCF1000F82EA95
:105A700003034FEA056208BF93423CD1E4E751F8C3
:105A8000045B00BF50F8043B4FEA154583FA46FC1F
:105A9000A7FA86FCB7EB0C4F03EA164208BFAA42EE
:105AA0002FD151F8045BBCF1000F82EA03034FEAE7
:105AB000054208BF93421ED1E4E751F8045B00BFE2
:105AC00050F8043B4FEA156583FA46FCA7FA86FCBA
:105AD000B7EB0C6F03EA166208BFAA4211D151F866
